{
  "_format": "hh-sol-artifact-1",
  "contractName": "Bank",
  "sourceName": "Contracts/newContract.sol",
  "abi": [
    {
      "inputs": [],
      "stateMutability": "nonpayable",
      "type": "constructor"
    },
    {
      "inputs": [],
      "name": "activeCustomer",
      "outputs": [],
      "stateMutability": "nonpayable",
      "type": "function"
    },
    {
      "inputs": [
        {
          "internalType": "address",
          "name": "_customerAddress",
          "type": "address"
        },
        {
          "internalType": "address",
          "name": "_addressToAdd",
          "type": "address"
        }
      ],
      "name": "addAuthorizedUser",
      "outputs": [],
      "stateMutability": "nonpayable",
      "type": "function"
    },
    {
      "inputs": [],
      "name": "deactiveCustomer",
      "outputs": [],
      "stateMutability": "nonpayable",
      "type": "function"
    },
    {
      "inputs": [],
      "name": "deposit",
      "outputs": [],
      "stateMutability": "payable",
      "type": "function"
    },
    {
      "inputs": [],
      "name": "getBankBalance",
      "outputs": [
        {
          "internalType": "uint256",
          "name": "",
          "type": "uint256"
        }
      ],
      "stateMutability": "view",
      "type": "function"
    },
    {
      "inputs": [],
      "name": "getCustomerBalance",
      "outputs": [
        {
          "internalType": "uint256",
          "name": "",
          "type": "uint256"
        }
      ],
      "stateMutability": "view",
      "type": "function"
    },
    {
      "inputs": [],
      "name": "getTransactionHistoryCustomer",
      "outputs": [
        {
          "components": [
            {
              "internalType": "uint256",
              "name": "amount",
              "type": "uint256"
            },
            {
              "internalType": "uint256",
              "name": "timeStamp",
              "type": "uint256"
            },
            {
              "internalType": "string",
              "name": "status",
              "type": "string"
            }
          ],
          "internalType": "struct Bank.Transaction[]",
          "name": "",
          "type": "tuple[]"
        }
      ],
      "stateMutability": "view",
      "type": "function"
    },
    {
      "inputs": [
        {
          "internalType": "address",
          "name": "_customer",
          "type": "address"
        },
        {
          "internalType": "address",
          "name": "_address",
          "type": "address"
        }
      ],
      "name": "isAuthorizedUser",
      "outputs": [
        {
          "internalType": "bool",
          "name": "",
          "type": "bool"
        }
      ],
      "stateMutability": "view",
      "type": "function"
    },
    {
      "inputs": [
        {
          "internalType": "address payable",
          "name": "_recipient",
          "type": "address"
        },
        {
          "internalType": "uint256",
          "name": "_amount",
          "type": "uint256"
        }
      ],
      "name": "withdraw",
      "outputs": [
        {
          "internalType": "bool",
          "name": "",
          "type": "bool"
        }
      ],
      "stateMutability": "payable",
      "type": "function"
    }
  ],
  "bytecode": "0x60806040526001600460006101000a81548160ff021916908315150217905550348015602a57600080fd5b50336000806101000a81548173ffffffffffffffffffffffffffffffffffffffff021916908373ffffffffffffffffffffffffffffffffffffffff1602179055506000600181905550611d16806100826000396000f3fe6080604052600436106100865760003560e01c8063a853409a11610059578063a853409a14610133578063c306d4fb1461015e578063d0e30db014610189578063dd646cc414610193578063f3fef3a3146101aa57610086565b80633d5b83751461008b57806352ffcb4b146100b45780637b83b50b146100f15780639cb560251461011c575b600080fd5b34801561009757600080fd5b506100b260048036038101906100ad91906112be565b6101da565b005b3480156100c057600080fd5b506100db60048036038101906100d691906112be565b610450565b6040516100e89190611319565b60405180910390f35b3480156100fd57600080fd5b506101066104e7565b604051610113919061134d565b60405180910390f35b34801561012857600080fd5b5061013161057e565b005b34801561013f57600080fd5b5061014861059b565b604051610155919061134d565b60405180910390f35b34801561016a57600080fd5b506101736105e5565b6040516101809190611519565b60405180910390f35b61019161072a565b005b34801561019f57600080fd5b506101a8610967565b005b6101c460048036038101906101bf91906115a5565b610984565b6040516101d19190611319565b60405180910390f35b8173ffffffffffffffffffffffffffffffffffffffff163373ffffffffffffffffffffffffffffffffffffffff1614610248576040517f08c379a000000000000000000000000000000000000000000000000000000000815260040161023f90611642565b60405180910390fd5b600360008273ffffffffffffffffffffffffffffffffffffffff1673ffffffffffffffffffffffffffffffffffffffff16815260200190815260200160002060000160149054906101000a900460ff16156102d8576040517f08c379a00000000000000000000000000000000000000000000000000000000081526004016102cf906116d4565b60405180910390fd5b6001600260008473ffffffffffffffffffffffffffffffffffffffff1673ffffffffffffffffffffffffffffffffffffffff16815260200190815260200160002060030160008373ffffffffffffffffffffffffffffffffffffffff1673ffffffffffffffffffffffffffffffffffffffff16815260200190815260200160002060006101000a81548160ff02191690831515021790555081600360008373ffffffffffffffffffffffffffffffffffffffff1673ffffffffffffffffffffffffffffffffffffffff16815260200190815260200160002060000160006101000a81548173ffffffffffffffffffffffffffffffffffffffff021916908373ffffffffffffffffffffffffffffffffffffffff1602179055506001600360008373ffffffffffffffffffffffffffffffffffffffff1673ffffffffffffffffffffffffffffffffffffffff16815260200190815260200160002060000160146101000a81548160ff0219169083151502179055505050565b6000600260008473ffffffffffffffffffffffffffffffffffffffff1673ffffffffffffffffffffffffffffffffffffffff16815260200190815260200160002060030160008373ffffffffffffffffffffffffffffffffffffffff1673ffffffffffffffffffffffffffffffffffffffff16815260200190815260200160002060009054906101000a900460ff16905092915050565b60008060009054906101000a900473ffffffffffffffffffffffffffffffffffffffff1673ffffffffffffffffffffffffffffffffffffffff163373ffffffffffffffffffffffffffffffffffffffff1614610578576040517f08c379a000000000000000000000000000000000000000000000000000000000815260040161056f90611766565b60405180910390fd5b47905090565b6001600460006101000a81548160ff021916908315150217905550565b6000600260003373ffffffffffffffffffffffffffffffffffffffff1673ffffffffffffffffffffffffffffffffffffffff16815260200190815260200160002060040154905090565b6060600260003373ffffffffffffffffffffffffffffffffffffffff1673ffffffffffffffffffffffffffffffffffffffff168152602001908152602001600020600201805480602002602001604051908101604052809291908181526020016000905b8282101561072157838290600052602060002090600302016040518060600160405290816000820154815260200160018201548152602001600282018054610690906117b5565b80601f01602080910402602001604051908101604052809291908181526020018280546106bc906117b5565b80156107095780601f106106de57610100808354040283529160200191610709565b820191906000526020600020905b8154815290600101906020018083116106ec57829003601f168201915b50505050508152505081526020019060010190610649565b50505050905090565b346001546107389190611815565b60018190555034600260003373ffffffffffffffffffffffffffffffffffffffff1673ffffffffffffffffffffffffffffffffffffffff16815260200190815260200160002060040160008282546107909190611815565b92505081905550600260003373ffffffffffffffffffffffffffffffffffffffff1673ffffffffffffffffffffffffffffffffffffffff16815260200190815260200160002060000160405180606001604052803481526020014281526020016040518060400160405280600881526020017f526563696269646f00000000000000000000000000000000000000000000000081525081525090806001815401808255809150506001900390600052602060002090600302016000909190919091506000820151816000015560208201518160010155604082015181600201908161087b9190611a24565b505050600260003373ffffffffffffffffffffffffffffffffffffffff1673ffffffffffffffffffffffffffffffffffffffff16815260200190815260200160002060020160405180606001604052803481526020014281526020016040518060400160405280600881526020017f526563696269646f0000000000000000000000000000000000000000000000008152508152509080600181540180825580915050600190039060005260206000209060030201600090919091909150600082015181600001556020820151816001015560408201518160020190816109629190611a24565b505050565b6000600460006101000a81548160ff021916908315150217905550565b6000801515600460009054906101000a900460ff16151503610f1657610a0c600360003373ffffffffffffffffffffffffffffffffffffffff1673ffffffffffffffffffffffffffffffffffffffff16815260200190815260200160002060000160009054906101000a900473ffffffffffffffffffffffffffffffffffffffff1633610450565b610a4b576040517f08c379a0000000000000000000000000000000000000000000000000000000008152600401610a4290611b68565b60405180910390fd5b8160026000600360003373ffffffffffffffffffffffffffffffffffffffff1673ffffffffffffffffffffffffffffffffffffffff16815260200190815260200160002060000160009054906101000a900473ffffffffffffffffffffffffffffffffffffffff1673ffffffffffffffffffffffffffffffffffffffff1673ffffffffffffffffffffffffffffffffffffffff168152602001908152602001600020600401541015610b32576040517f08c379a0000000000000000000000000000000000000000000000000000000008152600401610b2990611bfa565b60405180910390fd5b8160026000600360003373ffffffffffffffffffffffffffffffffffffffff1673ffffffffffffffffffffffffffffffffffffffff16815260200190815260200160002060000160009054906101000a900473ffffffffffffffffffffffffffffffffffffffff1673ffffffffffffffffffffffffffffffffffffffff1673ffffffffffffffffffffffffffffffffffffffff1681526020019081526020016000206004016000828254610be69190611c1a565b9250508190555060008373ffffffffffffffffffffffffffffffffffffffff166108fc849081150290604051600060405180830381858888f19350505050905080610c66576040517f08c379a0000000000000000000000000000000000000000000000000000000008152600401610c5d90611cc0565b60405180910390fd5b82600154610c749190611c1a565b60018190555060026000600360003373ffffffffffffffffffffffffffffffffffffffff1673ffffffffffffffffffffffffffffffffffffffff16815260200190815260200160002060000160009054906101000a900473ffffffffffffffffffffffffffffffffffffffff1673ffffffffffffffffffffffffffffffffffffffff1673ffffffffffffffffffffffffffffffffffffffff16815260200190815260200160002060010160405180606001604052808581526020014281526020016040518060400160405280600781526020017f456e766961646f00000000000000000000000000000000000000000000000000815250815250908060018154018082558091505060019003906000526020600020906003020160009091909190915060008201518160000155602082015181600101556040820151816002019081610dc09190611a24565b50505060026000600360003373ffffffffffffffffffffffffffffffffffffffff1673ffffffffffffffffffffffffffffffffffffffff16815260200190815260200160002060000160009054906101000a900473ffffffffffffffffffffffffffffffffffffffff1673ffffffffffffffffffffffffffffffffffffffff1673ffffffffffffffffffffffffffffffffffffffff16815260200190815260200160002060020160405180606001604052808581526020014281526020016040518060400160405280600781526020017f456e766961646f00000000000000000000000000000000000000000000000000815250815250908060018154018082558091505060019003906000526020600020906003020160009091909190915060008201518160000155602082015181600101556040820151816002019081610f099190611a24565b5050506001915050611255565b81600260003373ffffffffffffffffffffffffffffffffffffffff1673ffffffffffffffffffffffffffffffffffffffff168152602001908152602001600020600401541015610f9b576040517f08c379a0000000000000000000000000000000000000000000000000000000008152600401610f9290611bfa565b60405180910390fd5b81600260003373ffffffffffffffffffffffffffffffffffffffff1673ffffffffffffffffffffffffffffffffffffffff1681526020019081526020016000206004016000828254610fed9190611c1a565b9250508190555060008373ffffffffffffffffffffffffffffffffffffffff166108fc849081150290604051600060405180830381858888f1935050505090508061106d576040517f08c379a000000000000000000000000000000000000000000000000000000000815260040161106490611cc0565b60405180910390fd5b8260015461107b9190611c1a565b600181905550600260003373ffffffffffffffffffffffffffffffffffffffff1673ffffffffffffffffffffffffffffffffffffffff16815260200190815260200160002060010160405180606001604052808581526020014281526020016040518060400160405280600781526020017f456e766961646f000000000000000000000000000000000000000000000000008152508152509080600181540180825580915050600190039060005260206000209060030201600090919091909150600082015181600001556020820151816001015560408201518160020190816111659190611a24565b505050600260003373ffffffffffffffffffffffffffffffffffffffff1673ffffffffffffffffffffffffffffffffffffffff16815260200190815260200160002060020160405180606001604052808581526020014281526020016040518060400160405280600781526020017f456e766961646f0000000000000000000000000000000000000000000000000081525081525090806001815401808255809150506001900390600052602060002090600302016000909190919091506000820151816000015560208201518160010155604082015181600201908161124c9190611a24565b50505060019150505b92915050565b600080fd5b600073ffffffffffffffffffffffffffffffffffffffff82169050919050565b600061128b82611260565b9050919050565b61129b81611280565b81146112a657600080fd5b50565b6000813590506112b881611292565b92915050565b600080604083850312156112d5576112d461125b565b5b60006112e3858286016112a9565b92505060206112f4858286016112a9565b9150509250929050565b60008115159050919050565b611313816112fe565b82525050565b600060208201905061132e600083018461130a565b92915050565b6000819050919050565b61134781611334565b82525050565b6000602082019050611362600083018461133e565b92915050565b600081519050919050565b600082825260208201905092915050565b6000819050602082019050919050565b61139d81611334565b82525050565b600081519050919050565b600082825260208201905092915050565b60005b838110156113dd5780820151818401526020810190506113c2565b60008484015250505050565b6000601f19601f8301169050919050565b6000611405826113a3565b61140f81856113ae565b935061141f8185602086016113bf565b611428816113e9565b840191505092915050565b600060608301600083015161144b6000860182611394565b50602083015161145e6020860182611394565b506040830151848203604086015261147682826113fa565b9150508091505092915050565b600061148f8383611433565b905092915050565b6000602082019050919050565b60006114af82611368565b6114b98185611373565b9350836020820285016114cb85611384565b8060005b8581101561150757848403895281516114e88582611483565b94506114f383611497565b925060208a019950506001810190506114cf565b50829750879550505050505092915050565b6000602082019050818103600083015261153381846114a4565b905092915050565b600061154682611260565b9050919050565b6115568161153b565b811461156157600080fd5b50565b6000813590506115738161154d565b92915050565b61158281611334565b811461158d57600080fd5b50565b60008135905061159f81611579565b92915050565b600080604083850312156115bc576115bb61125b565b5b60006115ca85828601611564565b92505060206115db85828601611590565b9150509250929050565b600082825260208201905092915050565b7f4a757374207468652062616e6b6572732063616e206164642075736572730000600082015250565b600061162c601e836115e5565b9150611637826115f6565b602082019050919050565b6000602082019050818103600083015261165b8161161f565b9050919050565b7f796120656c207573756172696f206573746120636f6d6f206175746f72697a6160008201527f646f000000000000000000000000000000000000000000000000000000000000602082015250565b60006116be6022836115e5565b91506116c982611662565b604082019050919050565b600060208201905081810360008301526116ed816116b1565b9050919050565b7f536f6c6f20656c206f776e65722064656c2062616e636f20707565646520736160008201527f626572206573746120696e666f726d6163696f6e000000000000000000000000602082015250565b60006117506034836115e5565b915061175b826116f4565b604082019050919050565b6000602082019050818103600083015261177f81611743565b9050919050565b7f4e487b7100000000000000000000000000000000000000000000000000000000600052602260045260246000fd5b600060028204905060018216806117cd57607f821691505b6020821081036117e0576117df611786565b5b50919050565b7f4e487b7100000000000000000000000000000000000000000000000000000000600052601160045260246000fd5b600061182082611334565b915061182b83611334565b9250828201905080821115611843576118426117e6565b5b92915050565b7f4e487b7100000000000000000000000000000000000000000000000000000000600052604160045260246000fd5b60008190508160005260206000209050919050565b60006020601f8301049050919050565b600082821b905092915050565b6000600883026118da7fffffffffffffffffffffffffffffffffffffffffffffffffffffffffffffffff8261189d565b6118e4868361189d565b95508019841693508086168417925050509392505050565b6000819050919050565b600061192161191c61191784611334565b6118fc565b611334565b9050919050565b6000819050919050565b61193b83611906565b61194f61194782611928565b8484546118aa565b825550505050565b600090565b611964611957565b61196f818484611932565b505050565b5b818110156119935761198860008261195c565b600181019050611975565b5050565b601f8211156119d8576119a981611878565b6119b28461188d565b810160208510156119c1578190505b6119d56119cd8561188d565b830182611974565b50505b505050565b600082821c905092915050565b60006119fb600019846008026119dd565b1980831691505092915050565b6000611a1483836119ea565b9150826002028217905092915050565b611a2d826113a3565b67ffffffffffffffff811115611a4657611a45611849565b5b611a5082546117b5565b611a5b828285611997565b600060209050601f831160018114611a8e5760008415611a7c578287015190505b611a868582611a08565b865550611aee565b601f198416611a9c86611878565b60005b82811015611ac457848901518255600182019150602085019450602081019050611a9f565b86831015611ae15784890151611add601f8916826119ea565b8355505b6001600288020188555050505b505050505050565b7f4e6f206573746173206175746f72697a61646f2070617261207265616c697a6160008201527f72206c61206f7065726163696f6e000000000000000000000000000000000000602082015250565b6000611b52602e836115e5565b9150611b5d82611af6565b604082019050919050565b60006020820190508181036000830152611b8181611b45565b9050919050565b7f6e6f206861792064696e65726f20737566696369656e7465207061726120726560008201527f616c697a6172206c61207472616e73666572656e636961000000000000000000602082015250565b6000611be46037836115e5565b9150611bef82611b88565b604082019050919050565b60006020820190508181036000830152611c1381611bd7565b9050919050565b6000611c2582611334565b9150611c3083611334565b9250828203905081811115611c4857611c476117e6565b5b92915050565b7f5468652062616c616e636520636f756c64206e6f74206265207769746864726160008201527f776e000000000000000000000000000000000000000000000000000000000000602082015250565b6000611caa6022836115e5565b9150611cb582611c4e565b604082019050919050565b60006020820190508181036000830152611cd981611c9d565b905091905056fea26469706673582212201820eb2605c6e49a73b7e42b96d330b93822d184da20e21c5ed92782876d280364736f6c634300081b0033",
  "linkReferences": {},
  "deployedLinkReferences": {}
}