{
	"Bank_Project.sol": {
		"Bank": {
			"abi": [
				{
					"inputs": [],
					"stateMutability": "nonpayable",
					"type": "constructor"
				},
				{
					"inputs": [],
					"name": "activeCustomer",
					"outputs": [],
					"stateMutability": "nonpayable",
					"type": "function"
				},
				{
					"inputs": [
						{
							"internalType": "address",
							"name": "_customerAddress",
							"type": "address"
						},
						{
							"internalType": "address",
							"name": "_addressToAdd",
							"type": "address"
						}
					],
					"name": "addAuthorizedUser",
					"outputs": [],
					"stateMutability": "nonpayable",
					"type": "function"
				},
				{
					"inputs": [],
					"name": "deactiveCustomer",
					"outputs": [],
					"stateMutability": "nonpayable",
					"type": "function"
				},
				{
					"inputs": [],
					"name": "deposit",
					"outputs": [],
					"stateMutability": "payable",
					"type": "function"
				},
				{
					"inputs": [],
					"name": "getBankBalance",
					"outputs": [
						{
							"internalType": "uint256",
							"name": "",
							"type": "uint256"
						}
					],
					"stateMutability": "view",
					"type": "function"
				},
				{
					"inputs": [],
					"name": "getCustomerBalance",
					"outputs": [
						{
							"internalType": "uint256",
							"name": "",
							"type": "uint256"
						}
					],
					"stateMutability": "view",
					"type": "function"
				},
				{
					"inputs": [],
					"name": "getTransactionHistoryCustomer",
					"outputs": [
						{
							"components": [
								{
									"internalType": "uint256",
									"name": "amount",
									"type": "uint256"
								},
								{
									"internalType": "uint256",
									"name": "timeStamp",
									"type": "uint256"
								},
								{
									"internalType": "string",
									"name": "status",
									"type": "string"
								}
							],
							"internalType": "struct Bank.Transaction[]",
							"name": "",
							"type": "tuple[]"
						}
					],
					"stateMutability": "view",
					"type": "function"
				},
				{
					"inputs": [
						{
							"internalType": "address",
							"name": "_customer",
							"type": "address"
						},
						{
							"internalType": "address",
							"name": "_address",
							"type": "address"
						}
					],
					"name": "isAuthorizedUser",
					"outputs": [
						{
							"internalType": "bool",
							"name": "",
							"type": "bool"
						}
					],
					"stateMutability": "view",
					"type": "function"
				},
				{
					"inputs": [
						{
							"internalType": "address payable",
							"name": "_recipient",
							"type": "address"
						},
						{
							"internalType": "uint256",
							"name": "_amount",
							"type": "uint256"
						}
					],
					"name": "withdraw",
					"outputs": [
						{
							"internalType": "bool",
							"name": "",
							"type": "bool"
						}
					],
					"stateMutability": "payable",
					"type": "function"
				}
			],
			"devdoc": {
				"kind": "dev",
				"methods": {},
				"version": 1
			},
			"evm": {
				"assembly": "    /* \"Bank_Project.sol\":67:6005  contract Bank {... */\n  mstore(0x40, 0x80)\n    /* \"Bank_Project.sol\":958:962  true */\n  0x01\n    /* \"Bank_Project.sol\":937:962  bool customerState = true */\n  0x05\n  exp(0x0100, 0x00)\n  dup2\n  sload\n  dup2\n  0xff\n  mul\n  not\n  and\n  swap1\n  dup4\n  iszero\n  iszero\n  mul\n  or\n  swap1\n  sstore\n  pop\n    /* \"Bank_Project.sol\":971:1047  constructor () {... */\n  callvalue\n  dup1\n  iszero\n  tag_1\n  jumpi\n  0x00\n  dup1\n  revert\ntag_1:\n  pop\n    /* \"Bank_Project.sol\":1004:1014  msg.sender */\n  caller\n    /* \"Bank_Project.sol\":997:1003  banker */\n  0x00\n  dup1\n    /* \"Bank_Project.sol\":997:1014  banker=msg.sender */\n  0x0100\n  exp\n  dup2\n  sload\n  dup2\n  0xffffffffffffffffffffffffffffffffffffffff\n  mul\n  not\n  and\n  swap1\n  dup4\n  0xffffffffffffffffffffffffffffffffffffffff\n  and\n  mul\n  or\n  swap1\n  sstore\n  pop\n    /* \"Bank_Project.sol\":1038:1039  0 */\n  0x00\n    /* \"Bank_Project.sol\":1025:1037  totalBalance */\n  0x02\n    /* \"Bank_Project.sol\":1025:1039  totalBalance=0 */\n  dup2\n  swap1\n  sstore\n  pop\n    /* \"Bank_Project.sol\":67:6005  contract Bank {... */\n  dataSize(sub_0)\n  dup1\n  dataOffset(sub_0)\n  0x00\n  codecopy\n  0x00\n  return\nstop\n\nsub_0: assembly {\n        /* \"Bank_Project.sol\":67:6005  contract Bank {... */\n      mstore(0x40, 0x80)\n      jumpi(tag_1, lt(calldatasize, 0x04))\n      shr(0xe0, calldataload(0x00))\n      dup1\n      0xa853409a\n      gt\n      tag_11\n      jumpi\n      dup1\n      0xa853409a\n      eq\n      tag_6\n      jumpi\n      dup1\n      0xc306d4fb\n      eq\n      tag_7\n      jumpi\n      dup1\n      0xd0e30db0\n      eq\n      tag_8\n      jumpi\n      dup1\n      0xdd646cc4\n      eq\n      tag_9\n      jumpi\n      dup1\n      0xf3fef3a3\n      eq\n      tag_10\n      jumpi\n      jump(tag_1)\n    tag_11:\n      dup1\n      0x3d5b8375\n      eq\n      tag_2\n      jumpi\n      dup1\n      0x52ffcb4b\n      eq\n      tag_3\n      jumpi\n      dup1\n      0x7b83b50b\n      eq\n      tag_4\n      jumpi\n      dup1\n      0x9cb56025\n      eq\n      tag_5\n      jumpi\n    tag_1:\n      0x00\n      dup1\n      revert\n        /* \"Bank_Project.sol\":4528:5297  function addAuthorizedUser  (address _customerAddress, address _addressToAdd) public  {... */\n    tag_2:\n      callvalue\n      dup1\n      iszero\n      tag_12\n      jumpi\n      0x00\n      dup1\n      revert\n    tag_12:\n      pop\n      tag_13\n      0x04\n      dup1\n      calldatasize\n      sub\n      dup2\n      add\n      swap1\n      tag_14\n      swap2\n      swap1\n      tag_15\n      jump\t// in\n    tag_14:\n      tag_16\n      jump\t// in\n    tag_13:\n      stop\n        /* \"Bank_Project.sol\":5305:5559  function isAuthorizedUser (address _customer, address _address) public view returns (bool) {... */\n    tag_3:\n      callvalue\n      dup1\n      iszero\n      tag_17\n      jumpi\n      0x00\n      dup1\n      revert\n    tag_17:\n      pop\n      tag_18\n      0x04\n      dup1\n      calldatasize\n      sub\n      dup2\n      add\n      swap1\n      tag_19\n      swap2\n      swap1\n      tag_15\n      jump\t// in\n    tag_19:\n      tag_20\n      jump\t// in\n    tag_18:\n      mload(0x40)\n      tag_21\n      swap2\n      swap1\n      tag_22\n      jump\t// in\n    tag_21:\n      mload(0x40)\n      dup1\n      swap2\n      sub\n      swap1\n      return\n        /* \"Bank_Project.sol\":4314:4518  function getBankBalance () public view returns (uint) {... */\n    tag_4:\n      callvalue\n      dup1\n      iszero\n      tag_23\n      jumpi\n      0x00\n      dup1\n      revert\n    tag_23:\n      pop\n      tag_24\n      tag_25\n      jump\t// in\n    tag_24:\n      mload(0x40)\n      tag_26\n      swap2\n      swap1\n      tag_27\n      jump\t// in\n    tag_26:\n      mload(0x40)\n      dup1\n      swap2\n      sub\n      swap1\n      return\n        /* \"Bank_Project.sol\":5814:5886  function activeCustomer() public {... */\n    tag_5:\n      callvalue\n      dup1\n      iszero\n      tag_28\n      jumpi\n      0x00\n      dup1\n      revert\n    tag_28:\n      pop\n      tag_29\n      tag_30\n      jump\t// in\n    tag_29:\n      stop\n        /* \"Bank_Project.sol\":4122:4256  function getCustomerBalance () public view returns (uint) {... */\n    tag_6:\n      callvalue\n      dup1\n      iszero\n      tag_31\n      jumpi\n      0x00\n      dup1\n      revert\n    tag_31:\n      pop\n      tag_32\n      tag_33\n      jump\t// in\n    tag_32:\n      mload(0x40)\n      tag_34\n      swap2\n      swap1\n      tag_27\n      jump\t// in\n    tag_34:\n      mload(0x40)\n      dup1\n      swap2\n      sub\n      swap1\n      return\n        /* \"Bank_Project.sol\":5614:5773  function getTransactionHistoryCustomer () public view returns (Transaction[] memory) {... */\n    tag_7:\n      callvalue\n      dup1\n      iszero\n      tag_35\n      jumpi\n      0x00\n      dup1\n      revert\n    tag_35:\n      pop\n      tag_36\n      tag_37\n      jump\t// in\n    tag_36:\n      mload(0x40)\n      tag_38\n      swap2\n      swap1\n      tag_39\n      jump\t// in\n    tag_38:\n      mload(0x40)\n      dup1\n      swap2\n      sub\n      swap1\n      return\n        /* \"Bank_Project.sol\":1089:1647  function deposit () public payable {... */\n    tag_8:\n      tag_40\n      tag_41\n      jump\t// in\n    tag_40:\n      stop\n        /* \"Bank_Project.sol\":5925:6000  function deactiveCustomer() public {... */\n    tag_9:\n      callvalue\n      dup1\n      iszero\n      tag_42\n      jumpi\n      0x00\n      dup1\n      revert\n    tag_42:\n      pop\n      tag_43\n      tag_44\n      jump\t// in\n    tag_43:\n      stop\n        /* \"Bank_Project.sol\":1655:4062  function withdraw (address payable _recipient, uint _amount) public payable returns (bool) {... */\n    tag_10:\n      tag_45\n      0x04\n      dup1\n      calldatasize\n      sub\n      dup2\n      add\n      swap1\n      tag_46\n      swap2\n      swap1\n      tag_47\n      jump\t// in\n    tag_46:\n      tag_48\n      jump\t// in\n    tag_45:\n      mload(0x40)\n      tag_49\n      swap2\n      swap1\n      tag_22\n      jump\t// in\n    tag_49:\n      mload(0x40)\n      dup1\n      swap2\n      sub\n      swap1\n      return\n        /* \"Bank_Project.sol\":4528:5297  function addAuthorizedUser  (address _customerAddress, address _addressToAdd) public  {... */\n    tag_16:\n        /* \"Bank_Project.sol\":4715:4731  _customerAddress */\n      dup2\n        /* \"Bank_Project.sol\":4701:4731  msg.sender == _customerAddress */\n      0xffffffffffffffffffffffffffffffffffffffff\n      and\n        /* \"Bank_Project.sol\":4701:4711  msg.sender */\n      caller\n        /* \"Bank_Project.sol\":4701:4731  msg.sender == _customerAddress */\n      0xffffffffffffffffffffffffffffffffffffffff\n      and\n      eq\n        /* \"Bank_Project.sol\":4692:4766  require (msg.sender == _customerAddress, \"Just the bankers can add users\") */\n      tag_51\n      jumpi\n      mload(0x40)\n      0x08c379a000000000000000000000000000000000000000000000000000000000\n      dup2\n      mstore\n      0x04\n      add\n      tag_52\n      swap1\n      tag_53\n      jump\t// in\n    tag_52:\n      mload(0x40)\n      dup1\n      swap2\n      sub\n      swap1\n      revert\n    tag_51:\n        /* \"Bank_Project.sol\":4825:4840  authorizedUsers */\n      0x04\n        /* \"Bank_Project.sol\":4825:4855  authorizedUsers[_addressToAdd] */\n      0x00\n        /* \"Bank_Project.sol\":4841:4854  _addressToAdd */\n      dup3\n        /* \"Bank_Project.sol\":4825:4855  authorizedUsers[_addressToAdd] */\n      0xffffffffffffffffffffffffffffffffffffffff\n      and\n      0xffffffffffffffffffffffffffffffffffffffff\n      and\n      dup2\n      mstore\n      0x20\n      add\n      swap1\n      dup2\n      mstore\n      0x20\n      add\n      0x00\n      keccak256\n        /* \"Bank_Project.sol\":4825:4859  authorizedUsers[_addressToAdd].set */\n      0x00\n      add\n      0x14\n      swap1\n      sload\n      swap1\n      0x0100\n      exp\n      swap1\n      div\n      0xff\n      and\n        /* \"Bank_Project.sol\":4824:4859  !authorizedUsers[_addressToAdd].set */\n      iszero\n        /* \"Bank_Project.sol\":4816:4897  require(!authorizedUsers[_addressToAdd].set,\"ya el usuario esta como autorizado\") */\n      tag_54\n      jumpi\n      mload(0x40)\n      0x08c379a000000000000000000000000000000000000000000000000000000000\n      dup2\n      mstore\n      0x04\n      add\n      tag_55\n      swap1\n      tag_56\n      jump\t// in\n    tag_55:\n      mload(0x40)\n      dup1\n      swap2\n      sub\n      swap1\n      revert\n    tag_54:\n        /* \"Bank_Project.sol\":5083:5087  true */\n      0x01\n        /* \"Bank_Project.sol\":5021:5031  bankLedger */\n      0x03\n        /* \"Bank_Project.sol\":5021:5049  bankLedger[_customerAddress] */\n      0x00\n        /* \"Bank_Project.sol\":5032:5048  _customerAddress */\n      dup5\n        /* \"Bank_Project.sol\":5021:5049  bankLedger[_customerAddress] */\n      0xffffffffffffffffffffffffffffffffffffffff\n      and\n      0xffffffffffffffffffffffffffffffffffffffff\n      and\n      dup2\n      mstore\n      0x20\n      add\n      swap1\n      dup2\n      mstore\n      0x20\n      add\n      0x00\n      keccak256\n        /* \"Bank_Project.sol\":5021:5065  bankLedger[_customerAddress].authorizedUsers */\n      0x03\n      add\n        /* \"Bank_Project.sol\":5021:5080  bankLedger[_customerAddress].authorizedUsers[_addressToAdd] */\n      0x00\n        /* \"Bank_Project.sol\":5066:5079  _addressToAdd */\n      dup4\n        /* \"Bank_Project.sol\":5021:5080  bankLedger[_customerAddress].authorizedUsers[_addressToAdd] */\n      0xffffffffffffffffffffffffffffffffffffffff\n      and\n      0xffffffffffffffffffffffffffffffffffffffff\n      and\n      dup2\n      mstore\n      0x20\n      add\n      swap1\n      dup2\n      mstore\n      0x20\n      add\n      0x00\n      keccak256\n      0x00\n        /* \"Bank_Project.sol\":5021:5087  bankLedger[_customerAddress].authorizedUsers[_addressToAdd] = true */\n      0x0100\n      exp\n      dup2\n      sload\n      dup2\n      0xff\n      mul\n      not\n      and\n      swap1\n      dup4\n      iszero\n      iszero\n      mul\n      or\n      swap1\n      sstore\n      pop\n        /* \"Bank_Project.sol\":5141:5157  _customerAddress */\n      dup2\n        /* \"Bank_Project.sol\":5099:5114  authorizedUsers */\n      0x04\n        /* \"Bank_Project.sol\":5099:5129  authorizedUsers[_addressToAdd] */\n      0x00\n        /* \"Bank_Project.sol\":5115:5128  _addressToAdd */\n      dup4\n        /* \"Bank_Project.sol\":5099:5129  authorizedUsers[_addressToAdd] */\n      0xffffffffffffffffffffffffffffffffffffffff\n      and\n      0xffffffffffffffffffffffffffffffffffffffff\n      and\n      dup2\n      mstore\n      0x20\n      add\n      swap1\n      dup2\n      mstore\n      0x20\n      add\n      0x00\n      keccak256\n        /* \"Bank_Project.sol\":5099:5138  authorizedUsers[_addressToAdd].customer */\n      0x00\n      add\n      0x00\n        /* \"Bank_Project.sol\":5099:5157  authorizedUsers[_addressToAdd].customer = _customerAddress */\n      0x0100\n      exp\n      dup2\n      sload\n      dup2\n      0xffffffffffffffffffffffffffffffffffffffff\n      mul\n      not\n      and\n      swap1\n      dup4\n      0xffffffffffffffffffffffffffffffffffffffff\n      and\n      mul\n      or\n      swap1\n      sstore\n      pop\n        /* \"Bank_Project.sol\":5205:5209  true */\n      0x01\n        /* \"Bank_Project.sol\":5168:5183  authorizedUsers */\n      0x04\n        /* \"Bank_Project.sol\":5168:5198  authorizedUsers[_addressToAdd] */\n      0x00\n        /* \"Bank_Project.sol\":5184:5197  _addressToAdd */\n      dup4\n        /* \"Bank_Project.sol\":5168:5198  authorizedUsers[_addressToAdd] */\n      0xffffffffffffffffffffffffffffffffffffffff\n      and\n      0xffffffffffffffffffffffffffffffffffffffff\n      and\n      dup2\n      mstore\n      0x20\n      add\n      swap1\n      dup2\n      mstore\n      0x20\n      add\n      0x00\n      keccak256\n        /* \"Bank_Project.sol\":5168:5202  authorizedUsers[_addressToAdd].set */\n      0x00\n      add\n      0x14\n        /* \"Bank_Project.sol\":5168:5209  authorizedUsers[_addressToAdd].set = true */\n      0x0100\n      exp\n      dup2\n      sload\n      dup2\n      0xff\n      mul\n      not\n      and\n      swap1\n      dup4\n      iszero\n      iszero\n      mul\n      or\n      swap1\n      sstore\n      pop\n        /* \"Bank_Project.sol\":4528:5297  function addAuthorizedUser  (address _customerAddress, address _addressToAdd) public  {... */\n      pop\n      pop\n      jump\t// out\n        /* \"Bank_Project.sol\":5305:5559  function isAuthorizedUser (address _customer, address _address) public view returns (bool) {... */\n    tag_20:\n        /* \"Bank_Project.sol\":5390:5394  bool */\n      0x00\n        /* \"Bank_Project.sol\":5504:5514  bankLedger */\n      0x03\n        /* \"Bank_Project.sol\":5504:5525  bankLedger[_customer] */\n      0x00\n        /* \"Bank_Project.sol\":5515:5524  _customer */\n      dup5\n        /* \"Bank_Project.sol\":5504:5525  bankLedger[_customer] */\n      0xffffffffffffffffffffffffffffffffffffffff\n      and\n      0xffffffffffffffffffffffffffffffffffffffff\n      and\n      dup2\n      mstore\n      0x20\n      add\n      swap1\n      dup2\n      mstore\n      0x20\n      add\n      0x00\n      keccak256\n        /* \"Bank_Project.sol\":5504:5541  bankLedger[_customer].authorizedUsers */\n      0x03\n      add\n        /* \"Bank_Project.sol\":5504:5551  bankLedger[_customer].authorizedUsers[_address] */\n      0x00\n        /* \"Bank_Project.sol\":5542:5550  _address */\n      dup4\n        /* \"Bank_Project.sol\":5504:5551  bankLedger[_customer].authorizedUsers[_address] */\n      0xffffffffffffffffffffffffffffffffffffffff\n      and\n      0xffffffffffffffffffffffffffffffffffffffff\n      and\n      dup2\n      mstore\n      0x20\n      add\n      swap1\n      dup2\n      mstore\n      0x20\n      add\n      0x00\n      keccak256\n      0x00\n      swap1\n      sload\n      swap1\n      0x0100\n      exp\n      swap1\n      div\n      0xff\n      and\n        /* \"Bank_Project.sol\":5497:5551  return bankLedger[_customer].authorizedUsers[_address] */\n      swap1\n      pop\n        /* \"Bank_Project.sol\":5305:5559  function isAuthorizedUser (address _customer, address _address) public view returns (bool) {... */\n      swap3\n      swap2\n      pop\n      pop\n      jump\t// out\n        /* \"Bank_Project.sol\":4314:4518  function getBankBalance () public view returns (uint) {... */\n    tag_25:\n        /* \"Bank_Project.sol\":4362:4366  uint */\n      0x00\n        /* \"Bank_Project.sol\":4401:4407  banker */\n      dup1\n      0x00\n      swap1\n      sload\n      swap1\n      0x0100\n      exp\n      swap1\n      div\n      0xffffffffffffffffffffffffffffffffffffffff\n      and\n        /* \"Bank_Project.sol\":4387:4407  msg.sender == banker */\n      0xffffffffffffffffffffffffffffffffffffffff\n      and\n        /* \"Bank_Project.sol\":4387:4397  msg.sender */\n      caller\n        /* \"Bank_Project.sol\":4387:4407  msg.sender == banker */\n      0xffffffffffffffffffffffffffffffffffffffff\n      and\n      eq\n        /* \"Bank_Project.sol\":4379:4465  require(msg.sender == banker, \"Solo el owner del banco puede saber esta informacion\" ) */\n      tag_59\n      jumpi\n      mload(0x40)\n      0x08c379a000000000000000000000000000000000000000000000000000000000\n      dup2\n      mstore\n      0x04\n      add\n      tag_60\n      swap1\n      tag_61\n      jump\t// in\n    tag_60:\n      mload(0x40)\n      dup1\n      swap2\n      sub\n      swap1\n      revert\n    tag_59:\n        /* \"Bank_Project.sol\":4483:4504  address(this).balance */\n      selfbalance\n        /* \"Bank_Project.sol\":4476:4504  return address(this).balance */\n      swap1\n      pop\n        /* \"Bank_Project.sol\":4314:4518  function getBankBalance () public view returns (uint) {... */\n      swap1\n      jump\t// out\n        /* \"Bank_Project.sol\":5814:5886  function activeCustomer() public {... */\n    tag_30:\n        /* \"Bank_Project.sol\":5874:5878  true */\n      0x01\n        /* \"Bank_Project.sol\":5858:5871  customerState */\n      0x05\n      0x00\n        /* \"Bank_Project.sol\":5858:5878  customerState = true */\n      0x0100\n      exp\n      dup2\n      sload\n      dup2\n      0xff\n      mul\n      not\n      and\n      swap1\n      dup4\n      iszero\n      iszero\n      mul\n      or\n      swap1\n      sstore\n      pop\n        /* \"Bank_Project.sol\":5814:5886  function activeCustomer() public {... */\n      jump\t// out\n        /* \"Bank_Project.sol\":4122:4256  function getCustomerBalance () public view returns (uint) {... */\n    tag_33:\n        /* \"Bank_Project.sol\":4174:4178  uint */\n      0x00\n        /* \"Bank_Project.sol\":4208:4218  bankLedger */\n      0x03\n        /* \"Bank_Project.sol\":4208:4230  bankLedger[msg.sender] */\n      0x00\n        /* \"Bank_Project.sol\":4219:4229  msg.sender */\n      caller\n        /* \"Bank_Project.sol\":4208:4230  bankLedger[msg.sender] */\n      0xffffffffffffffffffffffffffffffffffffffff\n      and\n      0xffffffffffffffffffffffffffffffffffffffff\n      and\n      dup2\n      mstore\n      0x20\n      add\n      swap1\n      dup2\n      mstore\n      0x20\n      add\n      0x00\n      keccak256\n        /* \"Bank_Project.sol\":4208:4246  bankLedger[msg.sender].customerBalance */\n      0x04\n      add\n      sload\n        /* \"Bank_Project.sol\":4201:4246  return bankLedger[msg.sender].customerBalance */\n      swap1\n      pop\n        /* \"Bank_Project.sol\":4122:4256  function getCustomerBalance () public view returns (uint) {... */\n      swap1\n      jump\t// out\n        /* \"Bank_Project.sol\":5614:5773  function getTransactionHistoryCustomer () public view returns (Transaction[] memory) {... */\n    tag_37:\n        /* \"Bank_Project.sol\":5677:5697  Transaction[] memory */\n      0x60\n        /* \"Bank_Project.sol\":5729:5739  bankLedger */\n      0x03\n        /* \"Bank_Project.sol\":5729:5751  bankLedger[msg.sender] */\n      0x00\n        /* \"Bank_Project.sol\":5740:5750  msg.sender */\n      caller\n        /* \"Bank_Project.sol\":5729:5751  bankLedger[msg.sender] */\n      0xffffffffffffffffffffffffffffffffffffffff\n      and\n      0xffffffffffffffffffffffffffffffffffffffff\n      and\n      dup2\n      mstore\n      0x20\n      add\n      swap1\n      dup2\n      mstore\n      0x20\n      add\n      0x00\n      keccak256\n        /* \"Bank_Project.sol\":5729:5763  bankLedger[msg.sender].allPayments */\n      0x02\n      add\n        /* \"Bank_Project.sol\":5722:5763  return bankLedger[msg.sender].allPayments */\n      dup1\n      sload\n      dup1\n      0x20\n      mul\n      0x20\n      add\n      mload(0x40)\n      swap1\n      dup2\n      add\n      0x40\n      mstore\n      dup1\n      swap3\n      swap2\n      swap1\n      dup2\n      dup2\n      mstore\n      0x20\n      add\n      0x00\n      swap1\n    tag_65:\n      dup3\n      dup3\n      lt\n      iszero\n      tag_66\n      jumpi\n      dup4\n      dup3\n      swap1\n      0x00\n      mstore\n      keccak256(0x00, 0x20)\n      swap1\n      0x03\n      mul\n      add\n      mload(0x40)\n      dup1\n      0x60\n      add\n      0x40\n      mstore\n      swap1\n      dup2\n      0x00\n      dup3\n      add\n      sload\n      dup2\n      mstore\n      0x20\n      add\n      0x01\n      dup3\n      add\n      sload\n      dup2\n      mstore\n      0x20\n      add\n      0x02\n      dup3\n      add\n      dup1\n      sload\n      tag_68\n      swap1\n      tag_69\n      jump\t// in\n    tag_68:\n      dup1\n      0x1f\n      add\n      0x20\n      dup1\n      swap2\n      div\n      mul\n      0x20\n      add\n      mload(0x40)\n      swap1\n      dup2\n      add\n      0x40\n      mstore\n      dup1\n      swap3\n      swap2\n      swap1\n      dup2\n      dup2\n      mstore\n      0x20\n      add\n      dup3\n      dup1\n      sload\n      tag_70\n      swap1\n      tag_69\n      jump\t// in\n    tag_70:\n      dup1\n      iszero\n      tag_71\n      jumpi\n      dup1\n      0x1f\n      lt\n      tag_72\n      jumpi\n      0x0100\n      dup1\n      dup4\n      sload\n      div\n      mul\n      dup4\n      mstore\n      swap2\n      0x20\n      add\n      swap2\n      jump(tag_71)\n    tag_72:\n      dup3\n      add\n      swap2\n      swap1\n      0x00\n      mstore\n      keccak256(0x00, 0x20)\n      swap1\n    tag_73:\n      dup2\n      sload\n      dup2\n      mstore\n      swap1\n      0x01\n      add\n      swap1\n      0x20\n      add\n      dup1\n      dup4\n      gt\n      tag_73\n      jumpi\n      dup3\n      swap1\n      sub\n      0x1f\n      and\n      dup3\n      add\n      swap2\n    tag_71:\n      pop\n      pop\n      pop\n      pop\n      pop\n      dup2\n      mstore\n      pop\n      pop\n      dup2\n      mstore\n      0x20\n      add\n      swap1\n      0x01\n      add\n      swap1\n      jump(tag_65)\n    tag_66:\n      pop\n      pop\n      pop\n      pop\n      swap1\n      pop\n        /* \"Bank_Project.sol\":5614:5773  function getTransactionHistoryCustomer () public view returns (Transaction[] memory) {... */\n      swap1\n      jump\t// out\n        /* \"Bank_Project.sol\":1089:1647  function deposit () public payable {... */\n    tag_41:\n        /* \"Bank_Project.sol\":1201:1210  msg.value */\n      callvalue\n        /* \"Bank_Project.sol\":1186:1198  totalBalance */\n      sload(0x02)\n        /* \"Bank_Project.sol\":1186:1210  totalBalance + msg.value */\n      tag_75\n      swap2\n      swap1\n      tag_76\n      jump\t// in\n    tag_75:\n        /* \"Bank_Project.sol\":1171:1183  totalBalance */\n      0x02\n        /* \"Bank_Project.sol\":1171:1210  totalBalance = totalBalance + msg.value */\n      dup2\n      swap1\n      sstore\n      pop\n        /* \"Bank_Project.sol\":1314:1323  msg.value */\n      callvalue\n        /* \"Bank_Project.sol\":1272:1282  bankLedger */\n      0x03\n        /* \"Bank_Project.sol\":1272:1294  bankLedger[msg.sender] */\n      0x00\n        /* \"Bank_Project.sol\":1283:1293  msg.sender */\n      caller\n        /* \"Bank_Project.sol\":1272:1294  bankLedger[msg.sender] */\n      0xffffffffffffffffffffffffffffffffffffffff\n      and\n      0xffffffffffffffffffffffffffffffffffffffff\n      and\n      dup2\n      mstore\n      0x20\n      add\n      swap1\n      dup2\n      mstore\n      0x20\n      add\n      0x00\n      keccak256\n        /* \"Bank_Project.sol\":1272:1310  bankLedger[msg.sender].customerBalance */\n      0x04\n      add\n      0x00\n        /* \"Bank_Project.sol\":1272:1323  bankLedger[msg.sender].customerBalance += msg.value */\n      dup3\n      dup3\n      sload\n      tag_77\n      swap2\n      swap1\n      tag_76\n      jump\t// in\n    tag_77:\n      swap3\n      pop\n      pop\n      dup2\n      swap1\n      sstore\n      pop\n        /* \"Bank_Project.sol\":1380:1390  bankLedger */\n      0x03\n        /* \"Bank_Project.sol\":1380:1402  bankLedger[msg.sender] */\n      0x00\n        /* \"Bank_Project.sol\":1391:1401  msg.sender */\n      caller\n        /* \"Bank_Project.sol\":1380:1402  bankLedger[msg.sender] */\n      0xffffffffffffffffffffffffffffffffffffffff\n      and\n      0xffffffffffffffffffffffffffffffffffffffff\n      and\n      dup2\n      mstore\n      0x20\n      add\n      swap1\n      dup2\n      mstore\n      0x20\n      add\n      0x00\n      keccak256\n        /* \"Bank_Project.sol\":1380:1418  bankLedger[msg.sender].paymentReceived */\n      0x00\n      add\n        /* \"Bank_Project.sol\":1424:1502  Transaction({amount:msg.value,timeStamp: block.timestamp, status: \"Recibido\"}) */\n      mload(0x40)\n      dup1\n      0x60\n      add\n      0x40\n      mstore\n      dup1\n        /* \"Bank_Project.sol\":1444:1453  msg.value */\n      callvalue\n        /* \"Bank_Project.sol\":1424:1502  Transaction({amount:msg.value,timeStamp: block.timestamp, status: \"Recibido\"}) */\n      dup2\n      mstore\n      0x20\n      add\n        /* \"Bank_Project.sol\":1465:1480  block.timestamp */\n      timestamp\n        /* \"Bank_Project.sol\":1424:1502  Transaction({amount:msg.value,timeStamp: block.timestamp, status: \"Recibido\"}) */\n      dup2\n      mstore\n      0x20\n      add\n      mload(0x40)\n      dup1\n      0x40\n      add\n      0x40\n      mstore\n      dup1\n      0x08\n      dup2\n      mstore\n      0x20\n      add\n      0x526563696269646f000000000000000000000000000000000000000000000000\n      dup2\n      mstore\n      pop\n      dup2\n      mstore\n      pop\n        /* \"Bank_Project.sol\":1380:1503  bankLedger[msg.sender].paymentReceived.push(Transaction({amount:msg.value,timeStamp: block.timestamp, status: \"Recibido\"})) */\n      swap1\n      dup1\n      0x01\n      dup2\n      sload\n      add\n      dup1\n      dup3\n      sstore\n      dup1\n      swap2\n      pop\n      pop\n      0x01\n      swap1\n      sub\n      swap1\n      0x00\n      mstore\n      keccak256(0x00, 0x20)\n      swap1\n      0x03\n      mul\n      add\n      0x00\n      swap1\n      swap2\n      swap1\n      swap2\n      swap1\n      swap2\n      pop\n      0x00\n      dup3\n      add\n      mload\n      dup2\n      0x00\n      add\n      sstore\n      0x20\n      dup3\n      add\n      mload\n      dup2\n      0x01\n      add\n      sstore\n      0x40\n      dup3\n      add\n      mload\n      dup2\n      0x02\n      add\n      swap1\n      dup2\n      tag_79\n      swap2\n      swap1\n      tag_80\n      jump\t// in\n    tag_79:\n      pop\n      pop\n      pop\n        /* \"Bank_Project.sol\":1514:1524  bankLedger */\n      0x03\n        /* \"Bank_Project.sol\":1514:1536  bankLedger[msg.sender] */\n      0x00\n        /* \"Bank_Project.sol\":1525:1535  msg.sender */\n      caller\n        /* \"Bank_Project.sol\":1514:1536  bankLedger[msg.sender] */\n      0xffffffffffffffffffffffffffffffffffffffff\n      and\n      0xffffffffffffffffffffffffffffffffffffffff\n      and\n      dup2\n      mstore\n      0x20\n      add\n      swap1\n      dup2\n      mstore\n      0x20\n      add\n      0x00\n      keccak256\n        /* \"Bank_Project.sol\":1514:1548  bankLedger[msg.sender].allPayments */\n      0x02\n      add\n        /* \"Bank_Project.sol\":1554:1632  Transaction({amount:msg.value,timeStamp: block.timestamp, status: \"Recibido\"}) */\n      mload(0x40)\n      dup1\n      0x60\n      add\n      0x40\n      mstore\n      dup1\n        /* \"Bank_Project.sol\":1574:1583  msg.value */\n      callvalue\n        /* \"Bank_Project.sol\":1554:1632  Transaction({amount:msg.value,timeStamp: block.timestamp, status: \"Recibido\"}) */\n      dup2\n      mstore\n      0x20\n      add\n        /* \"Bank_Project.sol\":1595:1610  block.timestamp */\n      timestamp\n        /* \"Bank_Project.sol\":1554:1632  Transaction({amount:msg.value,timeStamp: block.timestamp, status: \"Recibido\"}) */\n      dup2\n      mstore\n      0x20\n      add\n      mload(0x40)\n      dup1\n      0x40\n      add\n      0x40\n      mstore\n      dup1\n      0x08\n      dup2\n      mstore\n      0x20\n      add\n      0x526563696269646f000000000000000000000000000000000000000000000000\n      dup2\n      mstore\n      pop\n      dup2\n      mstore\n      pop\n        /* \"Bank_Project.sol\":1514:1633  bankLedger[msg.sender].allPayments.push(Transaction({amount:msg.value,timeStamp: block.timestamp, status: \"Recibido\"})) */\n      swap1\n      dup1\n      0x01\n      dup2\n      sload\n      add\n      dup1\n      dup3\n      sstore\n      dup1\n      swap2\n      pop\n      pop\n      0x01\n      swap1\n      sub\n      swap1\n      0x00\n      mstore\n      keccak256(0x00, 0x20)\n      swap1\n      0x03\n      mul\n      add\n      0x00\n      swap1\n      swap2\n      swap1\n      swap2\n      swap1\n      swap2\n      pop\n      0x00\n      dup3\n      add\n      mload\n      dup2\n      0x00\n      add\n      sstore\n      0x20\n      dup3\n      add\n      mload\n      dup2\n      0x01\n      add\n      sstore\n      0x40\n      dup3\n      add\n      mload\n      dup2\n      0x02\n      add\n      swap1\n      dup2\n      tag_82\n      swap2\n      swap1\n      tag_80\n      jump\t// in\n    tag_82:\n      pop\n      pop\n      pop\n        /* \"Bank_Project.sol\":1089:1647  function deposit () public payable {... */\n      jump\t// out\n        /* \"Bank_Project.sol\":5925:6000  function deactiveCustomer() public {... */\n    tag_44:\n        /* \"Bank_Project.sol\":5987:5992  false */\n      0x00\n        /* \"Bank_Project.sol\":5971:5984  customerState */\n      0x05\n      0x00\n        /* \"Bank_Project.sol\":5971:5992  customerState = false */\n      0x0100\n      exp\n      dup2\n      sload\n      dup2\n      0xff\n      mul\n      not\n      and\n      swap1\n      dup4\n      iszero\n      iszero\n      mul\n      or\n      swap1\n      sstore\n      pop\n        /* \"Bank_Project.sol\":5925:6000  function deactiveCustomer() public {... */\n      jump\t// out\n        /* \"Bank_Project.sol\":1655:4062  function withdraw (address payable _recipient, uint _amount) public payable returns (bool) {... */\n    tag_48:\n        /* \"Bank_Project.sol\":1740:1744  bool */\n      0x00\n        /* \"Bank_Project.sol\":1830:1835  false */\n      dup1\n        /* \"Bank_Project.sol\":1813:1835  customerState == false */\n      iszero\n      iszero\n        /* \"Bank_Project.sol\":1813:1826  customerState */\n      0x05\n      0x00\n      swap1\n      sload\n      swap1\n      0x0100\n      exp\n      swap1\n      div\n      0xff\n      and\n        /* \"Bank_Project.sol\":1813:1835  customerState == false */\n      iszero\n      iszero\n      sub\n        /* \"Bank_Project.sol\":1809:3054  if (customerState == false){... */\n      tag_85\n      jumpi\n        /* \"Bank_Project.sol\":1863:1929  isAuthorizedUser(authorizedUsers[msg.sender].customer, msg.sender) */\n      tag_86\n        /* \"Bank_Project.sol\":1880:1895  authorizedUsers */\n      0x04\n        /* \"Bank_Project.sol\":1880:1907  authorizedUsers[msg.sender] */\n      0x00\n        /* \"Bank_Project.sol\":1896:1906  msg.sender */\n      caller\n        /* \"Bank_Project.sol\":1880:1907  authorizedUsers[msg.sender] */\n      0xffffffffffffffffffffffffffffffffffffffff\n      and\n      0xffffffffffffffffffffffffffffffffffffffff\n      and\n      dup2\n      mstore\n      0x20\n      add\n      swap1\n      dup2\n      mstore\n      0x20\n      add\n      0x00\n      keccak256\n        /* \"Bank_Project.sol\":1880:1916  authorizedUsers[msg.sender].customer */\n      0x00\n      add\n      0x00\n      swap1\n      sload\n      swap1\n      0x0100\n      exp\n      swap1\n      div\n      0xffffffffffffffffffffffffffffffffffffffff\n      and\n        /* \"Bank_Project.sol\":1918:1928  msg.sender */\n      caller\n        /* \"Bank_Project.sol\":1863:1879  isAuthorizedUser */\n      tag_20\n        /* \"Bank_Project.sol\":1863:1929  isAuthorizedUser(authorizedUsers[msg.sender].customer, msg.sender) */\n      jump\t// in\n    tag_86:\n        /* \"Bank_Project.sol\":1855:1979  require(isAuthorizedUser(authorizedUsers[msg.sender].customer, msg.sender),\"No estas autorizado para realizar la operacion\") */\n      tag_87\n      jumpi\n      mload(0x40)\n      0x08c379a000000000000000000000000000000000000000000000000000000000\n      dup2\n      mstore\n      0x04\n      add\n      tag_88\n      swap1\n      tag_89\n      jump\t// in\n    tag_88:\n      mload(0x40)\n      dup1\n      swap2\n      sub\n      swap1\n      revert\n    tag_87:\n        /* \"Bank_Project.sol\":2153:2160  _amount */\n      dup2\n        /* \"Bank_Project.sol\":2085:2095  bankLedger */\n      0x03\n        /* \"Bank_Project.sol\":2085:2133  bankLedger[authorizedUsers[msg.sender].customer] */\n      0x00\n        /* \"Bank_Project.sol\":2096:2111  authorizedUsers */\n      0x04\n        /* \"Bank_Project.sol\":2096:2123  authorizedUsers[msg.sender] */\n      0x00\n        /* \"Bank_Project.sol\":2112:2122  msg.sender */\n      caller\n        /* \"Bank_Project.sol\":2096:2123  authorizedUsers[msg.sender] */\n      0xffffffffffffffffffffffffffffffffffffffff\n      and\n      0xffffffffffffffffffffffffffffffffffffffff\n      and\n      dup2\n      mstore\n      0x20\n      add\n      swap1\n      dup2\n      mstore\n      0x20\n      add\n      0x00\n      keccak256\n        /* \"Bank_Project.sol\":2096:2132  authorizedUsers[msg.sender].customer */\n      0x00\n      add\n      0x00\n      swap1\n      sload\n      swap1\n      0x0100\n      exp\n      swap1\n      div\n      0xffffffffffffffffffffffffffffffffffffffff\n      and\n        /* \"Bank_Project.sol\":2085:2133  bankLedger[authorizedUsers[msg.sender].customer] */\n      0xffffffffffffffffffffffffffffffffffffffff\n      and\n      0xffffffffffffffffffffffffffffffffffffffff\n      and\n      dup2\n      mstore\n      0x20\n      add\n      swap1\n      dup2\n      mstore\n      0x20\n      add\n      0x00\n      keccak256\n        /* \"Bank_Project.sol\":2085:2149  bankLedger[authorizedUsers[msg.sender].customer].customerBalance */\n      0x04\n      add\n      sload\n        /* \"Bank_Project.sol\":2085:2160  bankLedger[authorizedUsers[msg.sender].customer].customerBalance >= _amount */\n      lt\n      iszero\n        /* \"Bank_Project.sol\":2077:2219  require(bankLedger[authorizedUsers[msg.sender].customer].customerBalance >= _amount,\"no hay dinero suficiente para realizar la transferencia\") */\n      tag_90\n      jumpi\n      mload(0x40)\n      0x08c379a000000000000000000000000000000000000000000000000000000000\n      dup2\n      mstore\n      0x04\n      add\n      tag_91\n      swap1\n      tag_92\n      jump\t// in\n    tag_91:\n      mload(0x40)\n      dup1\n      swap2\n      sub\n      swap1\n      revert\n    tag_90:\n        /* \"Bank_Project.sol\":2351:2358  _amount */\n      dup2\n        /* \"Bank_Project.sol\":2283:2293  bankLedger */\n      0x03\n        /* \"Bank_Project.sol\":2283:2331  bankLedger[authorizedUsers[msg.sender].customer] */\n      0x00\n        /* \"Bank_Project.sol\":2294:2309  authorizedUsers */\n      0x04\n        /* \"Bank_Project.sol\":2294:2321  authorizedUsers[msg.sender] */\n      0x00\n        /* \"Bank_Project.sol\":2310:2320  msg.sender */\n      caller\n        /* \"Bank_Project.sol\":2294:2321  authorizedUsers[msg.sender] */\n      0xffffffffffffffffffffffffffffffffffffffff\n      and\n      0xffffffffffffffffffffffffffffffffffffffff\n      and\n      dup2\n      mstore\n      0x20\n      add\n      swap1\n      dup2\n      mstore\n      0x20\n      add\n      0x00\n      keccak256\n        /* \"Bank_Project.sol\":2294:2330  authorizedUsers[msg.sender].customer */\n      0x00\n      add\n      0x00\n      swap1\n      sload\n      swap1\n      0x0100\n      exp\n      swap1\n      div\n      0xffffffffffffffffffffffffffffffffffffffff\n      and\n        /* \"Bank_Project.sol\":2283:2331  bankLedger[authorizedUsers[msg.sender].customer] */\n      0xffffffffffffffffffffffffffffffffffffffff\n      and\n      0xffffffffffffffffffffffffffffffffffffffff\n      and\n      dup2\n      mstore\n      0x20\n      add\n      swap1\n      dup2\n      mstore\n      0x20\n      add\n      0x00\n      keccak256\n        /* \"Bank_Project.sol\":2283:2347  bankLedger[authorizedUsers[msg.sender].customer].customerBalance */\n      0x04\n      add\n      0x00\n        /* \"Bank_Project.sol\":2283:2358  bankLedger[authorizedUsers[msg.sender].customer].customerBalance -= _amount */\n      dup3\n      dup3\n      sload\n      tag_93\n      swap2\n      swap1\n      tag_94\n      jump\t// in\n    tag_93:\n      swap3\n      pop\n      pop\n      dup2\n      swap1\n      sstore\n      pop\n        /* \"Bank_Project.sol\":2415:2437  bool operationExecuted */\n      0x00\n        /* \"Bank_Project.sol\":2438:2448  _recipient */\n      dup4\n        /* \"Bank_Project.sol\":2438:2453  _recipient.send */\n      0xffffffffffffffffffffffffffffffffffffffff\n      and\n        /* \"Bank_Project.sol\":2438:2462  _recipient.send(_amount) */\n      0x08fc\n        /* \"Bank_Project.sol\":2454:2461  _amount */\n      dup5\n        /* \"Bank_Project.sol\":2438:2462  _recipient.send(_amount) */\n      swap1\n      dup2\n      iszero\n      mul\n      swap1\n      mload(0x40)\n      0x00\n      mload(0x40)\n      dup1\n      dup4\n      sub\n      dup2\n      dup6\n      dup9\n      dup9\n      call\n      swap4\n      pop\n      pop\n      pop\n      pop\n        /* \"Bank_Project.sol\":2415:2462  bool operationExecuted=_recipient.send(_amount) */\n      swap1\n      pop\n        /* \"Bank_Project.sol\":2545:2562  operationExecuted */\n      dup1\n        /* \"Bank_Project.sol\":2536:2601  require (operationExecuted, \"The balance could not be withdrawn\") */\n      tag_96\n      jumpi\n      mload(0x40)\n      0x08c379a000000000000000000000000000000000000000000000000000000000\n      dup2\n      mstore\n      0x04\n      add\n      tag_97\n      swap1\n      tag_98\n      jump\t// in\n    tag_97:\n      mload(0x40)\n      dup1\n      swap2\n      sub\n      swap1\n      revert\n    tag_96:\n        /* \"Bank_Project.sol\":2648:2655  _amount */\n      dup3\n        /* \"Bank_Project.sol\":2633:2645  totalBalance */\n      sload(0x02)\n        /* \"Bank_Project.sol\":2633:2655  totalBalance - _amount */\n      tag_99\n      swap2\n      swap1\n      tag_94\n      jump\t// in\n    tag_99:\n        /* \"Bank_Project.sol\":2618:2630  totalBalance */\n      0x02\n        /* \"Bank_Project.sol\":2618:2655  totalBalance = totalBalance - _amount */\n      dup2\n      swap1\n      sstore\n      pop\n        /* \"Bank_Project.sol\":2717:2727  bankLedger */\n      0x03\n        /* \"Bank_Project.sol\":2717:2765  bankLedger[authorizedUsers[msg.sender].customer] */\n      0x00\n        /* \"Bank_Project.sol\":2728:2743  authorizedUsers */\n      0x04\n        /* \"Bank_Project.sol\":2728:2755  authorizedUsers[msg.sender] */\n      0x00\n        /* \"Bank_Project.sol\":2744:2754  msg.sender */\n      caller\n        /* \"Bank_Project.sol\":2728:2755  authorizedUsers[msg.sender] */\n      0xffffffffffffffffffffffffffffffffffffffff\n      and\n      0xffffffffffffffffffffffffffffffffffffffff\n      and\n      dup2\n      mstore\n      0x20\n      add\n      swap1\n      dup2\n      mstore\n      0x20\n      add\n      0x00\n      keccak256\n        /* \"Bank_Project.sol\":2728:2764  authorizedUsers[msg.sender].customer */\n      0x00\n      add\n      0x00\n      swap1\n      sload\n      swap1\n      0x0100\n      exp\n      swap1\n      div\n      0xffffffffffffffffffffffffffffffffffffffff\n      and\n        /* \"Bank_Project.sol\":2717:2765  bankLedger[authorizedUsers[msg.sender].customer] */\n      0xffffffffffffffffffffffffffffffffffffffff\n      and\n      0xffffffffffffffffffffffffffffffffffffffff\n      and\n      dup2\n      mstore\n      0x20\n      add\n      swap1\n      dup2\n      mstore\n      0x20\n      add\n      0x00\n      keccak256\n        /* \"Bank_Project.sol\":2717:2777  bankLedger[authorizedUsers[msg.sender].customer].paymentSent */\n      0x01\n      add\n        /* \"Bank_Project.sol\":2783:2858  Transaction({amount:_amount,timeStamp: block.timestamp, status: \"Enviado\"}) */\n      mload(0x40)\n      dup1\n      0x60\n      add\n      0x40\n      mstore\n      dup1\n        /* \"Bank_Project.sol\":2803:2810  _amount */\n      dup6\n        /* \"Bank_Project.sol\":2783:2858  Transaction({amount:_amount,timeStamp: block.timestamp, status: \"Enviado\"}) */\n      dup2\n      mstore\n      0x20\n      add\n        /* \"Bank_Project.sol\":2822:2837  block.timestamp */\n      timestamp\n        /* \"Bank_Project.sol\":2783:2858  Transaction({amount:_amount,timeStamp: block.timestamp, status: \"Enviado\"}) */\n      dup2\n      mstore\n      0x20\n      add\n      mload(0x40)\n      dup1\n      0x40\n      add\n      0x40\n      mstore\n      dup1\n      0x07\n      dup2\n      mstore\n      0x20\n      add\n      0x456e766961646f00000000000000000000000000000000000000000000000000\n      dup2\n      mstore\n      pop\n      dup2\n      mstore\n      pop\n        /* \"Bank_Project.sol\":2717:2859  bankLedger[authorizedUsers[msg.sender].customer].paymentSent.push(Transaction({amount:_amount,timeStamp: block.timestamp, status: \"Enviado\"})) */\n      swap1\n      dup1\n      0x01\n      dup2\n      sload\n      add\n      dup1\n      dup3\n      sstore\n      dup1\n      swap2\n      pop\n      pop\n      0x01\n      swap1\n      sub\n      swap1\n      0x00\n      mstore\n      keccak256(0x00, 0x20)\n      swap1\n      0x03\n      mul\n      add\n      0x00\n      swap1\n      swap2\n      swap1\n      swap2\n      swap1\n      swap2\n      pop\n      0x00\n      dup3\n      add\n      mload\n      dup2\n      0x00\n      add\n      sstore\n      0x20\n      dup3\n      add\n      mload\n      dup2\n      0x01\n      add\n      sstore\n      0x40\n      dup3\n      add\n      mload\n      dup2\n      0x02\n      add\n      swap1\n      dup2\n      tag_101\n      swap2\n      swap1\n      tag_80\n      jump\t// in\n    tag_101:\n      pop\n      pop\n      pop\n        /* \"Bank_Project.sol\":2874:2884  bankLedger */\n      0x03\n        /* \"Bank_Project.sol\":2874:2922  bankLedger[authorizedUsers[msg.sender].customer] */\n      0x00\n        /* \"Bank_Project.sol\":2885:2900  authorizedUsers */\n      0x04\n        /* \"Bank_Project.sol\":2885:2912  authorizedUsers[msg.sender] */\n      0x00\n        /* \"Bank_Project.sol\":2901:2911  msg.sender */\n      caller\n        /* \"Bank_Project.sol\":2885:2912  authorizedUsers[msg.sender] */\n      0xffffffffffffffffffffffffffffffffffffffff\n      and\n      0xffffffffffffffffffffffffffffffffffffffff\n      and\n      dup2\n      mstore\n      0x20\n      add\n      swap1\n      dup2\n      mstore\n      0x20\n      add\n      0x00\n      keccak256\n        /* \"Bank_Project.sol\":2885:2921  authorizedUsers[msg.sender].customer */\n      0x00\n      add\n      0x00\n      swap1\n      sload\n      swap1\n      0x0100\n      exp\n      swap1\n      div\n      0xffffffffffffffffffffffffffffffffffffffff\n      and\n        /* \"Bank_Project.sol\":2874:2922  bankLedger[authorizedUsers[msg.sender].customer] */\n      0xffffffffffffffffffffffffffffffffffffffff\n      and\n      0xffffffffffffffffffffffffffffffffffffffff\n      and\n      dup2\n      mstore\n      0x20\n      add\n      swap1\n      dup2\n      mstore\n      0x20\n      add\n      0x00\n      keccak256\n        /* \"Bank_Project.sol\":2874:2934  bankLedger[authorizedUsers[msg.sender].customer].allPayments */\n      0x02\n      add\n        /* \"Bank_Project.sol\":2940:3015  Transaction({amount:_amount,timeStamp: block.timestamp, status: \"Enviado\"}) */\n      mload(0x40)\n      dup1\n      0x60\n      add\n      0x40\n      mstore\n      dup1\n        /* \"Bank_Project.sol\":2960:2967  _amount */\n      dup6\n        /* \"Bank_Project.sol\":2940:3015  Transaction({amount:_amount,timeStamp: block.timestamp, status: \"Enviado\"}) */\n      dup2\n      mstore\n      0x20\n      add\n        /* \"Bank_Project.sol\":2979:2994  block.timestamp */\n      timestamp\n        /* \"Bank_Project.sol\":2940:3015  Transaction({amount:_amount,timeStamp: block.timestamp, status: \"Enviado\"}) */\n      dup2\n      mstore\n      0x20\n      add\n      mload(0x40)\n      dup1\n      0x40\n      add\n      0x40\n      mstore\n      dup1\n      0x07\n      dup2\n      mstore\n      0x20\n      add\n      0x456e766961646f00000000000000000000000000000000000000000000000000\n      dup2\n      mstore\n      pop\n      dup2\n      mstore\n      pop\n        /* \"Bank_Project.sol\":2874:3016  bankLedger[authorizedUsers[msg.sender].customer].allPayments.push(Transaction({amount:_amount,timeStamp: block.timestamp, status: \"Enviado\"})) */\n      swap1\n      dup1\n      0x01\n      dup2\n      sload\n      add\n      dup1\n      dup3\n      sstore\n      dup1\n      swap2\n      pop\n      pop\n      0x01\n      swap1\n      sub\n      swap1\n      0x00\n      mstore\n      keccak256(0x00, 0x20)\n      swap1\n      0x03\n      mul\n      add\n      0x00\n      swap1\n      swap2\n      swap1\n      swap2\n      swap1\n      swap2\n      pop\n      0x00\n      dup3\n      add\n      mload\n      dup2\n      0x00\n      add\n      sstore\n      0x20\n      dup3\n      add\n      mload\n      dup2\n      0x01\n      add\n      sstore\n      0x40\n      dup3\n      add\n      mload\n      dup2\n      0x02\n      add\n      swap1\n      dup2\n      tag_103\n      swap2\n      swap1\n      tag_80\n      jump\t// in\n    tag_103:\n      pop\n      pop\n      pop\n        /* \"Bank_Project.sol\":3038:3042  true */\n      0x01\n        /* \"Bank_Project.sol\":3031:3042  return true */\n      swap2\n      pop\n      pop\n      jump(tag_84)\n        /* \"Bank_Project.sol\":1809:3054  if (customerState == false){... */\n    tag_85:\n        /* \"Bank_Project.sol\":3116:3120  true */\n      0x01\n        /* \"Bank_Project.sol\":3099:3120  customerState == true */\n      iszero\n      iszero\n        /* \"Bank_Project.sol\":3099:3112  customerState */\n      0x05\n      0x00\n      swap1\n      sload\n      swap1\n      0x0100\n      exp\n      swap1\n      div\n      0xff\n      and\n        /* \"Bank_Project.sol\":3099:3120  customerState == true */\n      iszero\n      iszero\n      sub\n        /* \"Bank_Project.sol\":3096:4028  if(customerState == true) {... */\n      tag_104\n      jumpi\n        /* \"Bank_Project.sol\":3291:3298  _amount */\n      dup2\n        /* \"Bank_Project.sol\":3249:3259  bankLedger */\n      0x03\n        /* \"Bank_Project.sol\":3249:3271  bankLedger[msg.sender] */\n      0x00\n        /* \"Bank_Project.sol\":3260:3270  msg.sender */\n      caller\n        /* \"Bank_Project.sol\":3249:3271  bankLedger[msg.sender] */\n      0xffffffffffffffffffffffffffffffffffffffff\n      and\n      0xffffffffffffffffffffffffffffffffffffffff\n      and\n      dup2\n      mstore\n      0x20\n      add\n      swap1\n      dup2\n      mstore\n      0x20\n      add\n      0x00\n      keccak256\n        /* \"Bank_Project.sol\":3249:3287  bankLedger[msg.sender].customerBalance */\n      0x04\n      add\n      sload\n        /* \"Bank_Project.sol\":3249:3298  bankLedger[msg.sender].customerBalance >= _amount */\n      lt\n      iszero\n        /* \"Bank_Project.sol\":3241:3357  require(bankLedger[msg.sender].customerBalance >= _amount,\"no hay dinero suficiente para realizar la transferencia\") */\n      tag_105\n      jumpi\n      mload(0x40)\n      0x08c379a000000000000000000000000000000000000000000000000000000000\n      dup2\n      mstore\n      0x04\n      add\n      tag_106\n      swap1\n      tag_92\n      jump\t// in\n    tag_106:\n      mload(0x40)\n      dup1\n      swap2\n      sub\n      swap1\n      revert\n    tag_105:\n        /* \"Bank_Project.sol\":3475:3482  _amount */\n      dup2\n        /* \"Bank_Project.sol\":3433:3443  bankLedger */\n      0x03\n        /* \"Bank_Project.sol\":3433:3455  bankLedger[msg.sender] */\n      0x00\n        /* \"Bank_Project.sol\":3444:3454  msg.sender */\n      caller\n        /* \"Bank_Project.sol\":3433:3455  bankLedger[msg.sender] */\n      0xffffffffffffffffffffffffffffffffffffffff\n      and\n      0xffffffffffffffffffffffffffffffffffffffff\n      and\n      dup2\n      mstore\n      0x20\n      add\n      swap1\n      dup2\n      mstore\n      0x20\n      add\n      0x00\n      keccak256\n        /* \"Bank_Project.sol\":3433:3471  bankLedger[msg.sender].customerBalance */\n      0x04\n      add\n      0x00\n        /* \"Bank_Project.sol\":3433:3482  bankLedger[msg.sender].customerBalance -= _amount */\n      dup3\n      dup3\n      sload\n      tag_107\n      swap2\n      swap1\n      tag_94\n      jump\t// in\n    tag_107:\n      swap3\n      pop\n      pop\n      dup2\n      swap1\n      sstore\n      pop\n        /* \"Bank_Project.sol\":3549:3571  bool operationExecuted */\n      0x00\n        /* \"Bank_Project.sol\":3572:3582  _recipient */\n      dup4\n        /* \"Bank_Project.sol\":3572:3587  _recipient.send */\n      0xffffffffffffffffffffffffffffffffffffffff\n      and\n        /* \"Bank_Project.sol\":3572:3596  _recipient.send(_amount) */\n      0x08fc\n        /* \"Bank_Project.sol\":3588:3595  _amount */\n      dup5\n        /* \"Bank_Project.sol\":3572:3596  _recipient.send(_amount) */\n      swap1\n      dup2\n      iszero\n      mul\n      swap1\n      mload(0x40)\n      0x00\n      mload(0x40)\n      dup1\n      dup4\n      sub\n      dup2\n      dup6\n      dup9\n      dup9\n      call\n      swap4\n      pop\n      pop\n      pop\n      pop\n        /* \"Bank_Project.sol\":3549:3596  bool operationExecuted=_recipient.send(_amount) */\n      swap1\n      pop\n        /* \"Bank_Project.sol\":3620:3637  operationExecuted */\n      dup1\n        /* \"Bank_Project.sol\":3611:3676  require (operationExecuted, \"The balance could not be withdrawn\") */\n      tag_109\n      jumpi\n      mload(0x40)\n      0x08c379a000000000000000000000000000000000000000000000000000000000\n      dup2\n      mstore\n      0x04\n      add\n      tag_110\n      swap1\n      tag_98\n      jump\t// in\n    tag_110:\n      mload(0x40)\n      dup1\n      swap2\n      sub\n      swap1\n      revert\n    tag_109:\n        /* \"Bank_Project.sol\":3721:3728  _amount */\n      dup3\n        /* \"Bank_Project.sol\":3706:3718  totalBalance */\n      sload(0x02)\n        /* \"Bank_Project.sol\":3706:3728  totalBalance - _amount */\n      tag_111\n      swap2\n      swap1\n      tag_94\n      jump\t// in\n    tag_111:\n        /* \"Bank_Project.sol\":3691:3703  totalBalance */\n      0x02\n        /* \"Bank_Project.sol\":3691:3728  totalBalance = totalBalance - _amount */\n      dup2\n      swap1\n      sstore\n      pop\n        /* \"Bank_Project.sol\":3743:3753  bankLedger */\n      0x03\n        /* \"Bank_Project.sol\":3743:3765  bankLedger[msg.sender] */\n      0x00\n        /* \"Bank_Project.sol\":3754:3764  msg.sender */\n      caller\n        /* \"Bank_Project.sol\":3743:3765  bankLedger[msg.sender] */\n      0xffffffffffffffffffffffffffffffffffffffff\n      and\n      0xffffffffffffffffffffffffffffffffffffffff\n      and\n      dup2\n      mstore\n      0x20\n      add\n      swap1\n      dup2\n      mstore\n      0x20\n      add\n      0x00\n      keccak256\n        /* \"Bank_Project.sol\":3743:3777  bankLedger[msg.sender].paymentSent */\n      0x01\n      add\n        /* \"Bank_Project.sol\":3783:3858  Transaction({amount:_amount,timeStamp: block.timestamp, status: \"Enviado\"}) */\n      mload(0x40)\n      dup1\n      0x60\n      add\n      0x40\n      mstore\n      dup1\n        /* \"Bank_Project.sol\":3803:3810  _amount */\n      dup6\n        /* \"Bank_Project.sol\":3783:3858  Transaction({amount:_amount,timeStamp: block.timestamp, status: \"Enviado\"}) */\n      dup2\n      mstore\n      0x20\n      add\n        /* \"Bank_Project.sol\":3822:3837  block.timestamp */\n      timestamp\n        /* \"Bank_Project.sol\":3783:3858  Transaction({amount:_amount,timeStamp: block.timestamp, status: \"Enviado\"}) */\n      dup2\n      mstore\n      0x20\n      add\n      mload(0x40)\n      dup1\n      0x40\n      add\n      0x40\n      mstore\n      dup1\n      0x07\n      dup2\n      mstore\n      0x20\n      add\n      0x456e766961646f00000000000000000000000000000000000000000000000000\n      dup2\n      mstore\n      pop\n      dup2\n      mstore\n      pop\n        /* \"Bank_Project.sol\":3743:3859  bankLedger[msg.sender].paymentSent.push(Transaction({amount:_amount,timeStamp: block.timestamp, status: \"Enviado\"})) */\n      swap1\n      dup1\n      0x01\n      dup2\n      sload\n      add\n      dup1\n      dup3\n      sstore\n      dup1\n      swap2\n      pop\n      pop\n      0x01\n      swap1\n      sub\n      swap1\n      0x00\n      mstore\n      keccak256(0x00, 0x20)\n      swap1\n      0x03\n      mul\n      add\n      0x00\n      swap1\n      swap2\n      swap1\n      swap2\n      swap1\n      swap2\n      pop\n      0x00\n      dup3\n      add\n      mload\n      dup2\n      0x00\n      add\n      sstore\n      0x20\n      dup3\n      add\n      mload\n      dup2\n      0x01\n      add\n      sstore\n      0x40\n      dup3\n      add\n      mload\n      dup2\n      0x02\n      add\n      swap1\n      dup2\n      tag_113\n      swap2\n      swap1\n      tag_80\n      jump\t// in\n    tag_113:\n      pop\n      pop\n      pop\n        /* \"Bank_Project.sol\":3874:3884  bankLedger */\n      0x03\n        /* \"Bank_Project.sol\":3874:3896  bankLedger[msg.sender] */\n      0x00\n        /* \"Bank_Project.sol\":3885:3895  msg.sender */\n      caller\n        /* \"Bank_Project.sol\":3874:3896  bankLedger[msg.sender] */\n      0xffffffffffffffffffffffffffffffffffffffff\n      and\n      0xffffffffffffffffffffffffffffffffffffffff\n      and\n      dup2\n      mstore\n      0x20\n      add\n      swap1\n      dup2\n      mstore\n      0x20\n      add\n      0x00\n      keccak256\n        /* \"Bank_Project.sol\":3874:3908  bankLedger[msg.sender].allPayments */\n      0x02\n      add\n        /* \"Bank_Project.sol\":3914:3989  Transaction({amount:_amount,timeStamp: block.timestamp, status: \"Enviado\"}) */\n      mload(0x40)\n      dup1\n      0x60\n      add\n      0x40\n      mstore\n      dup1\n        /* \"Bank_Project.sol\":3934:3941  _amount */\n      dup6\n        /* \"Bank_Project.sol\":3914:3989  Transaction({amount:_amount,timeStamp: block.timestamp, status: \"Enviado\"}) */\n      dup2\n      mstore\n      0x20\n      add\n        /* \"Bank_Project.sol\":3953:3968  block.timestamp */\n      timestamp\n        /* \"Bank_Project.sol\":3914:3989  Transaction({amount:_amount,timeStamp: block.timestamp, status: \"Enviado\"}) */\n      dup2\n      mstore\n      0x20\n      add\n      mload(0x40)\n      dup1\n      0x40\n      add\n      0x40\n      mstore\n      dup1\n      0x07\n      dup2\n      mstore\n      0x20\n      add\n      0x456e766961646f00000000000000000000000000000000000000000000000000\n      dup2\n      mstore\n      pop\n      dup2\n      mstore\n      pop\n        /* \"Bank_Project.sol\":3874:3990  bankLedger[msg.sender].allPayments.push(Transaction({amount:_amount,timeStamp: block.timestamp, status: \"Enviado\"})) */\n      swap1\n      dup1\n      0x01\n      dup2\n      sload\n      add\n      dup1\n      dup3\n      sstore\n      dup1\n      swap2\n      pop\n      pop\n      0x01\n      swap1\n      sub\n      swap1\n      0x00\n      mstore\n      keccak256(0x00, 0x20)\n      swap1\n      0x03\n      mul\n      add\n      0x00\n      swap1\n      swap2\n      swap1\n      swap2\n      swap1\n      swap2\n      pop\n      0x00\n      dup3\n      add\n      mload\n      dup2\n      0x00\n      add\n      sstore\n      0x20\n      dup3\n      add\n      mload\n      dup2\n      0x01\n      add\n      sstore\n      0x40\n      dup3\n      add\n      mload\n      dup2\n      0x02\n      add\n      swap1\n      dup2\n      tag_115\n      swap2\n      swap1\n      tag_80\n      jump\t// in\n    tag_115:\n      pop\n      pop\n      pop\n        /* \"Bank_Project.sol\":4012:4016  true */\n      0x01\n        /* \"Bank_Project.sol\":4005:4016  return true */\n      swap2\n      pop\n      pop\n      jump(tag_84)\n        /* \"Bank_Project.sol\":3096:4028  if(customerState == true) {... */\n    tag_104:\n        /* \"Bank_Project.sol\":4047:4052  false */\n      0x00\n        /* \"Bank_Project.sol\":4040:4052  return false */\n      swap1\n      pop\n        /* \"Bank_Project.sol\":1655:4062  function withdraw (address payable _recipient, uint _amount) public payable returns (bool) {... */\n    tag_84:\n      swap3\n      swap2\n      pop\n      pop\n      jump\t// out\n        /* \"#utility.yul\":88:205   */\n    tag_117:\n        /* \"#utility.yul\":197:198   */\n      0x00\n        /* \"#utility.yul\":194:195   */\n      dup1\n        /* \"#utility.yul\":187:199   */\n      revert\n        /* \"#utility.yul\":334:460   */\n    tag_119:\n        /* \"#utility.yul\":371:378   */\n      0x00\n        /* \"#utility.yul\":411:453   */\n      0xffffffffffffffffffffffffffffffffffffffff\n        /* \"#utility.yul\":404:409   */\n      dup3\n        /* \"#utility.yul\":400:454   */\n      and\n        /* \"#utility.yul\":389:454   */\n      swap1\n      pop\n        /* \"#utility.yul\":334:460   */\n      swap2\n      swap1\n      pop\n      jump\t// out\n        /* \"#utility.yul\":466:562   */\n    tag_120:\n        /* \"#utility.yul\":503:510   */\n      0x00\n        /* \"#utility.yul\":532:556   */\n      tag_182\n        /* \"#utility.yul\":550:555   */\n      dup3\n        /* \"#utility.yul\":532:556   */\n      tag_119\n      jump\t// in\n    tag_182:\n        /* \"#utility.yul\":521:556   */\n      swap1\n      pop\n        /* \"#utility.yul\":466:562   */\n      swap2\n      swap1\n      pop\n      jump\t// out\n        /* \"#utility.yul\":568:690   */\n    tag_121:\n        /* \"#utility.yul\":641:665   */\n      tag_184\n        /* \"#utility.yul\":659:664   */\n      dup2\n        /* \"#utility.yul\":641:665   */\n      tag_120\n      jump\t// in\n    tag_184:\n        /* \"#utility.yul\":634:639   */\n      dup2\n        /* \"#utility.yul\":631:666   */\n      eq\n        /* \"#utility.yul\":621:684   */\n      tag_185\n      jumpi\n        /* \"#utility.yul\":680:681   */\n      0x00\n        /* \"#utility.yul\":677:678   */\n      dup1\n        /* \"#utility.yul\":670:682   */\n      revert\n        /* \"#utility.yul\":621:684   */\n    tag_185:\n        /* \"#utility.yul\":568:690   */\n      pop\n      jump\t// out\n        /* \"#utility.yul\":696:835   */\n    tag_122:\n        /* \"#utility.yul\":742:747   */\n      0x00\n        /* \"#utility.yul\":780:786   */\n      dup2\n        /* \"#utility.yul\":767:787   */\n      calldataload\n        /* \"#utility.yul\":758:787   */\n      swap1\n      pop\n        /* \"#utility.yul\":796:829   */\n      tag_187\n        /* \"#utility.yul\":823:828   */\n      dup2\n        /* \"#utility.yul\":796:829   */\n      tag_121\n      jump\t// in\n    tag_187:\n        /* \"#utility.yul\":696:835   */\n      swap3\n      swap2\n      pop\n      pop\n      jump\t// out\n        /* \"#utility.yul\":841:1315   */\n    tag_15:\n        /* \"#utility.yul\":909:915   */\n      0x00\n        /* \"#utility.yul\":917:923   */\n      dup1\n        /* \"#utility.yul\":966:968   */\n      0x40\n        /* \"#utility.yul\":954:963   */\n      dup4\n        /* \"#utility.yul\":945:952   */\n      dup6\n        /* \"#utility.yul\":941:964   */\n      sub\n        /* \"#utility.yul\":937:969   */\n      slt\n        /* \"#utility.yul\":934:1053   */\n      iszero\n      tag_189\n      jumpi\n        /* \"#utility.yul\":972:1051   */\n      tag_190\n      tag_117\n      jump\t// in\n    tag_190:\n        /* \"#utility.yul\":934:1053   */\n    tag_189:\n        /* \"#utility.yul\":1092:1093   */\n      0x00\n        /* \"#utility.yul\":1117:1170   */\n      tag_191\n        /* \"#utility.yul\":1162:1169   */\n      dup6\n        /* \"#utility.yul\":1153:1159   */\n      dup3\n        /* \"#utility.yul\":1142:1151   */\n      dup7\n        /* \"#utility.yul\":1138:1160   */\n      add\n        /* \"#utility.yul\":1117:1170   */\n      tag_122\n      jump\t// in\n    tag_191:\n        /* \"#utility.yul\":1107:1170   */\n      swap3\n      pop\n        /* \"#utility.yul\":1063:1180   */\n      pop\n        /* \"#utility.yul\":1219:1221   */\n      0x20\n        /* \"#utility.yul\":1245:1298   */\n      tag_192\n        /* \"#utility.yul\":1290:1297   */\n      dup6\n        /* \"#utility.yul\":1281:1287   */\n      dup3\n        /* \"#utility.yul\":1270:1279   */\n      dup7\n        /* \"#utility.yul\":1266:1288   */\n      add\n        /* \"#utility.yul\":1245:1298   */\n      tag_122\n      jump\t// in\n    tag_192:\n        /* \"#utility.yul\":1235:1298   */\n      swap2\n      pop\n        /* \"#utility.yul\":1190:1308   */\n      pop\n        /* \"#utility.yul\":841:1315   */\n      swap3\n      pop\n      swap3\n      swap1\n      pop\n      jump\t// out\n        /* \"#utility.yul\":1321:1411   */\n    tag_123:\n        /* \"#utility.yul\":1355:1362   */\n      0x00\n        /* \"#utility.yul\":1398:1403   */\n      dup2\n        /* \"#utility.yul\":1391:1404   */\n      iszero\n        /* \"#utility.yul\":1384:1405   */\n      iszero\n        /* \"#utility.yul\":1373:1405   */\n      swap1\n      pop\n        /* \"#utility.yul\":1321:1411   */\n      swap2\n      swap1\n      pop\n      jump\t// out\n        /* \"#utility.yul\":1417:1526   */\n    tag_124:\n        /* \"#utility.yul\":1498:1519   */\n      tag_195\n        /* \"#utility.yul\":1513:1518   */\n      dup2\n        /* \"#utility.yul\":1498:1519   */\n      tag_123\n      jump\t// in\n    tag_195:\n        /* \"#utility.yul\":1493:1496   */\n      dup3\n        /* \"#utility.yul\":1486:1520   */\n      mstore\n        /* \"#utility.yul\":1417:1526   */\n      pop\n      pop\n      jump\t// out\n        /* \"#utility.yul\":1532:1742   */\n    tag_22:\n        /* \"#utility.yul\":1619:1623   */\n      0x00\n        /* \"#utility.yul\":1657:1659   */\n      0x20\n        /* \"#utility.yul\":1646:1655   */\n      dup3\n        /* \"#utility.yul\":1642:1660   */\n      add\n        /* \"#utility.yul\":1634:1660   */\n      swap1\n      pop\n        /* \"#utility.yul\":1670:1735   */\n      tag_197\n        /* \"#utility.yul\":1732:1733   */\n      0x00\n        /* \"#utility.yul\":1721:1730   */\n      dup4\n        /* \"#utility.yul\":1717:1734   */\n      add\n        /* \"#utility.yul\":1708:1714   */\n      dup5\n        /* \"#utility.yul\":1670:1735   */\n      tag_124\n      jump\t// in\n    tag_197:\n        /* \"#utility.yul\":1532:1742   */\n      swap3\n      swap2\n      pop\n      pop\n      jump\t// out\n        /* \"#utility.yul\":1748:1825   */\n    tag_125:\n        /* \"#utility.yul\":1785:1792   */\n      0x00\n        /* \"#utility.yul\":1814:1819   */\n      dup2\n        /* \"#utility.yul\":1803:1819   */\n      swap1\n      pop\n        /* \"#utility.yul\":1748:1825   */\n      swap2\n      swap1\n      pop\n      jump\t// out\n        /* \"#utility.yul\":1831:1949   */\n    tag_126:\n        /* \"#utility.yul\":1918:1942   */\n      tag_200\n        /* \"#utility.yul\":1936:1941   */\n      dup2\n        /* \"#utility.yul\":1918:1942   */\n      tag_125\n      jump\t// in\n    tag_200:\n        /* \"#utility.yul\":1913:1916   */\n      dup3\n        /* \"#utility.yul\":1906:1943   */\n      mstore\n        /* \"#utility.yul\":1831:1949   */\n      pop\n      pop\n      jump\t// out\n        /* \"#utility.yul\":1955:2177   */\n    tag_27:\n        /* \"#utility.yul\":2048:2052   */\n      0x00\n        /* \"#utility.yul\":2086:2088   */\n      0x20\n        /* \"#utility.yul\":2075:2084   */\n      dup3\n        /* \"#utility.yul\":2071:2089   */\n      add\n        /* \"#utility.yul\":2063:2089   */\n      swap1\n      pop\n        /* \"#utility.yul\":2099:2170   */\n      tag_202\n        /* \"#utility.yul\":2167:2168   */\n      0x00\n        /* \"#utility.yul\":2156:2165   */\n      dup4\n        /* \"#utility.yul\":2152:2169   */\n      add\n        /* \"#utility.yul\":2143:2149   */\n      dup5\n        /* \"#utility.yul\":2099:2170   */\n      tag_126\n      jump\t// in\n    tag_202:\n        /* \"#utility.yul\":1955:2177   */\n      swap3\n      swap2\n      pop\n      pop\n      jump\t// out\n        /* \"#utility.yul\":2183:2324   */\n    tag_127:\n        /* \"#utility.yul\":2277:2283   */\n      0x00\n        /* \"#utility.yul\":2311:2316   */\n      dup2\n        /* \"#utility.yul\":2305:2317   */\n      mload\n        /* \"#utility.yul\":2295:2317   */\n      swap1\n      pop\n        /* \"#utility.yul\":2183:2324   */\n      swap2\n      swap1\n      pop\n      jump\t// out\n        /* \"#utility.yul\":2330:2541   */\n    tag_128:\n        /* \"#utility.yul\":2456:2467   */\n      0x00\n        /* \"#utility.yul\":2490:2496   */\n      dup3\n        /* \"#utility.yul\":2485:2488   */\n      dup3\n        /* \"#utility.yul\":2478:2497   */\n      mstore\n        /* \"#utility.yul\":2530:2534   */\n      0x20\n        /* \"#utility.yul\":2525:2528   */\n      dup3\n        /* \"#utility.yul\":2521:2535   */\n      add\n        /* \"#utility.yul\":2506:2535   */\n      swap1\n      pop\n        /* \"#utility.yul\":2330:2541   */\n      swap3\n      swap2\n      pop\n      pop\n      jump\t// out\n        /* \"#utility.yul\":2547:2706   */\n    tag_129:\n        /* \"#utility.yul\":2641:2645   */\n      0x00\n        /* \"#utility.yul\":2664:2667   */\n      dup2\n        /* \"#utility.yul\":2656:2667   */\n      swap1\n      pop\n        /* \"#utility.yul\":2694:2698   */\n      0x20\n        /* \"#utility.yul\":2689:2692   */\n      dup3\n        /* \"#utility.yul\":2685:2699   */\n      add\n        /* \"#utility.yul\":2677:2699   */\n      swap1\n      pop\n        /* \"#utility.yul\":2547:2706   */\n      swap2\n      swap1\n      pop\n      jump\t// out\n        /* \"#utility.yul\":2712:2820   */\n    tag_130:\n        /* \"#utility.yul\":2789:2813   */\n      tag_207\n        /* \"#utility.yul\":2807:2812   */\n      dup2\n        /* \"#utility.yul\":2789:2813   */\n      tag_125\n      jump\t// in\n    tag_207:\n        /* \"#utility.yul\":2784:2787   */\n      dup3\n        /* \"#utility.yul\":2777:2814   */\n      mstore\n        /* \"#utility.yul\":2712:2820   */\n      pop\n      pop\n      jump\t// out\n        /* \"#utility.yul\":2826:2925   */\n    tag_131:\n        /* \"#utility.yul\":2878:2884   */\n      0x00\n        /* \"#utility.yul\":2912:2917   */\n      dup2\n        /* \"#utility.yul\":2906:2918   */\n      mload\n        /* \"#utility.yul\":2896:2918   */\n      swap1\n      pop\n        /* \"#utility.yul\":2826:2925   */\n      swap2\n      swap1\n      pop\n      jump\t// out\n        /* \"#utility.yul\":2931:3090   */\n    tag_132:\n        /* \"#utility.yul\":3005:3016   */\n      0x00\n        /* \"#utility.yul\":3039:3045   */\n      dup3\n        /* \"#utility.yul\":3034:3037   */\n      dup3\n        /* \"#utility.yul\":3027:3046   */\n      mstore\n        /* \"#utility.yul\":3079:3083   */\n      0x20\n        /* \"#utility.yul\":3074:3077   */\n      dup3\n        /* \"#utility.yul\":3070:3084   */\n      add\n        /* \"#utility.yul\":3055:3084   */\n      swap1\n      pop\n        /* \"#utility.yul\":2931:3090   */\n      swap3\n      swap2\n      pop\n      pop\n      jump\t// out\n        /* \"#utility.yul\":3096:3342   */\n    tag_133:\n        /* \"#utility.yul\":3177:3178   */\n      0x00\n        /* \"#utility.yul\":3187:3300   */\n    tag_211:\n        /* \"#utility.yul\":3201:3207   */\n      dup4\n        /* \"#utility.yul\":3198:3199   */\n      dup2\n        /* \"#utility.yul\":3195:3208   */\n      lt\n        /* \"#utility.yul\":3187:3300   */\n      iszero\n      tag_213\n      jumpi\n        /* \"#utility.yul\":3286:3287   */\n      dup1\n        /* \"#utility.yul\":3281:3284   */\n      dup3\n        /* \"#utility.yul\":3277:3288   */\n      add\n        /* \"#utility.yul\":3271:3289   */\n      mload\n        /* \"#utility.yul\":3267:3268   */\n      dup2\n        /* \"#utility.yul\":3262:3265   */\n      dup5\n        /* \"#utility.yul\":3258:3269   */\n      add\n        /* \"#utility.yul\":3251:3290   */\n      mstore\n        /* \"#utility.yul\":3223:3225   */\n      0x20\n        /* \"#utility.yul\":3220:3221   */\n      dup2\n        /* \"#utility.yul\":3216:3226   */\n      add\n        /* \"#utility.yul\":3211:3226   */\n      swap1\n      pop\n        /* \"#utility.yul\":3187:3300   */\n      jump(tag_211)\n    tag_213:\n        /* \"#utility.yul\":3334:3335   */\n      0x00\n        /* \"#utility.yul\":3325:3331   */\n      dup5\n        /* \"#utility.yul\":3320:3323   */\n      dup5\n        /* \"#utility.yul\":3316:3332   */\n      add\n        /* \"#utility.yul\":3309:3336   */\n      mstore\n        /* \"#utility.yul\":3158:3342   */\n      pop\n        /* \"#utility.yul\":3096:3342   */\n      pop\n      pop\n      pop\n      jump\t// out\n        /* \"#utility.yul\":3348:3450   */\n    tag_134:\n        /* \"#utility.yul\":3389:3395   */\n      0x00\n        /* \"#utility.yul\":3440:3442   */\n      0x1f\n        /* \"#utility.yul\":3436:3443   */\n      not\n        /* \"#utility.yul\":3431:3433   */\n      0x1f\n        /* \"#utility.yul\":3424:3429   */\n      dup4\n        /* \"#utility.yul\":3420:3434   */\n      add\n        /* \"#utility.yul\":3416:3444   */\n      and\n        /* \"#utility.yul\":3406:3444   */\n      swap1\n      pop\n        /* \"#utility.yul\":3348:3450   */\n      swap2\n      swap1\n      pop\n      jump\t// out\n        /* \"#utility.yul\":3456:3813   */\n    tag_135:\n        /* \"#utility.yul\":3534:3537   */\n      0x00\n        /* \"#utility.yul\":3562:3601   */\n      tag_216\n        /* \"#utility.yul\":3595:3600   */\n      dup3\n        /* \"#utility.yul\":3562:3601   */\n      tag_131\n      jump\t// in\n    tag_216:\n        /* \"#utility.yul\":3617:3678   */\n      tag_217\n        /* \"#utility.yul\":3671:3677   */\n      dup2\n        /* \"#utility.yul\":3666:3669   */\n      dup6\n        /* \"#utility.yul\":3617:3678   */\n      tag_132\n      jump\t// in\n    tag_217:\n        /* \"#utility.yul\":3610:3678   */\n      swap4\n      pop\n        /* \"#utility.yul\":3687:3752   */\n      tag_218\n        /* \"#utility.yul\":3745:3751   */\n      dup2\n        /* \"#utility.yul\":3740:3743   */\n      dup6\n        /* \"#utility.yul\":3733:3737   */\n      0x20\n        /* \"#utility.yul\":3726:3731   */\n      dup7\n        /* \"#utility.yul\":3722:3738   */\n      add\n        /* \"#utility.yul\":3687:3752   */\n      tag_133\n      jump\t// in\n    tag_218:\n        /* \"#utility.yul\":3777:3806   */\n      tag_219\n        /* \"#utility.yul\":3799:3805   */\n      dup2\n        /* \"#utility.yul\":3777:3806   */\n      tag_134\n      jump\t// in\n    tag_219:\n        /* \"#utility.yul\":3772:3775   */\n      dup5\n        /* \"#utility.yul\":3768:3807   */\n      add\n        /* \"#utility.yul\":3761:3807   */\n      swap2\n      pop\n        /* \"#utility.yul\":3538:3813   */\n      pop\n        /* \"#utility.yul\":3456:3813   */\n      swap3\n      swap2\n      pop\n      pop\n      jump\t// out\n        /* \"#utility.yul\":3877:4660   */\n    tag_136:\n        /* \"#utility.yul\":3990:3993   */\n      0x00\n        /* \"#utility.yul\":4026:4030   */\n      0x60\n        /* \"#utility.yul\":4021:4024   */\n      dup4\n        /* \"#utility.yul\":4017:4031   */\n      add\n        /* \"#utility.yul\":4115:4119   */\n      0x00\n        /* \"#utility.yul\":4108:4113   */\n      dup4\n        /* \"#utility.yul\":4104:4120   */\n      add\n        /* \"#utility.yul\":4098:4121   */\n      mload\n        /* \"#utility.yul\":4134:4197   */\n      tag_221\n        /* \"#utility.yul\":4191:4195   */\n      0x00\n        /* \"#utility.yul\":4186:4189   */\n      dup7\n        /* \"#utility.yul\":4182:4196   */\n      add\n        /* \"#utility.yul\":4168:4180   */\n      dup3\n        /* \"#utility.yul\":4134:4197   */\n      tag_130\n      jump\t// in\n    tag_221:\n        /* \"#utility.yul\":4041:4207   */\n      pop\n        /* \"#utility.yul\":4294:4298   */\n      0x20\n        /* \"#utility.yul\":4287:4292   */\n      dup4\n        /* \"#utility.yul\":4283:4299   */\n      add\n        /* \"#utility.yul\":4277:4300   */\n      mload\n        /* \"#utility.yul\":4313:4376   */\n      tag_222\n        /* \"#utility.yul\":4370:4374   */\n      0x20\n        /* \"#utility.yul\":4365:4368   */\n      dup7\n        /* \"#utility.yul\":4361:4375   */\n      add\n        /* \"#utility.yul\":4347:4359   */\n      dup3\n        /* \"#utility.yul\":4313:4376   */\n      tag_130\n      jump\t// in\n    tag_222:\n        /* \"#utility.yul\":4217:4386   */\n      pop\n        /* \"#utility.yul\":4470:4474   */\n      0x40\n        /* \"#utility.yul\":4463:4468   */\n      dup4\n        /* \"#utility.yul\":4459:4475   */\n      add\n        /* \"#utility.yul\":4453:4476   */\n      mload\n        /* \"#utility.yul\":4523:4526   */\n      dup5\n        /* \"#utility.yul\":4517:4521   */\n      dup3\n        /* \"#utility.yul\":4513:4527   */\n      sub\n        /* \"#utility.yul\":4506:4510   */\n      0x40\n        /* \"#utility.yul\":4501:4504   */\n      dup7\n        /* \"#utility.yul\":4497:4511   */\n      add\n        /* \"#utility.yul\":4490:4528   */\n      mstore\n        /* \"#utility.yul\":4549:4622   */\n      tag_223\n        /* \"#utility.yul\":4617:4621   */\n      dup3\n        /* \"#utility.yul\":4603:4615   */\n      dup3\n        /* \"#utility.yul\":4549:4622   */\n      tag_135\n      jump\t// in\n    tag_223:\n        /* \"#utility.yul\":4541:4622   */\n      swap2\n      pop\n        /* \"#utility.yul\":4396:4633   */\n      pop\n        /* \"#utility.yul\":4650:4654   */\n      dup1\n        /* \"#utility.yul\":4643:4654   */\n      swap2\n      pop\n        /* \"#utility.yul\":3995:4660   */\n      pop\n        /* \"#utility.yul\":3877:4660   */\n      swap3\n      swap2\n      pop\n      pop\n      jump\t// out\n        /* \"#utility.yul\":4666:4930   */\n    tag_137:\n        /* \"#utility.yul\":4789:4799   */\n      0x00\n        /* \"#utility.yul\":4824:4924   */\n      tag_225\n        /* \"#utility.yul\":4920:4923   */\n      dup4\n        /* \"#utility.yul\":4912:4918   */\n      dup4\n        /* \"#utility.yul\":4824:4924   */\n      tag_136\n      jump\t// in\n    tag_225:\n        /* \"#utility.yul\":4810:4924   */\n      swap1\n      pop\n        /* \"#utility.yul\":4666:4930   */\n      swap3\n      swap2\n      pop\n      pop\n      jump\t// out\n        /* \"#utility.yul\":4936:5076   */\n    tag_138:\n        /* \"#utility.yul\":5033:5037   */\n      0x00\n        /* \"#utility.yul\":5065:5069   */\n      0x20\n        /* \"#utility.yul\":5060:5063   */\n      dup3\n        /* \"#utility.yul\":5056:5070   */\n      add\n        /* \"#utility.yul\":5048:5070   */\n      swap1\n      pop\n        /* \"#utility.yul\":4936:5076   */\n      swap2\n      swap1\n      pop\n      jump\t// out\n        /* \"#utility.yul\":5144:6271   */\n    tag_139:\n        /* \"#utility.yul\":5317:5320   */\n      0x00\n        /* \"#utility.yul\":5346:5427   */\n      tag_228\n        /* \"#utility.yul\":5421:5426   */\n      dup3\n        /* \"#utility.yul\":5346:5427   */\n      tag_127\n      jump\t// in\n    tag_228:\n        /* \"#utility.yul\":5443:5556   */\n      tag_229\n        /* \"#utility.yul\":5549:5555   */\n      dup2\n        /* \"#utility.yul\":5544:5547   */\n      dup6\n        /* \"#utility.yul\":5443:5556   */\n      tag_128\n      jump\t// in\n    tag_229:\n        /* \"#utility.yul\":5436:5556   */\n      swap4\n      pop\n        /* \"#utility.yul\":5582:5585   */\n      dup4\n        /* \"#utility.yul\":5627:5631   */\n      0x20\n        /* \"#utility.yul\":5619:5625   */\n      dup3\n        /* \"#utility.yul\":5615:5632   */\n      mul\n        /* \"#utility.yul\":5610:5613   */\n      dup6\n        /* \"#utility.yul\":5606:5633   */\n      add\n        /* \"#utility.yul\":5657:5740   */\n      tag_230\n        /* \"#utility.yul\":5734:5739   */\n      dup6\n        /* \"#utility.yul\":5657:5740   */\n      tag_129\n      jump\t// in\n    tag_230:\n        /* \"#utility.yul\":5763:5770   */\n      dup1\n        /* \"#utility.yul\":5794:5795   */\n      0x00\n        /* \"#utility.yul\":5779:6226   */\n    tag_231:\n        /* \"#utility.yul\":5804:5810   */\n      dup6\n        /* \"#utility.yul\":5801:5802   */\n      dup2\n        /* \"#utility.yul\":5798:5811   */\n      lt\n        /* \"#utility.yul\":5779:6226   */\n      iszero\n      tag_233\n      jumpi\n        /* \"#utility.yul\":5875:5884   */\n      dup5\n        /* \"#utility.yul\":5869:5873   */\n      dup5\n        /* \"#utility.yul\":5865:5885   */\n      sub\n        /* \"#utility.yul\":5860:5863   */\n      dup10\n        /* \"#utility.yul\":5853:5886   */\n      mstore\n        /* \"#utility.yul\":5926:5932   */\n      dup2\n        /* \"#utility.yul\":5920:5933   */\n      mload\n        /* \"#utility.yul\":5954:6072   */\n      tag_234\n        /* \"#utility.yul\":6067:6071   */\n      dup6\n        /* \"#utility.yul\":6052:6065   */\n      dup3\n        /* \"#utility.yul\":5954:6072   */\n      tag_137\n      jump\t// in\n    tag_234:\n        /* \"#utility.yul\":5946:6072   */\n      swap5\n      pop\n        /* \"#utility.yul\":6095:6182   */\n      tag_235\n        /* \"#utility.yul\":6175:6181   */\n      dup4\n        /* \"#utility.yul\":6095:6182   */\n      tag_138\n      jump\t// in\n    tag_235:\n        /* \"#utility.yul\":6085:6182   */\n      swap3\n      pop\n        /* \"#utility.yul\":6211:6215   */\n      0x20\n        /* \"#utility.yul\":6206:6209   */\n      dup11\n        /* \"#utility.yul\":6202:6216   */\n      add\n        /* \"#utility.yul\":6195:6216   */\n      swap10\n      pop\n        /* \"#utility.yul\":5839:6226   */\n      pop\n        /* \"#utility.yul\":5826:5827   */\n      0x01\n        /* \"#utility.yul\":5823:5824   */\n      dup2\n        /* \"#utility.yul\":5819:5828   */\n      add\n        /* \"#utility.yul\":5814:5828   */\n      swap1\n      pop\n        /* \"#utility.yul\":5779:6226   */\n      jump(tag_231)\n    tag_233:\n        /* \"#utility.yul\":5783:5797   */\n      pop\n        /* \"#utility.yul\":6242:6246   */\n      dup3\n        /* \"#utility.yul\":6235:6246   */\n      swap8\n      pop\n        /* \"#utility.yul\":6262:6265   */\n      dup8\n        /* \"#utility.yul\":6255:6265   */\n      swap6\n      pop\n        /* \"#utility.yul\":5322:6271   */\n      pop\n      pop\n      pop\n      pop\n      pop\n        /* \"#utility.yul\":5144:6271   */\n      swap3\n      swap2\n      pop\n      pop\n      jump\t// out\n        /* \"#utility.yul\":6277:6758   */\n    tag_39:\n        /* \"#utility.yul\":6474:6478   */\n      0x00\n        /* \"#utility.yul\":6512:6514   */\n      0x20\n        /* \"#utility.yul\":6501:6510   */\n      dup3\n        /* \"#utility.yul\":6497:6515   */\n      add\n        /* \"#utility.yul\":6489:6515   */\n      swap1\n      pop\n        /* \"#utility.yul\":6561:6570   */\n      dup2\n        /* \"#utility.yul\":6555:6559   */\n      dup2\n        /* \"#utility.yul\":6551:6571   */\n      sub\n        /* \"#utility.yul\":6547:6548   */\n      0x00\n        /* \"#utility.yul\":6536:6545   */\n      dup4\n        /* \"#utility.yul\":6532:6549   */\n      add\n        /* \"#utility.yul\":6525:6572   */\n      mstore\n        /* \"#utility.yul\":6589:6751   */\n      tag_237\n        /* \"#utility.yul\":6746:6750   */\n      dup2\n        /* \"#utility.yul\":6737:6743   */\n      dup5\n        /* \"#utility.yul\":6589:6751   */\n      tag_139\n      jump\t// in\n    tag_237:\n        /* \"#utility.yul\":6581:6751   */\n      swap1\n      pop\n        /* \"#utility.yul\":6277:6758   */\n      swap3\n      swap2\n      pop\n      pop\n      jump\t// out\n        /* \"#utility.yul\":6764:6868   */\n    tag_140:\n        /* \"#utility.yul\":6809:6816   */\n      0x00\n        /* \"#utility.yul\":6838:6862   */\n      tag_239\n        /* \"#utility.yul\":6856:6861   */\n      dup3\n        /* \"#utility.yul\":6838:6862   */\n      tag_119\n      jump\t// in\n    tag_239:\n        /* \"#utility.yul\":6827:6862   */\n      swap1\n      pop\n        /* \"#utility.yul\":6764:6868   */\n      swap2\n      swap1\n      pop\n      jump\t// out\n        /* \"#utility.yul\":6874:7012   */\n    tag_141:\n        /* \"#utility.yul\":6955:6987   */\n      tag_241\n        /* \"#utility.yul\":6981:6986   */\n      dup2\n        /* \"#utility.yul\":6955:6987   */\n      tag_140\n      jump\t// in\n    tag_241:\n        /* \"#utility.yul\":6948:6953   */\n      dup2\n        /* \"#utility.yul\":6945:6988   */\n      eq\n        /* \"#utility.yul\":6935:7006   */\n      tag_242\n      jumpi\n        /* \"#utility.yul\":7002:7003   */\n      0x00\n        /* \"#utility.yul\":6999:7000   */\n      dup1\n        /* \"#utility.yul\":6992:7004   */\n      revert\n        /* \"#utility.yul\":6935:7006   */\n    tag_242:\n        /* \"#utility.yul\":6874:7012   */\n      pop\n      jump\t// out\n        /* \"#utility.yul\":7018:7173   */\n    tag_142:\n        /* \"#utility.yul\":7072:7077   */\n      0x00\n        /* \"#utility.yul\":7110:7116   */\n      dup2\n        /* \"#utility.yul\":7097:7117   */\n      calldataload\n        /* \"#utility.yul\":7088:7117   */\n      swap1\n      pop\n        /* \"#utility.yul\":7126:7167   */\n      tag_244\n        /* \"#utility.yul\":7161:7166   */\n      dup2\n        /* \"#utility.yul\":7126:7167   */\n      tag_141\n      jump\t// in\n    tag_244:\n        /* \"#utility.yul\":7018:7173   */\n      swap3\n      swap2\n      pop\n      pop\n      jump\t// out\n        /* \"#utility.yul\":7179:7301   */\n    tag_143:\n        /* \"#utility.yul\":7252:7276   */\n      tag_246\n        /* \"#utility.yul\":7270:7275   */\n      dup2\n        /* \"#utility.yul\":7252:7276   */\n      tag_125\n      jump\t// in\n    tag_246:\n        /* \"#utility.yul\":7245:7250   */\n      dup2\n        /* \"#utility.yul\":7242:7277   */\n      eq\n        /* \"#utility.yul\":7232:7295   */\n      tag_247\n      jumpi\n        /* \"#utility.yul\":7291:7292   */\n      0x00\n        /* \"#utility.yul\":7288:7289   */\n      dup1\n        /* \"#utility.yul\":7281:7293   */\n      revert\n        /* \"#utility.yul\":7232:7295   */\n    tag_247:\n        /* \"#utility.yul\":7179:7301   */\n      pop\n      jump\t// out\n        /* \"#utility.yul\":7307:7446   */\n    tag_144:\n        /* \"#utility.yul\":7353:7358   */\n      0x00\n        /* \"#utility.yul\":7391:7397   */\n      dup2\n        /* \"#utility.yul\":7378:7398   */\n      calldataload\n        /* \"#utility.yul\":7369:7398   */\n      swap1\n      pop\n        /* \"#utility.yul\":7407:7440   */\n      tag_249\n        /* \"#utility.yul\":7434:7439   */\n      dup2\n        /* \"#utility.yul\":7407:7440   */\n      tag_143\n      jump\t// in\n    tag_249:\n        /* \"#utility.yul\":7307:7446   */\n      swap3\n      swap2\n      pop\n      pop\n      jump\t// out\n        /* \"#utility.yul\":7452:7942   */\n    tag_47:\n        /* \"#utility.yul\":7528:7534   */\n      0x00\n        /* \"#utility.yul\":7536:7542   */\n      dup1\n        /* \"#utility.yul\":7585:7587   */\n      0x40\n        /* \"#utility.yul\":7573:7582   */\n      dup4\n        /* \"#utility.yul\":7564:7571   */\n      dup6\n        /* \"#utility.yul\":7560:7583   */\n      sub\n        /* \"#utility.yul\":7556:7588   */\n      slt\n        /* \"#utility.yul\":7553:7672   */\n      iszero\n      tag_251\n      jumpi\n        /* \"#utility.yul\":7591:7670   */\n      tag_252\n      tag_117\n      jump\t// in\n    tag_252:\n        /* \"#utility.yul\":7553:7672   */\n    tag_251:\n        /* \"#utility.yul\":7711:7712   */\n      0x00\n        /* \"#utility.yul\":7736:7797   */\n      tag_253\n        /* \"#utility.yul\":7789:7796   */\n      dup6\n        /* \"#utility.yul\":7780:7786   */\n      dup3\n        /* \"#utility.yul\":7769:7778   */\n      dup7\n        /* \"#utility.yul\":7765:7787   */\n      add\n        /* \"#utility.yul\":7736:7797   */\n      tag_142\n      jump\t// in\n    tag_253:\n        /* \"#utility.yul\":7726:7797   */\n      swap3\n      pop\n        /* \"#utility.yul\":7682:7807   */\n      pop\n        /* \"#utility.yul\":7846:7848   */\n      0x20\n        /* \"#utility.yul\":7872:7925   */\n      tag_254\n        /* \"#utility.yul\":7917:7924   */\n      dup6\n        /* \"#utility.yul\":7908:7914   */\n      dup3\n        /* \"#utility.yul\":7897:7906   */\n      dup7\n        /* \"#utility.yul\":7893:7915   */\n      add\n        /* \"#utility.yul\":7872:7925   */\n      tag_144\n      jump\t// in\n    tag_254:\n        /* \"#utility.yul\":7862:7925   */\n      swap2\n      pop\n        /* \"#utility.yul\":7817:7935   */\n      pop\n        /* \"#utility.yul\":7452:7942   */\n      swap3\n      pop\n      swap3\n      swap1\n      pop\n      jump\t// out\n        /* \"#utility.yul\":7948:8117   */\n    tag_145:\n        /* \"#utility.yul\":8032:8043   */\n      0x00\n        /* \"#utility.yul\":8066:8072   */\n      dup3\n        /* \"#utility.yul\":8061:8064   */\n      dup3\n        /* \"#utility.yul\":8054:8073   */\n      mstore\n        /* \"#utility.yul\":8106:8110   */\n      0x20\n        /* \"#utility.yul\":8101:8104   */\n      dup3\n        /* \"#utility.yul\":8097:8111   */\n      add\n        /* \"#utility.yul\":8082:8111   */\n      swap1\n      pop\n        /* \"#utility.yul\":7948:8117   */\n      swap3\n      swap2\n      pop\n      pop\n      jump\t// out\n        /* \"#utility.yul\":8123:8303   */\n    tag_146:\n        /* \"#utility.yul\":8263:8295   */\n      0x4a757374207468652062616e6b6572732063616e206164642075736572730000\n        /* \"#utility.yul\":8259:8260   */\n      0x00\n        /* \"#utility.yul\":8251:8257   */\n      dup3\n        /* \"#utility.yul\":8247:8261   */\n      add\n        /* \"#utility.yul\":8240:8296   */\n      mstore\n        /* \"#utility.yul\":8123:8303   */\n      pop\n      jump\t// out\n        /* \"#utility.yul\":8309:8675   */\n    tag_147:\n        /* \"#utility.yul\":8451:8454   */\n      0x00\n        /* \"#utility.yul\":8472:8539   */\n      tag_258\n        /* \"#utility.yul\":8536:8538   */\n      0x1e\n        /* \"#utility.yul\":8531:8534   */\n      dup4\n        /* \"#utility.yul\":8472:8539   */\n      tag_145\n      jump\t// in\n    tag_258:\n        /* \"#utility.yul\":8465:8539   */\n      swap2\n      pop\n        /* \"#utility.yul\":8548:8641   */\n      tag_259\n        /* \"#utility.yul\":8637:8640   */\n      dup3\n        /* \"#utility.yul\":8548:8641   */\n      tag_146\n      jump\t// in\n    tag_259:\n        /* \"#utility.yul\":8666:8668   */\n      0x20\n        /* \"#utility.yul\":8661:8664   */\n      dup3\n        /* \"#utility.yul\":8657:8669   */\n      add\n        /* \"#utility.yul\":8650:8669   */\n      swap1\n      pop\n        /* \"#utility.yul\":8309:8675   */\n      swap2\n      swap1\n      pop\n      jump\t// out\n        /* \"#utility.yul\":8681:9100   */\n    tag_53:\n        /* \"#utility.yul\":8847:8851   */\n      0x00\n        /* \"#utility.yul\":8885:8887   */\n      0x20\n        /* \"#utility.yul\":8874:8883   */\n      dup3\n        /* \"#utility.yul\":8870:8888   */\n      add\n        /* \"#utility.yul\":8862:8888   */\n      swap1\n      pop\n        /* \"#utility.yul\":8934:8943   */\n      dup2\n        /* \"#utility.yul\":8928:8932   */\n      dup2\n        /* \"#utility.yul\":8924:8944   */\n      sub\n        /* \"#utility.yul\":8920:8921   */\n      0x00\n        /* \"#utility.yul\":8909:8918   */\n      dup4\n        /* \"#utility.yul\":8905:8922   */\n      add\n        /* \"#utility.yul\":8898:8945   */\n      mstore\n        /* \"#utility.yul\":8962:9093   */\n      tag_261\n        /* \"#utility.yul\":9088:9092   */\n      dup2\n        /* \"#utility.yul\":8962:9093   */\n      tag_147\n      jump\t// in\n    tag_261:\n        /* \"#utility.yul\":8954:9093   */\n      swap1\n      pop\n        /* \"#utility.yul\":8681:9100   */\n      swap2\n      swap1\n      pop\n      jump\t// out\n        /* \"#utility.yul\":9106:9327   */\n    tag_148:\n        /* \"#utility.yul\":9246:9280   */\n      0x796120656c207573756172696f206573746120636f6d6f206175746f72697a61\n        /* \"#utility.yul\":9242:9243   */\n      0x00\n        /* \"#utility.yul\":9234:9240   */\n      dup3\n        /* \"#utility.yul\":9230:9244   */\n      add\n        /* \"#utility.yul\":9223:9281   */\n      mstore\n        /* \"#utility.yul\":9315:9319   */\n      0x646f000000000000000000000000000000000000000000000000000000000000\n        /* \"#utility.yul\":9310:9312   */\n      0x20\n        /* \"#utility.yul\":9302:9308   */\n      dup3\n        /* \"#utility.yul\":9298:9313   */\n      add\n        /* \"#utility.yul\":9291:9320   */\n      mstore\n        /* \"#utility.yul\":9106:9327   */\n      pop\n      jump\t// out\n        /* \"#utility.yul\":9333:9699   */\n    tag_149:\n        /* \"#utility.yul\":9475:9478   */\n      0x00\n        /* \"#utility.yul\":9496:9563   */\n      tag_264\n        /* \"#utility.yul\":9560:9562   */\n      0x22\n        /* \"#utility.yul\":9555:9558   */\n      dup4\n        /* \"#utility.yul\":9496:9563   */\n      tag_145\n      jump\t// in\n    tag_264:\n        /* \"#utility.yul\":9489:9563   */\n      swap2\n      pop\n        /* \"#utility.yul\":9572:9665   */\n      tag_265\n        /* \"#utility.yul\":9661:9664   */\n      dup3\n        /* \"#utility.yul\":9572:9665   */\n      tag_148\n      jump\t// in\n    tag_265:\n        /* \"#utility.yul\":9690:9692   */\n      0x40\n        /* \"#utility.yul\":9685:9688   */\n      dup3\n        /* \"#utility.yul\":9681:9693   */\n      add\n        /* \"#utility.yul\":9674:9693   */\n      swap1\n      pop\n        /* \"#utility.yul\":9333:9699   */\n      swap2\n      swap1\n      pop\n      jump\t// out\n        /* \"#utility.yul\":9705:10124   */\n    tag_56:\n        /* \"#utility.yul\":9871:9875   */\n      0x00\n        /* \"#utility.yul\":9909:9911   */\n      0x20\n        /* \"#utility.yul\":9898:9907   */\n      dup3\n        /* \"#utility.yul\":9894:9912   */\n      add\n        /* \"#utility.yul\":9886:9912   */\n      swap1\n      pop\n        /* \"#utility.yul\":9958:9967   */\n      dup2\n        /* \"#utility.yul\":9952:9956   */\n      dup2\n        /* \"#utility.yul\":9948:9968   */\n      sub\n        /* \"#utility.yul\":9944:9945   */\n      0x00\n        /* \"#utility.yul\":9933:9942   */\n      dup4\n        /* \"#utility.yul\":9929:9946   */\n      add\n        /* \"#utility.yul\":9922:9969   */\n      mstore\n        /* \"#utility.yul\":9986:10117   */\n      tag_267\n        /* \"#utility.yul\":10112:10116   */\n      dup2\n        /* \"#utility.yul\":9986:10117   */\n      tag_149\n      jump\t// in\n    tag_267:\n        /* \"#utility.yul\":9978:10117   */\n      swap1\n      pop\n        /* \"#utility.yul\":9705:10124   */\n      swap2\n      swap1\n      pop\n      jump\t// out\n        /* \"#utility.yul\":10130:10369   */\n    tag_150:\n        /* \"#utility.yul\":10270:10304   */\n      0x536f6c6f20656c206f776e65722064656c2062616e636f207075656465207361\n        /* \"#utility.yul\":10266:10267   */\n      0x00\n        /* \"#utility.yul\":10258:10264   */\n      dup3\n        /* \"#utility.yul\":10254:10268   */\n      add\n        /* \"#utility.yul\":10247:10305   */\n      mstore\n        /* \"#utility.yul\":10339:10361   */\n      0x626572206573746120696e666f726d6163696f6e000000000000000000000000\n        /* \"#utility.yul\":10334:10336   */\n      0x20\n        /* \"#utility.yul\":10326:10332   */\n      dup3\n        /* \"#utility.yul\":10322:10337   */\n      add\n        /* \"#utility.yul\":10315:10362   */\n      mstore\n        /* \"#utility.yul\":10130:10369   */\n      pop\n      jump\t// out\n        /* \"#utility.yul\":10375:10741   */\n    tag_151:\n        /* \"#utility.yul\":10517:10520   */\n      0x00\n        /* \"#utility.yul\":10538:10605   */\n      tag_270\n        /* \"#utility.yul\":10602:10604   */\n      0x34\n        /* \"#utility.yul\":10597:10600   */\n      dup4\n        /* \"#utility.yul\":10538:10605   */\n      tag_145\n      jump\t// in\n    tag_270:\n        /* \"#utility.yul\":10531:10605   */\n      swap2\n      pop\n        /* \"#utility.yul\":10614:10707   */\n      tag_271\n        /* \"#utility.yul\":10703:10706   */\n      dup3\n        /* \"#utility.yul\":10614:10707   */\n      tag_150\n      jump\t// in\n    tag_271:\n        /* \"#utility.yul\":10732:10734   */\n      0x40\n        /* \"#utility.yul\":10727:10730   */\n      dup3\n        /* \"#utility.yul\":10723:10735   */\n      add\n        /* \"#utility.yul\":10716:10735   */\n      swap1\n      pop\n        /* \"#utility.yul\":10375:10741   */\n      swap2\n      swap1\n      pop\n      jump\t// out\n        /* \"#utility.yul\":10747:11166   */\n    tag_61:\n        /* \"#utility.yul\":10913:10917   */\n      0x00\n        /* \"#utility.yul\":10951:10953   */\n      0x20\n        /* \"#utility.yul\":10940:10949   */\n      dup3\n        /* \"#utility.yul\":10936:10954   */\n      add\n        /* \"#utility.yul\":10928:10954   */\n      swap1\n      pop\n        /* \"#utility.yul\":11000:11009   */\n      dup2\n        /* \"#utility.yul\":10994:10998   */\n      dup2\n        /* \"#utility.yul\":10990:11010   */\n      sub\n        /* \"#utility.yul\":10986:10987   */\n      0x00\n        /* \"#utility.yul\":10975:10984   */\n      dup4\n        /* \"#utility.yul\":10971:10988   */\n      add\n        /* \"#utility.yul\":10964:11011   */\n      mstore\n        /* \"#utility.yul\":11028:11159   */\n      tag_273\n        /* \"#utility.yul\":11154:11158   */\n      dup2\n        /* \"#utility.yul\":11028:11159   */\n      tag_151\n      jump\t// in\n    tag_273:\n        /* \"#utility.yul\":11020:11159   */\n      swap1\n      pop\n        /* \"#utility.yul\":10747:11166   */\n      swap2\n      swap1\n      pop\n      jump\t// out\n        /* \"#utility.yul\":11172:11352   */\n    tag_152:\n        /* \"#utility.yul\":11220:11297   */\n      0x4e487b7100000000000000000000000000000000000000000000000000000000\n        /* \"#utility.yul\":11217:11218   */\n      0x00\n        /* \"#utility.yul\":11210:11298   */\n      mstore\n        /* \"#utility.yul\":11317:11321   */\n      0x22\n        /* \"#utility.yul\":11314:11315   */\n      0x04\n        /* \"#utility.yul\":11307:11322   */\n      mstore\n        /* \"#utility.yul\":11341:11345   */\n      0x24\n        /* \"#utility.yul\":11338:11339   */\n      0x00\n        /* \"#utility.yul\":11331:11346   */\n      revert\n        /* \"#utility.yul\":11358:11678   */\n    tag_69:\n        /* \"#utility.yul\":11402:11408   */\n      0x00\n        /* \"#utility.yul\":11439:11440   */\n      0x02\n        /* \"#utility.yul\":11433:11437   */\n      dup3\n        /* \"#utility.yul\":11429:11441   */\n      div\n        /* \"#utility.yul\":11419:11441   */\n      swap1\n      pop\n        /* \"#utility.yul\":11486:11487   */\n      0x01\n        /* \"#utility.yul\":11480:11484   */\n      dup3\n        /* \"#utility.yul\":11476:11488   */\n      and\n        /* \"#utility.yul\":11507:11525   */\n      dup1\n        /* \"#utility.yul\":11497:11578   */\n      tag_276\n      jumpi\n        /* \"#utility.yul\":11563:11567   */\n      0x7f\n        /* \"#utility.yul\":11555:11561   */\n      dup3\n        /* \"#utility.yul\":11551:11568   */\n      and\n        /* \"#utility.yul\":11541:11568   */\n      swap2\n      pop\n        /* \"#utility.yul\":11497:11578   */\n    tag_276:\n        /* \"#utility.yul\":11625:11627   */\n      0x20\n        /* \"#utility.yul\":11617:11623   */\n      dup3\n        /* \"#utility.yul\":11614:11628   */\n      lt\n        /* \"#utility.yul\":11594:11612   */\n      dup2\n        /* \"#utility.yul\":11591:11629   */\n      sub\n        /* \"#utility.yul\":11588:11672   */\n      tag_277\n      jumpi\n        /* \"#utility.yul\":11644:11662   */\n      tag_278\n      tag_152\n      jump\t// in\n    tag_278:\n        /* \"#utility.yul\":11588:11672   */\n    tag_277:\n        /* \"#utility.yul\":11409:11678   */\n      pop\n        /* \"#utility.yul\":11358:11678   */\n      swap2\n      swap1\n      pop\n      jump\t// out\n        /* \"#utility.yul\":11684:11864   */\n    tag_153:\n        /* \"#utility.yul\":11732:11809   */\n      0x4e487b7100000000000000000000000000000000000000000000000000000000\n        /* \"#utility.yul\":11729:11730   */\n      0x00\n        /* \"#utility.yul\":11722:11810   */\n      mstore\n        /* \"#utility.yul\":11829:11833   */\n      0x11\n        /* \"#utility.yul\":11826:11827   */\n      0x04\n        /* \"#utility.yul\":11819:11834   */\n      mstore\n        /* \"#utility.yul\":11853:11857   */\n      0x24\n        /* \"#utility.yul\":11850:11851   */\n      0x00\n        /* \"#utility.yul\":11843:11858   */\n      revert\n        /* \"#utility.yul\":11870:12061   */\n    tag_76:\n        /* \"#utility.yul\":11910:11913   */\n      0x00\n        /* \"#utility.yul\":11929:11949   */\n      tag_281\n        /* \"#utility.yul\":11947:11948   */\n      dup3\n        /* \"#utility.yul\":11929:11949   */\n      tag_125\n      jump\t// in\n    tag_281:\n        /* \"#utility.yul\":11924:11949   */\n      swap2\n      pop\n        /* \"#utility.yul\":11963:11983   */\n      tag_282\n        /* \"#utility.yul\":11981:11982   */\n      dup4\n        /* \"#utility.yul\":11963:11983   */\n      tag_125\n      jump\t// in\n    tag_282:\n        /* \"#utility.yul\":11958:11983   */\n      swap3\n      pop\n        /* \"#utility.yul\":12006:12007   */\n      dup3\n        /* \"#utility.yul\":12003:12004   */\n      dup3\n        /* \"#utility.yul\":11999:12008   */\n      add\n        /* \"#utility.yul\":11992:12008   */\n      swap1\n      pop\n        /* \"#utility.yul\":12027:12030   */\n      dup1\n        /* \"#utility.yul\":12024:12025   */\n      dup3\n        /* \"#utility.yul\":12021:12031   */\n      gt\n        /* \"#utility.yul\":12018:12054   */\n      iszero\n      tag_283\n      jumpi\n        /* \"#utility.yul\":12034:12052   */\n      tag_284\n      tag_153\n      jump\t// in\n    tag_284:\n        /* \"#utility.yul\":12018:12054   */\n    tag_283:\n        /* \"#utility.yul\":11870:12061   */\n      swap3\n      swap2\n      pop\n      pop\n      jump\t// out\n        /* \"#utility.yul\":12067:12247   */\n    tag_154:\n        /* \"#utility.yul\":12115:12192   */\n      0x4e487b7100000000000000000000000000000000000000000000000000000000\n        /* \"#utility.yul\":12112:12113   */\n      0x00\n        /* \"#utility.yul\":12105:12193   */\n      mstore\n        /* \"#utility.yul\":12212:12216   */\n      0x41\n        /* \"#utility.yul\":12209:12210   */\n      0x04\n        /* \"#utility.yul\":12202:12217   */\n      mstore\n        /* \"#utility.yul\":12236:12240   */\n      0x24\n        /* \"#utility.yul\":12233:12234   */\n      0x00\n        /* \"#utility.yul\":12226:12241   */\n      revert\n        /* \"#utility.yul\":12253:12394   */\n    tag_155:\n        /* \"#utility.yul\":12302:12306   */\n      0x00\n        /* \"#utility.yul\":12325:12328   */\n      dup2\n        /* \"#utility.yul\":12317:12328   */\n      swap1\n      pop\n        /* \"#utility.yul\":12348:12351   */\n      dup2\n        /* \"#utility.yul\":12345:12346   */\n      0x00\n        /* \"#utility.yul\":12338:12352   */\n      mstore\n        /* \"#utility.yul\":12382:12386   */\n      0x20\n        /* \"#utility.yul\":12379:12380   */\n      0x00\n        /* \"#utility.yul\":12369:12387   */\n      keccak256\n        /* \"#utility.yul\":12361:12387   */\n      swap1\n      pop\n        /* \"#utility.yul\":12253:12394   */\n      swap2\n      swap1\n      pop\n      jump\t// out\n        /* \"#utility.yul\":12400:12493   */\n    tag_156:\n        /* \"#utility.yul\":12437:12443   */\n      0x00\n        /* \"#utility.yul\":12484:12486   */\n      0x20\n        /* \"#utility.yul\":12479:12481   */\n      0x1f\n        /* \"#utility.yul\":12472:12477   */\n      dup4\n        /* \"#utility.yul\":12468:12482   */\n      add\n        /* \"#utility.yul\":12464:12487   */\n      div\n        /* \"#utility.yul\":12454:12487   */\n      swap1\n      pop\n        /* \"#utility.yul\":12400:12493   */\n      swap2\n      swap1\n      pop\n      jump\t// out\n        /* \"#utility.yul\":12499:12606   */\n    tag_157:\n        /* \"#utility.yul\":12543:12551   */\n      0x00\n        /* \"#utility.yul\":12593:12598   */\n      dup3\n        /* \"#utility.yul\":12587:12591   */\n      dup3\n        /* \"#utility.yul\":12583:12599   */\n      shl\n        /* \"#utility.yul\":12562:12599   */\n      swap1\n      pop\n        /* \"#utility.yul\":12499:12606   */\n      swap3\n      swap2\n      pop\n      pop\n      jump\t// out\n        /* \"#utility.yul\":12612:13005   */\n    tag_158:\n        /* \"#utility.yul\":12681:12687   */\n      0x00\n        /* \"#utility.yul\":12731:12732   */\n      0x08\n        /* \"#utility.yul\":12719:12729   */\n      dup4\n        /* \"#utility.yul\":12715:12733   */\n      mul\n        /* \"#utility.yul\":12754:12851   */\n      tag_290\n        /* \"#utility.yul\":12784:12850   */\n      0xffffffffffffffffffffffffffffffffffffffffffffffffffffffffffffffff\n        /* \"#utility.yul\":12773:12782   */\n      dup3\n        /* \"#utility.yul\":12754:12851   */\n      tag_157\n      jump\t// in\n    tag_290:\n        /* \"#utility.yul\":12872:12911   */\n      tag_291\n        /* \"#utility.yul\":12902:12910   */\n      dup7\n        /* \"#utility.yul\":12891:12900   */\n      dup4\n        /* \"#utility.yul\":12872:12911   */\n      tag_157\n      jump\t// in\n    tag_291:\n        /* \"#utility.yul\":12860:12911   */\n      swap6\n      pop\n        /* \"#utility.yul\":12944:12948   */\n      dup1\n        /* \"#utility.yul\":12940:12949   */\n      not\n        /* \"#utility.yul\":12933:12938   */\n      dup5\n        /* \"#utility.yul\":12929:12950   */\n      and\n        /* \"#utility.yul\":12920:12950   */\n      swap4\n      pop\n        /* \"#utility.yul\":12993:12997   */\n      dup1\n        /* \"#utility.yul\":12983:12991   */\n      dup7\n        /* \"#utility.yul\":12979:12998   */\n      and\n        /* \"#utility.yul\":12972:12977   */\n      dup5\n        /* \"#utility.yul\":12969:12999   */\n      or\n        /* \"#utility.yul\":12959:12999   */\n      swap3\n      pop\n        /* \"#utility.yul\":12688:13005   */\n      pop\n      pop\n        /* \"#utility.yul\":12612:13005   */\n      swap4\n      swap3\n      pop\n      pop\n      pop\n      jump\t// out\n        /* \"#utility.yul\":13011:13071   */\n    tag_159:\n        /* \"#utility.yul\":13039:13042   */\n      0x00\n        /* \"#utility.yul\":13060:13065   */\n      dup2\n        /* \"#utility.yul\":13053:13065   */\n      swap1\n      pop\n        /* \"#utility.yul\":13011:13071   */\n      swap2\n      swap1\n      pop\n      jump\t// out\n        /* \"#utility.yul\":13077:13219   */\n    tag_160:\n        /* \"#utility.yul\":13127:13136   */\n      0x00\n        /* \"#utility.yul\":13160:13213   */\n      tag_294\n        /* \"#utility.yul\":13178:13212   */\n      tag_295\n        /* \"#utility.yul\":13187:13211   */\n      tag_296\n        /* \"#utility.yul\":13205:13210   */\n      dup5\n        /* \"#utility.yul\":13187:13211   */\n      tag_125\n      jump\t// in\n    tag_296:\n        /* \"#utility.yul\":13178:13212   */\n      tag_159\n      jump\t// in\n    tag_295:\n        /* \"#utility.yul\":13160:13213   */\n      tag_125\n      jump\t// in\n    tag_294:\n        /* \"#utility.yul\":13147:13213   */\n      swap1\n      pop\n        /* \"#utility.yul\":13077:13219   */\n      swap2\n      swap1\n      pop\n      jump\t// out\n        /* \"#utility.yul\":13225:13300   */\n    tag_161:\n        /* \"#utility.yul\":13268:13271   */\n      0x00\n        /* \"#utility.yul\":13289:13294   */\n      dup2\n        /* \"#utility.yul\":13282:13294   */\n      swap1\n      pop\n        /* \"#utility.yul\":13225:13300   */\n      swap2\n      swap1\n      pop\n      jump\t// out\n        /* \"#utility.yul\":13306:13575   */\n    tag_162:\n        /* \"#utility.yul\":13416:13455   */\n      tag_299\n        /* \"#utility.yul\":13447:13454   */\n      dup4\n        /* \"#utility.yul\":13416:13455   */\n      tag_160\n      jump\t// in\n    tag_299:\n        /* \"#utility.yul\":13477:13568   */\n      tag_300\n        /* \"#utility.yul\":13526:13567   */\n      tag_301\n        /* \"#utility.yul\":13550:13566   */\n      dup3\n        /* \"#utility.yul\":13526:13567   */\n      tag_161\n      jump\t// in\n    tag_301:\n        /* \"#utility.yul\":13518:13524   */\n      dup5\n        /* \"#utility.yul\":13511:13515   */\n      dup5\n        /* \"#utility.yul\":13505:13516   */\n      sload\n        /* \"#utility.yul\":13477:13568   */\n      tag_158\n      jump\t// in\n    tag_300:\n        /* \"#utility.yul\":13471:13475   */\n      dup3\n        /* \"#utility.yul\":13464:13569   */\n      sstore\n        /* \"#utility.yul\":13382:13575   */\n      pop\n        /* \"#utility.yul\":13306:13575   */\n      pop\n      pop\n      pop\n      jump\t// out\n        /* \"#utility.yul\":13581:13654   */\n    tag_163:\n        /* \"#utility.yul\":13626:13629   */\n      0x00\n        /* \"#utility.yul\":13581:13654   */\n      swap1\n      jump\t// out\n        /* \"#utility.yul\":13660:13849   */\n    tag_164:\n        /* \"#utility.yul\":13737:13769   */\n      tag_304\n      tag_163\n      jump\t// in\n    tag_304:\n        /* \"#utility.yul\":13778:13843   */\n      tag_305\n        /* \"#utility.yul\":13836:13842   */\n      dup2\n        /* \"#utility.yul\":13828:13834   */\n      dup5\n        /* \"#utility.yul\":13822:13826   */\n      dup5\n        /* \"#utility.yul\":13778:13843   */\n      tag_162\n      jump\t// in\n    tag_305:\n        /* \"#utility.yul\":13713:13849   */\n      pop\n        /* \"#utility.yul\":13660:13849   */\n      pop\n      pop\n      jump\t// out\n        /* \"#utility.yul\":13855:14041   */\n    tag_165:\n        /* \"#utility.yul\":13915:14035   */\n    tag_307:\n        /* \"#utility.yul\":13932:13935   */\n      dup2\n        /* \"#utility.yul\":13925:13930   */\n      dup2\n        /* \"#utility.yul\":13922:13936   */\n      lt\n        /* \"#utility.yul\":13915:14035   */\n      iszero\n      tag_309\n      jumpi\n        /* \"#utility.yul\":13986:14025   */\n      tag_310\n        /* \"#utility.yul\":14023:14024   */\n      0x00\n        /* \"#utility.yul\":14016:14021   */\n      dup3\n        /* \"#utility.yul\":13986:14025   */\n      tag_164\n      jump\t// in\n    tag_310:\n        /* \"#utility.yul\":13959:13960   */\n      0x01\n        /* \"#utility.yul\":13952:13957   */\n      dup2\n        /* \"#utility.yul\":13948:13961   */\n      add\n        /* \"#utility.yul\":13939:13961   */\n      swap1\n      pop\n        /* \"#utility.yul\":13915:14035   */\n      jump(tag_307)\n    tag_309:\n        /* \"#utility.yul\":13855:14041   */\n      pop\n      pop\n      jump\t// out\n        /* \"#utility.yul\":14047:14590   */\n    tag_166:\n        /* \"#utility.yul\":14148:14150   */\n      0x1f\n        /* \"#utility.yul\":14143:14146   */\n      dup3\n        /* \"#utility.yul\":14140:14151   */\n      gt\n        /* \"#utility.yul\":14137:14583   */\n      iszero\n      tag_312\n      jumpi\n        /* \"#utility.yul\":14182:14220   */\n      tag_313\n        /* \"#utility.yul\":14214:14219   */\n      dup2\n        /* \"#utility.yul\":14182:14220   */\n      tag_155\n      jump\t// in\n    tag_313:\n        /* \"#utility.yul\":14266:14295   */\n      tag_314\n        /* \"#utility.yul\":14284:14294   */\n      dup5\n        /* \"#utility.yul\":14266:14295   */\n      tag_156\n      jump\t// in\n    tag_314:\n        /* \"#utility.yul\":14256:14264   */\n      dup2\n        /* \"#utility.yul\":14252:14296   */\n      add\n        /* \"#utility.yul\":14449:14451   */\n      0x20\n        /* \"#utility.yul\":14437:14447   */\n      dup6\n        /* \"#utility.yul\":14434:14452   */\n      lt\n        /* \"#utility.yul\":14431:14480   */\n      iszero\n      tag_315\n      jumpi\n        /* \"#utility.yul\":14470:14478   */\n      dup2\n        /* \"#utility.yul\":14455:14478   */\n      swap1\n      pop\n        /* \"#utility.yul\":14431:14480   */\n    tag_315:\n        /* \"#utility.yul\":14493:14573   */\n      tag_316\n        /* \"#utility.yul\":14549:14571   */\n      tag_317\n        /* \"#utility.yul\":14567:14570   */\n      dup6\n        /* \"#utility.yul\":14549:14571   */\n      tag_156\n      jump\t// in\n    tag_317:\n        /* \"#utility.yul\":14539:14547   */\n      dup4\n        /* \"#utility.yul\":14535:14572   */\n      add\n        /* \"#utility.yul\":14522:14533   */\n      dup3\n        /* \"#utility.yul\":14493:14573   */\n      tag_165\n      jump\t// in\n    tag_316:\n        /* \"#utility.yul\":14152:14583   */\n      pop\n      pop\n        /* \"#utility.yul\":14137:14583   */\n    tag_312:\n        /* \"#utility.yul\":14047:14590   */\n      pop\n      pop\n      pop\n      jump\t// out\n        /* \"#utility.yul\":14596:14713   */\n    tag_167:\n        /* \"#utility.yul\":14650:14658   */\n      0x00\n        /* \"#utility.yul\":14700:14705   */\n      dup3\n        /* \"#utility.yul\":14694:14698   */\n      dup3\n        /* \"#utility.yul\":14690:14706   */\n      shr\n        /* \"#utility.yul\":14669:14706   */\n      swap1\n      pop\n        /* \"#utility.yul\":14596:14713   */\n      swap3\n      swap2\n      pop\n      pop\n      jump\t// out\n        /* \"#utility.yul\":14719:14888   */\n    tag_168:\n        /* \"#utility.yul\":14763:14769   */\n      0x00\n        /* \"#utility.yul\":14796:14847   */\n      tag_320\n        /* \"#utility.yul\":14844:14845   */\n      0x00\n        /* \"#utility.yul\":14840:14846   */\n      not\n        /* \"#utility.yul\":14832:14837   */\n      dup5\n        /* \"#utility.yul\":14829:14830   */\n      0x08\n        /* \"#utility.yul\":14825:14838   */\n      mul\n        /* \"#utility.yul\":14796:14847   */\n      tag_167\n      jump\t// in\n    tag_320:\n        /* \"#utility.yul\":14792:14848   */\n      not\n        /* \"#utility.yul\":14877:14881   */\n      dup1\n        /* \"#utility.yul\":14871:14875   */\n      dup4\n        /* \"#utility.yul\":14867:14882   */\n      and\n        /* \"#utility.yul\":14857:14882   */\n      swap2\n      pop\n        /* \"#utility.yul\":14770:14888   */\n      pop\n        /* \"#utility.yul\":14719:14888   */\n      swap3\n      swap2\n      pop\n      pop\n      jump\t// out\n        /* \"#utility.yul\":14893:15188   */\n    tag_169:\n        /* \"#utility.yul\":14969:14973   */\n      0x00\n        /* \"#utility.yul\":15115:15144   */\n      tag_322\n        /* \"#utility.yul\":15140:15143   */\n      dup4\n        /* \"#utility.yul\":15134:15138   */\n      dup4\n        /* \"#utility.yul\":15115:15144   */\n      tag_168\n      jump\t// in\n    tag_322:\n        /* \"#utility.yul\":15107:15144   */\n      swap2\n      pop\n        /* \"#utility.yul\":15177:15180   */\n      dup3\n        /* \"#utility.yul\":15174:15175   */\n      0x02\n        /* \"#utility.yul\":15170:15181   */\n      mul\n        /* \"#utility.yul\":15164:15168   */\n      dup3\n        /* \"#utility.yul\":15161:15182   */\n      or\n        /* \"#utility.yul\":15153:15182   */\n      swap1\n      pop\n        /* \"#utility.yul\":14893:15188   */\n      swap3\n      swap2\n      pop\n      pop\n      jump\t// out\n        /* \"#utility.yul\":15193:16588   */\n    tag_80:\n        /* \"#utility.yul\":15310:15347   */\n      tag_324\n        /* \"#utility.yul\":15343:15346   */\n      dup3\n        /* \"#utility.yul\":15310:15347   */\n      tag_131\n      jump\t// in\n    tag_324:\n        /* \"#utility.yul\":15412:15430   */\n      0xffffffffffffffff\n        /* \"#utility.yul\":15404:15410   */\n      dup2\n        /* \"#utility.yul\":15401:15431   */\n      gt\n        /* \"#utility.yul\":15398:15454   */\n      iszero\n      tag_325\n      jumpi\n        /* \"#utility.yul\":15434:15452   */\n      tag_326\n      tag_154\n      jump\t// in\n    tag_326:\n        /* \"#utility.yul\":15398:15454   */\n    tag_325:\n        /* \"#utility.yul\":15478:15516   */\n      tag_327\n        /* \"#utility.yul\":15510:15514   */\n      dup3\n        /* \"#utility.yul\":15504:15515   */\n      sload\n        /* \"#utility.yul\":15478:15516   */\n      tag_69\n      jump\t// in\n    tag_327:\n        /* \"#utility.yul\":15563:15630   */\n      tag_328\n        /* \"#utility.yul\":15623:15629   */\n      dup3\n        /* \"#utility.yul\":15615:15621   */\n      dup3\n        /* \"#utility.yul\":15609:15613   */\n      dup6\n        /* \"#utility.yul\":15563:15630   */\n      tag_166\n      jump\t// in\n    tag_328:\n        /* \"#utility.yul\":15657:15658   */\n      0x00\n        /* \"#utility.yul\":15681:15685   */\n      0x20\n        /* \"#utility.yul\":15668:15685   */\n      swap1\n      pop\n        /* \"#utility.yul\":15713:15715   */\n      0x1f\n        /* \"#utility.yul\":15705:15711   */\n      dup4\n        /* \"#utility.yul\":15702:15716   */\n      gt\n        /* \"#utility.yul\":15730:15731   */\n      0x01\n        /* \"#utility.yul\":15725:16343   */\n      dup2\n      eq\n      tag_330\n      jumpi\n        /* \"#utility.yul\":16387:16388   */\n      0x00\n        /* \"#utility.yul\":16404:16410   */\n      dup5\n        /* \"#utility.yul\":16401:16478   */\n      iszero\n      tag_331\n      jumpi\n        /* \"#utility.yul\":16453:16462   */\n      dup3\n        /* \"#utility.yul\":16448:16451   */\n      dup8\n        /* \"#utility.yul\":16444:16463   */\n      add\n        /* \"#utility.yul\":16438:16464   */\n      mload\n        /* \"#utility.yul\":16429:16464   */\n      swap1\n      pop\n        /* \"#utility.yul\":16401:16478   */\n    tag_331:\n        /* \"#utility.yul\":16504:16571   */\n      tag_332\n        /* \"#utility.yul\":16564:16570   */\n      dup6\n        /* \"#utility.yul\":16557:16562   */\n      dup3\n        /* \"#utility.yul\":16504:16571   */\n      tag_169\n      jump\t// in\n    tag_332:\n        /* \"#utility.yul\":16498:16502   */\n      dup7\n        /* \"#utility.yul\":16491:16572   */\n      sstore\n        /* \"#utility.yul\":16360:16582   */\n      pop\n        /* \"#utility.yul\":15695:16582   */\n      jump(tag_329)\n        /* \"#utility.yul\":15725:16343   */\n    tag_330:\n        /* \"#utility.yul\":15777:15781   */\n      0x1f\n        /* \"#utility.yul\":15773:15782   */\n      not\n        /* \"#utility.yul\":15765:15771   */\n      dup5\n        /* \"#utility.yul\":15761:15783   */\n      and\n        /* \"#utility.yul\":15811:15848   */\n      tag_333\n        /* \"#utility.yul\":15843:15847   */\n      dup7\n        /* \"#utility.yul\":15811:15848   */\n      tag_155\n      jump\t// in\n    tag_333:\n        /* \"#utility.yul\":15870:15871   */\n      0x00\n        /* \"#utility.yul\":15884:16092   */\n    tag_334:\n        /* \"#utility.yul\":15898:15905   */\n      dup3\n        /* \"#utility.yul\":15895:15896   */\n      dup2\n        /* \"#utility.yul\":15892:15906   */\n      lt\n        /* \"#utility.yul\":15884:16092   */\n      iszero\n      tag_336\n      jumpi\n        /* \"#utility.yul\":15977:15986   */\n      dup5\n        /* \"#utility.yul\":15972:15975   */\n      dup10\n        /* \"#utility.yul\":15968:15987   */\n      add\n        /* \"#utility.yul\":15962:15988   */\n      mload\n        /* \"#utility.yul\":15954:15960   */\n      dup3\n        /* \"#utility.yul\":15947:15989   */\n      sstore\n        /* \"#utility.yul\":16028:16029   */\n      0x01\n        /* \"#utility.yul\":16020:16026   */\n      dup3\n        /* \"#utility.yul\":16016:16030   */\n      add\n        /* \"#utility.yul\":16006:16030   */\n      swap2\n      pop\n        /* \"#utility.yul\":16075:16077   */\n      0x20\n        /* \"#utility.yul\":16064:16073   */\n      dup6\n        /* \"#utility.yul\":16060:16078   */\n      add\n        /* \"#utility.yul\":16047:16078   */\n      swap5\n      pop\n        /* \"#utility.yul\":15921:15925   */\n      0x20\n        /* \"#utility.yul\":15918:15919   */\n      dup2\n        /* \"#utility.yul\":15914:15926   */\n      add\n        /* \"#utility.yul\":15909:15926   */\n      swap1\n      pop\n        /* \"#utility.yul\":15884:16092   */\n      jump(tag_334)\n    tag_336:\n        /* \"#utility.yul\":16120:16126   */\n      dup7\n        /* \"#utility.yul\":16111:16118   */\n      dup4\n        /* \"#utility.yul\":16108:16127   */\n      lt\n        /* \"#utility.yul\":16105:16284   */\n      iszero\n      tag_337\n      jumpi\n        /* \"#utility.yul\":16178:16187   */\n      dup5\n        /* \"#utility.yul\":16173:16176   */\n      dup10\n        /* \"#utility.yul\":16169:16188   */\n      add\n        /* \"#utility.yul\":16163:16189   */\n      mload\n        /* \"#utility.yul\":16221:16269   */\n      tag_338\n        /* \"#utility.yul\":16263:16267   */\n      0x1f\n        /* \"#utility.yul\":16255:16261   */\n      dup10\n        /* \"#utility.yul\":16251:16268   */\n      and\n        /* \"#utility.yul\":16240:16249   */\n      dup3\n        /* \"#utility.yul\":16221:16269   */\n      tag_168\n      jump\t// in\n    tag_338:\n        /* \"#utility.yul\":16213:16219   */\n      dup4\n        /* \"#utility.yul\":16206:16270   */\n      sstore\n        /* \"#utility.yul\":16128:16284   */\n      pop\n        /* \"#utility.yul\":16105:16284   */\n    tag_337:\n        /* \"#utility.yul\":16330:16331   */\n      0x01\n        /* \"#utility.yul\":16326:16327   */\n      0x02\n        /* \"#utility.yul\":16318:16324   */\n      dup9\n        /* \"#utility.yul\":16314:16328   */\n      mul\n        /* \"#utility.yul\":16310:16332   */\n      add\n        /* \"#utility.yul\":16304:16308   */\n      dup9\n        /* \"#utility.yul\":16297:16333   */\n      sstore\n        /* \"#utility.yul\":15732:16343   */\n      pop\n      pop\n      pop\n        /* \"#utility.yul\":15695:16582   */\n    tag_329:\n      pop\n        /* \"#utility.yul\":15285:16588   */\n      pop\n      pop\n      pop\n        /* \"#utility.yul\":15193:16588   */\n      pop\n      pop\n      jump\t// out\n        /* \"#utility.yul\":16594:16827   */\n    tag_170:\n        /* \"#utility.yul\":16734:16768   */\n      0x4e6f206573746173206175746f72697a61646f2070617261207265616c697a61\n        /* \"#utility.yul\":16730:16731   */\n      0x00\n        /* \"#utility.yul\":16722:16728   */\n      dup3\n        /* \"#utility.yul\":16718:16732   */\n      add\n        /* \"#utility.yul\":16711:16769   */\n      mstore\n        /* \"#utility.yul\":16803:16819   */\n      0x72206c61206f7065726163696f6e000000000000000000000000000000000000\n        /* \"#utility.yul\":16798:16800   */\n      0x20\n        /* \"#utility.yul\":16790:16796   */\n      dup3\n        /* \"#utility.yul\":16786:16801   */\n      add\n        /* \"#utility.yul\":16779:16820   */\n      mstore\n        /* \"#utility.yul\":16594:16827   */\n      pop\n      jump\t// out\n        /* \"#utility.yul\":16833:17199   */\n    tag_171:\n        /* \"#utility.yul\":16975:16978   */\n      0x00\n        /* \"#utility.yul\":16996:17063   */\n      tag_341\n        /* \"#utility.yul\":17060:17062   */\n      0x2e\n        /* \"#utility.yul\":17055:17058   */\n      dup4\n        /* \"#utility.yul\":16996:17063   */\n      tag_145\n      jump\t// in\n    tag_341:\n        /* \"#utility.yul\":16989:17063   */\n      swap2\n      pop\n        /* \"#utility.yul\":17072:17165   */\n      tag_342\n        /* \"#utility.yul\":17161:17164   */\n      dup3\n        /* \"#utility.yul\":17072:17165   */\n      tag_170\n      jump\t// in\n    tag_342:\n        /* \"#utility.yul\":17190:17192   */\n      0x40\n        /* \"#utility.yul\":17185:17188   */\n      dup3\n        /* \"#utility.yul\":17181:17193   */\n      add\n        /* \"#utility.yul\":17174:17193   */\n      swap1\n      pop\n        /* \"#utility.yul\":16833:17199   */\n      swap2\n      swap1\n      pop\n      jump\t// out\n        /* \"#utility.yul\":17205:17624   */\n    tag_89:\n        /* \"#utility.yul\":17371:17375   */\n      0x00\n        /* \"#utility.yul\":17409:17411   */\n      0x20\n        /* \"#utility.yul\":17398:17407   */\n      dup3\n        /* \"#utility.yul\":17394:17412   */\n      add\n        /* \"#utility.yul\":17386:17412   */\n      swap1\n      pop\n        /* \"#utility.yul\":17458:17467   */\n      dup2\n        /* \"#utility.yul\":17452:17456   */\n      dup2\n        /* \"#utility.yul\":17448:17468   */\n      sub\n        /* \"#utility.yul\":17444:17445   */\n      0x00\n        /* \"#utility.yul\":17433:17442   */\n      dup4\n        /* \"#utility.yul\":17429:17446   */\n      add\n        /* \"#utility.yul\":17422:17469   */\n      mstore\n        /* \"#utility.yul\":17486:17617   */\n      tag_344\n        /* \"#utility.yul\":17612:17616   */\n      dup2\n        /* \"#utility.yul\":17486:17617   */\n      tag_171\n      jump\t// in\n    tag_344:\n        /* \"#utility.yul\":17478:17617   */\n      swap1\n      pop\n        /* \"#utility.yul\":17205:17624   */\n      swap2\n      swap1\n      pop\n      jump\t// out\n        /* \"#utility.yul\":17630:17872   */\n    tag_172:\n        /* \"#utility.yul\":17770:17804   */\n      0x6e6f206861792064696e65726f20737566696369656e74652070617261207265\n        /* \"#utility.yul\":17766:17767   */\n      0x00\n        /* \"#utility.yul\":17758:17764   */\n      dup3\n        /* \"#utility.yul\":17754:17768   */\n      add\n        /* \"#utility.yul\":17747:17805   */\n      mstore\n        /* \"#utility.yul\":17839:17864   */\n      0x616c697a6172206c61207472616e73666572656e636961000000000000000000\n        /* \"#utility.yul\":17834:17836   */\n      0x20\n        /* \"#utility.yul\":17826:17832   */\n      dup3\n        /* \"#utility.yul\":17822:17837   */\n      add\n        /* \"#utility.yul\":17815:17865   */\n      mstore\n        /* \"#utility.yul\":17630:17872   */\n      pop\n      jump\t// out\n        /* \"#utility.yul\":17878:18244   */\n    tag_173:\n        /* \"#utility.yul\":18020:18023   */\n      0x00\n        /* \"#utility.yul\":18041:18108   */\n      tag_347\n        /* \"#utility.yul\":18105:18107   */\n      0x37\n        /* \"#utility.yul\":18100:18103   */\n      dup4\n        /* \"#utility.yul\":18041:18108   */\n      tag_145\n      jump\t// in\n    tag_347:\n        /* \"#utility.yul\":18034:18108   */\n      swap2\n      pop\n        /* \"#utility.yul\":18117:18210   */\n      tag_348\n        /* \"#utility.yul\":18206:18209   */\n      dup3\n        /* \"#utility.yul\":18117:18210   */\n      tag_172\n      jump\t// in\n    tag_348:\n        /* \"#utility.yul\":18235:18237   */\n      0x40\n        /* \"#utility.yul\":18230:18233   */\n      dup3\n        /* \"#utility.yul\":18226:18238   */\n      add\n        /* \"#utility.yul\":18219:18238   */\n      swap1\n      pop\n        /* \"#utility.yul\":17878:18244   */\n      swap2\n      swap1\n      pop\n      jump\t// out\n        /* \"#utility.yul\":18250:18669   */\n    tag_92:\n        /* \"#utility.yul\":18416:18420   */\n      0x00\n        /* \"#utility.yul\":18454:18456   */\n      0x20\n        /* \"#utility.yul\":18443:18452   */\n      dup3\n        /* \"#utility.yul\":18439:18457   */\n      add\n        /* \"#utility.yul\":18431:18457   */\n      swap1\n      pop\n        /* \"#utility.yul\":18503:18512   */\n      dup2\n        /* \"#utility.yul\":18497:18501   */\n      dup2\n        /* \"#utility.yul\":18493:18513   */\n      sub\n        /* \"#utility.yul\":18489:18490   */\n      0x00\n        /* \"#utility.yul\":18478:18487   */\n      dup4\n        /* \"#utility.yul\":18474:18491   */\n      add\n        /* \"#utility.yul\":18467:18514   */\n      mstore\n        /* \"#utility.yul\":18531:18662   */\n      tag_350\n        /* \"#utility.yul\":18657:18661   */\n      dup2\n        /* \"#utility.yul\":18531:18662   */\n      tag_173\n      jump\t// in\n    tag_350:\n        /* \"#utility.yul\":18523:18662   */\n      swap1\n      pop\n        /* \"#utility.yul\":18250:18669   */\n      swap2\n      swap1\n      pop\n      jump\t// out\n        /* \"#utility.yul\":18675:18869   */\n    tag_94:\n        /* \"#utility.yul\":18715:18719   */\n      0x00\n        /* \"#utility.yul\":18735:18755   */\n      tag_352\n        /* \"#utility.yul\":18753:18754   */\n      dup3\n        /* \"#utility.yul\":18735:18755   */\n      tag_125\n      jump\t// in\n    tag_352:\n        /* \"#utility.yul\":18730:18755   */\n      swap2\n      pop\n        /* \"#utility.yul\":18769:18789   */\n      tag_353\n        /* \"#utility.yul\":18787:18788   */\n      dup4\n        /* \"#utility.yul\":18769:18789   */\n      tag_125\n      jump\t// in\n    tag_353:\n        /* \"#utility.yul\":18764:18789   */\n      swap3\n      pop\n        /* \"#utility.yul\":18813:18814   */\n      dup3\n        /* \"#utility.yul\":18810:18811   */\n      dup3\n        /* \"#utility.yul\":18806:18815   */\n      sub\n        /* \"#utility.yul\":18798:18815   */\n      swap1\n      pop\n        /* \"#utility.yul\":18837:18838   */\n      dup2\n        /* \"#utility.yul\":18831:18835   */\n      dup2\n        /* \"#utility.yul\":18828:18839   */\n      gt\n        /* \"#utility.yul\":18825:18862   */\n      iszero\n      tag_354\n      jumpi\n        /* \"#utility.yul\":18842:18860   */\n      tag_355\n      tag_153\n      jump\t// in\n    tag_355:\n        /* \"#utility.yul\":18825:18862   */\n    tag_354:\n        /* \"#utility.yul\":18675:18869   */\n      swap3\n      swap2\n      pop\n      pop\n      jump\t// out\n        /* \"#utility.yul\":18875:19096   */\n    tag_174:\n        /* \"#utility.yul\":19015:19049   */\n      0x5468652062616c616e636520636f756c64206e6f742062652077697468647261\n        /* \"#utility.yul\":19011:19012   */\n      0x00\n        /* \"#utility.yul\":19003:19009   */\n      dup3\n        /* \"#utility.yul\":18999:19013   */\n      add\n        /* \"#utility.yul\":18992:19050   */\n      mstore\n        /* \"#utility.yul\":19084:19088   */\n      0x776e000000000000000000000000000000000000000000000000000000000000\n        /* \"#utility.yul\":19079:19081   */\n      0x20\n        /* \"#utility.yul\":19071:19077   */\n      dup3\n        /* \"#utility.yul\":19067:19082   */\n      add\n        /* \"#utility.yul\":19060:19089   */\n      mstore\n        /* \"#utility.yul\":18875:19096   */\n      pop\n      jump\t// out\n        /* \"#utility.yul\":19102:19468   */\n    tag_175:\n        /* \"#utility.yul\":19244:19247   */\n      0x00\n        /* \"#utility.yul\":19265:19332   */\n      tag_358\n        /* \"#utility.yul\":19329:19331   */\n      0x22\n        /* \"#utility.yul\":19324:19327   */\n      dup4\n        /* \"#utility.yul\":19265:19332   */\n      tag_145\n      jump\t// in\n    tag_358:\n        /* \"#utility.yul\":19258:19332   */\n      swap2\n      pop\n        /* \"#utility.yul\":19341:19434   */\n      tag_359\n        /* \"#utility.yul\":19430:19433   */\n      dup3\n        /* \"#utility.yul\":19341:19434   */\n      tag_174\n      jump\t// in\n    tag_359:\n        /* \"#utility.yul\":19459:19461   */\n      0x40\n        /* \"#utility.yul\":19454:19457   */\n      dup3\n        /* \"#utility.yul\":19450:19462   */\n      add\n        /* \"#utility.yul\":19443:19462   */\n      swap1\n      pop\n        /* \"#utility.yul\":19102:19468   */\n      swap2\n      swap1\n      pop\n      jump\t// out\n        /* \"#utility.yul\":19474:19893   */\n    tag_98:\n        /* \"#utility.yul\":19640:19644   */\n      0x00\n        /* \"#utility.yul\":19678:19680   */\n      0x20\n        /* \"#utility.yul\":19667:19676   */\n      dup3\n        /* \"#utility.yul\":19663:19681   */\n      add\n        /* \"#utility.yul\":19655:19681   */\n      swap1\n      pop\n        /* \"#utility.yul\":19727:19736   */\n      dup2\n        /* \"#utility.yul\":19721:19725   */\n      dup2\n        /* \"#utility.yul\":19717:19737   */\n      sub\n        /* \"#utility.yul\":19713:19714   */\n      0x00\n        /* \"#utility.yul\":19702:19711   */\n      dup4\n        /* \"#utility.yul\":19698:19715   */\n      add\n        /* \"#utility.yul\":19691:19738   */\n      mstore\n        /* \"#utility.yul\":19755:19886   */\n      tag_361\n        /* \"#utility.yul\":19881:19885   */\n      dup2\n        /* \"#utility.yul\":19755:19886   */\n      tag_175\n      jump\t// in\n    tag_361:\n        /* \"#utility.yul\":19747:19886   */\n      swap1\n      pop\n        /* \"#utility.yul\":19474:19893   */\n      swap2\n      swap1\n      pop\n      jump\t// out\n\n    auxdata: 0xa2646970667358221220554ba513f70cc2632d85400938a04c33efb74e11e8e89383d28ce925cb84ea2564736f6c63430008130033\n}\n",
				"bytecode": {
					"linkReferences": {},
					"object": "60806040526001600560006101000a81548160ff02191690831515021790555034801561002b57600080fd5b50336000806101000a81548173ffffffffffffffffffffffffffffffffffffffff021916908373ffffffffffffffffffffffffffffffffffffffff1602179055506000600281905550611d3a806100836000396000f3fe6080604052600436106100865760003560e01c8063a853409a11610059578063a853409a14610133578063c306d4fb1461015e578063d0e30db014610189578063dd646cc414610193578063f3fef3a3146101aa57610086565b80633d5b83751461008b57806352ffcb4b146100b45780637b83b50b146100f15780639cb560251461011c575b600080fd5b34801561009757600080fd5b506100b260048036038101906100ad91906112e2565b6101da565b005b3480156100c057600080fd5b506100db60048036038101906100d691906112e2565b610450565b6040516100e8919061133d565b60405180910390f35b3480156100fd57600080fd5b506101066104e7565b6040516101139190611371565b60405180910390f35b34801561012857600080fd5b5061013161057e565b005b34801561013f57600080fd5b5061014861059b565b6040516101559190611371565b60405180910390f35b34801561016a57600080fd5b506101736105e5565b604051610180919061153d565b60405180910390f35b61019161072a565b005b34801561019f57600080fd5b506101a8610967565b005b6101c460048036038101906101bf91906115c9565b610984565b6040516101d1919061133d565b60405180910390f35b8173ffffffffffffffffffffffffffffffffffffffff163373ffffffffffffffffffffffffffffffffffffffff1614610248576040517f08c379a000000000000000000000000000000000000000000000000000000000815260040161023f90611666565b60405180910390fd5b600460008273ffffffffffffffffffffffffffffffffffffffff1673ffffffffffffffffffffffffffffffffffffffff16815260200190815260200160002060000160149054906101000a900460ff16156102d8576040517f08c379a00000000000000000000000000000000000000000000000000000000081526004016102cf906116f8565b60405180910390fd5b6001600360008473ffffffffffffffffffffffffffffffffffffffff1673ffffffffffffffffffffffffffffffffffffffff16815260200190815260200160002060030160008373ffffffffffffffffffffffffffffffffffffffff1673ffffffffffffffffffffffffffffffffffffffff16815260200190815260200160002060006101000a81548160ff02191690831515021790555081600460008373ffffffffffffffffffffffffffffffffffffffff1673ffffffffffffffffffffffffffffffffffffffff16815260200190815260200160002060000160006101000a81548173ffffffffffffffffffffffffffffffffffffffff021916908373ffffffffffffffffffffffffffffffffffffffff1602179055506001600460008373ffffffffffffffffffffffffffffffffffffffff1673ffffffffffffffffffffffffffffffffffffffff16815260200190815260200160002060000160146101000a81548160ff0219169083151502179055505050565b6000600360008473ffffffffffffffffffffffffffffffffffffffff1673ffffffffffffffffffffffffffffffffffffffff16815260200190815260200160002060030160008373ffffffffffffffffffffffffffffffffffffffff1673ffffffffffffffffffffffffffffffffffffffff16815260200190815260200160002060009054906101000a900460ff16905092915050565b60008060009054906101000a900473ffffffffffffffffffffffffffffffffffffffff1673ffffffffffffffffffffffffffffffffffffffff163373ffffffffffffffffffffffffffffffffffffffff1614610578576040517f08c379a000000000000000000000000000000000000000000000000000000000815260040161056f9061178a565b60405180910390fd5b47905090565b6001600560006101000a81548160ff021916908315150217905550565b6000600360003373ffffffffffffffffffffffffffffffffffffffff1673ffffffffffffffffffffffffffffffffffffffff16815260200190815260200160002060040154905090565b6060600360003373ffffffffffffffffffffffffffffffffffffffff1673ffffffffffffffffffffffffffffffffffffffff168152602001908152602001600020600201805480602002602001604051908101604052809291908181526020016000905b8282101561072157838290600052602060002090600302016040518060600160405290816000820154815260200160018201548152602001600282018054610690906117d9565b80601f01602080910402602001604051908101604052809291908181526020018280546106bc906117d9565b80156107095780601f106106de57610100808354040283529160200191610709565b820191906000526020600020905b8154815290600101906020018083116106ec57829003601f168201915b50505050508152505081526020019060010190610649565b50505050905090565b346002546107389190611839565b60028190555034600360003373ffffffffffffffffffffffffffffffffffffffff1673ffffffffffffffffffffffffffffffffffffffff16815260200190815260200160002060040160008282546107909190611839565b92505081905550600360003373ffffffffffffffffffffffffffffffffffffffff1673ffffffffffffffffffffffffffffffffffffffff16815260200190815260200160002060000160405180606001604052803481526020014281526020016040518060400160405280600881526020017f526563696269646f00000000000000000000000000000000000000000000000081525081525090806001815401808255809150506001900390600052602060002090600302016000909190919091506000820151816000015560208201518160010155604082015181600201908161087b9190611a48565b505050600360003373ffffffffffffffffffffffffffffffffffffffff1673ffffffffffffffffffffffffffffffffffffffff16815260200190815260200160002060020160405180606001604052803481526020014281526020016040518060400160405280600881526020017f526563696269646f0000000000000000000000000000000000000000000000008152508152509080600181540180825580915050600190039060005260206000209060030201600090919091909150600082015181600001556020820151816001015560408201518160020190816109629190611a48565b505050565b6000600560006101000a81548160ff021916908315150217905550565b6000801515600560009054906101000a900460ff16151503610f1657610a0c600460003373ffffffffffffffffffffffffffffffffffffffff1673ffffffffffffffffffffffffffffffffffffffff16815260200190815260200160002060000160009054906101000a900473ffffffffffffffffffffffffffffffffffffffff1633610450565b610a4b576040517f08c379a0000000000000000000000000000000000000000000000000000000008152600401610a4290611b8c565b60405180910390fd5b8160036000600460003373ffffffffffffffffffffffffffffffffffffffff1673ffffffffffffffffffffffffffffffffffffffff16815260200190815260200160002060000160009054906101000a900473ffffffffffffffffffffffffffffffffffffffff1673ffffffffffffffffffffffffffffffffffffffff1673ffffffffffffffffffffffffffffffffffffffff168152602001908152602001600020600401541015610b32576040517f08c379a0000000000000000000000000000000000000000000000000000000008152600401610b2990611c1e565b60405180910390fd5b8160036000600460003373ffffffffffffffffffffffffffffffffffffffff1673ffffffffffffffffffffffffffffffffffffffff16815260200190815260200160002060000160009054906101000a900473ffffffffffffffffffffffffffffffffffffffff1673ffffffffffffffffffffffffffffffffffffffff1673ffffffffffffffffffffffffffffffffffffffff1681526020019081526020016000206004016000828254610be69190611c3e565b9250508190555060008373ffffffffffffffffffffffffffffffffffffffff166108fc849081150290604051600060405180830381858888f19350505050905080610c66576040517f08c379a0000000000000000000000000000000000000000000000000000000008152600401610c5d90611ce4565b60405180910390fd5b82600254610c749190611c3e565b60028190555060036000600460003373ffffffffffffffffffffffffffffffffffffffff1673ffffffffffffffffffffffffffffffffffffffff16815260200190815260200160002060000160009054906101000a900473ffffffffffffffffffffffffffffffffffffffff1673ffffffffffffffffffffffffffffffffffffffff1673ffffffffffffffffffffffffffffffffffffffff16815260200190815260200160002060010160405180606001604052808581526020014281526020016040518060400160405280600781526020017f456e766961646f00000000000000000000000000000000000000000000000000815250815250908060018154018082558091505060019003906000526020600020906003020160009091909190915060008201518160000155602082015181600101556040820151816002019081610dc09190611a48565b50505060036000600460003373ffffffffffffffffffffffffffffffffffffffff1673ffffffffffffffffffffffffffffffffffffffff16815260200190815260200160002060000160009054906101000a900473ffffffffffffffffffffffffffffffffffffffff1673ffffffffffffffffffffffffffffffffffffffff1673ffffffffffffffffffffffffffffffffffffffff16815260200190815260200160002060020160405180606001604052808581526020014281526020016040518060400160405280600781526020017f456e766961646f00000000000000000000000000000000000000000000000000815250815250908060018154018082558091505060019003906000526020600020906003020160009091909190915060008201518160000155602082015181600101556040820151816002019081610f099190611a48565b5050506001915050611279565b60011515600560009054906101000a900460ff161515036112745781600360003373ffffffffffffffffffffffffffffffffffffffff1673ffffffffffffffffffffffffffffffffffffffff168152602001908152602001600020600401541015610fb6576040517f08c379a0000000000000000000000000000000000000000000000000000000008152600401610fad90611c1e565b60405180910390fd5b81600360003373ffffffffffffffffffffffffffffffffffffffff1673ffffffffffffffffffffffffffffffffffffffff16815260200190815260200160002060040160008282546110089190611c3e565b9250508190555060008373ffffffffffffffffffffffffffffffffffffffff166108fc849081150290604051600060405180830381858888f19350505050905080611088576040517f08c379a000000000000000000000000000000000000000000000000000000000815260040161107f90611ce4565b60405180910390fd5b826002546110969190611c3e565b600281905550600360003373ffffffffffffffffffffffffffffffffffffffff1673ffffffffffffffffffffffffffffffffffffffff16815260200190815260200160002060010160405180606001604052808581526020014281526020016040518060400160405280600781526020017f456e766961646f000000000000000000000000000000000000000000000000008152508152509080600181540180825580915050600190039060005260206000209060030201600090919091909150600082015181600001556020820151816001015560408201518160020190816111809190611a48565b505050600360003373ffffffffffffffffffffffffffffffffffffffff1673ffffffffffffffffffffffffffffffffffffffff16815260200190815260200160002060020160405180606001604052808581526020014281526020016040518060400160405280600781526020017f456e766961646f000000000000000000000000000000000000000000000000008152508152509080600181540180825580915050600190039060005260206000209060030201600090919091909150600082015181600001556020820151816001015560408201518160020190816112679190611a48565b5050506001915050611279565b600090505b92915050565b600080fd5b600073ffffffffffffffffffffffffffffffffffffffff82169050919050565b60006112af82611284565b9050919050565b6112bf816112a4565b81146112ca57600080fd5b50565b6000813590506112dc816112b6565b92915050565b600080604083850312156112f9576112f861127f565b5b6000611307858286016112cd565b9250506020611318858286016112cd565b9150509250929050565b60008115159050919050565b61133781611322565b82525050565b6000602082019050611352600083018461132e565b92915050565b6000819050919050565b61136b81611358565b82525050565b60006020820190506113866000830184611362565b92915050565b600081519050919050565b600082825260208201905092915050565b6000819050602082019050919050565b6113c181611358565b82525050565b600081519050919050565b600082825260208201905092915050565b60005b838110156114015780820151818401526020810190506113e6565b60008484015250505050565b6000601f19601f8301169050919050565b6000611429826113c7565b61143381856113d2565b93506114438185602086016113e3565b61144c8161140d565b840191505092915050565b600060608301600083015161146f60008601826113b8565b50602083015161148260208601826113b8565b506040830151848203604086015261149a828261141e565b9150508091505092915050565b60006114b38383611457565b905092915050565b6000602082019050919050565b60006114d38261138c565b6114dd8185611397565b9350836020820285016114ef856113a8565b8060005b8581101561152b578484038952815161150c85826114a7565b9450611517836114bb565b925060208a019950506001810190506114f3565b50829750879550505050505092915050565b6000602082019050818103600083015261155781846114c8565b905092915050565b600061156a82611284565b9050919050565b61157a8161155f565b811461158557600080fd5b50565b60008135905061159781611571565b92915050565b6115a681611358565b81146115b157600080fd5b50565b6000813590506115c38161159d565b92915050565b600080604083850312156115e0576115df61127f565b5b60006115ee85828601611588565b92505060206115ff858286016115b4565b9150509250929050565b600082825260208201905092915050565b7f4a757374207468652062616e6b6572732063616e206164642075736572730000600082015250565b6000611650601e83611609565b915061165b8261161a565b602082019050919050565b6000602082019050818103600083015261167f81611643565b9050919050565b7f796120656c207573756172696f206573746120636f6d6f206175746f72697a6160008201527f646f000000000000000000000000000000000000000000000000000000000000602082015250565b60006116e2602283611609565b91506116ed82611686565b604082019050919050565b60006020820190508181036000830152611711816116d5565b9050919050565b7f536f6c6f20656c206f776e65722064656c2062616e636f20707565646520736160008201527f626572206573746120696e666f726d6163696f6e000000000000000000000000602082015250565b6000611774603483611609565b915061177f82611718565b604082019050919050565b600060208201905081810360008301526117a381611767565b9050919050565b7f4e487b7100000000000000000000000000000000000000000000000000000000600052602260045260246000fd5b600060028204905060018216806117f157607f821691505b602082108103611804576118036117aa565b5b50919050565b7f4e487b7100000000000000000000000000000000000000000000000000000000600052601160045260246000fd5b600061184482611358565b915061184f83611358565b92508282019050808211156118675761186661180a565b5b92915050565b7f4e487b7100000000000000000000000000000000000000000000000000000000600052604160045260246000fd5b60008190508160005260206000209050919050565b60006020601f8301049050919050565b600082821b905092915050565b6000600883026118fe7fffffffffffffffffffffffffffffffffffffffffffffffffffffffffffffffff826118c1565b61190886836118c1565b95508019841693508086168417925050509392505050565b6000819050919050565b600061194561194061193b84611358565b611920565b611358565b9050919050565b6000819050919050565b61195f8361192a565b61197361196b8261194c565b8484546118ce565b825550505050565b600090565b61198861197b565b611993818484611956565b505050565b5b818110156119b7576119ac600082611980565b600181019050611999565b5050565b601f8211156119fc576119cd8161189c565b6119d6846118b1565b810160208510156119e5578190505b6119f96119f1856118b1565b830182611998565b50505b505050565b600082821c905092915050565b6000611a1f60001984600802611a01565b1980831691505092915050565b6000611a388383611a0e565b9150826002028217905092915050565b611a51826113c7565b67ffffffffffffffff811115611a6a57611a6961186d565b5b611a7482546117d9565b611a7f8282856119bb565b600060209050601f831160018114611ab25760008415611aa0578287015190505b611aaa8582611a2c565b865550611b12565b601f198416611ac08661189c565b60005b82811015611ae857848901518255600182019150602085019450602081019050611ac3565b86831015611b055784890151611b01601f891682611a0e565b8355505b6001600288020188555050505b505050505050565b7f4e6f206573746173206175746f72697a61646f2070617261207265616c697a6160008201527f72206c61206f7065726163696f6e000000000000000000000000000000000000602082015250565b6000611b76602e83611609565b9150611b8182611b1a565b604082019050919050565b60006020820190508181036000830152611ba581611b69565b9050919050565b7f6e6f206861792064696e65726f20737566696369656e7465207061726120726560008201527f616c697a6172206c61207472616e73666572656e636961000000000000000000602082015250565b6000611c08603783611609565b9150611c1382611bac565b604082019050919050565b60006020820190508181036000830152611c3781611bfb565b9050919050565b6000611c4982611358565b9150611c5483611358565b9250828203905081811115611c6c57611c6b61180a565b5b92915050565b7f5468652062616c616e636520636f756c64206e6f74206265207769746864726160008201527f776e000000000000000000000000000000000000000000000000000000000000602082015250565b6000611cce602283611609565b9150611cd982611c72565b604082019050919050565b60006020820190508181036000830152611cfd81611cc1565b905091905056fea2646970667358221220554ba513f70cc2632d85400938a04c33efb74e11e8e89383d28ce925cb84ea2564736f6c63430008130033",
					"opcodes": "PUSH1 0x80 PUSH1 0x40 MSTORE PUSH1 0x1 PUSH1 0x5 PUSH1 0x0 PUSH2 0x100 EXP DUP2 SLOAD DUP2 PUSH1 0xFF MUL NOT AND SWAP1 DUP4 ISZERO ISZERO MUL OR SWAP1 SSTORE POP CALLVALUE DUP1 ISZERO PUSH2 0x2B JUMPI PUSH1 0x0 DUP1 REVERT JUMPDEST POP CALLER PUSH1 0x0 DUP1 PUSH2 0x100 EXP DUP2 SLOAD DUP2 PUSH20 0xFFFFFFFFFFFFFFFFFFFFFFFFFFFFFFFFFFFFFFFF MUL NOT AND SWAP1 DUP4 PUSH20 0xFFFFFFFFFFFFFFFFFFFFFFFFFFFFFFFFFFFFFFFF AND MUL OR SWAP1 SSTORE POP PUSH1 0x0 PUSH1 0x2 DUP2 SWAP1 SSTORE POP PUSH2 0x1D3A DUP1 PUSH2 0x83 PUSH1 0x0 CODECOPY PUSH1 0x0 RETURN INVALID PUSH1 0x80 PUSH1 0x40 MSTORE PUSH1 0x4 CALLDATASIZE LT PUSH2 0x86 JUMPI PUSH1 0x0 CALLDATALOAD PUSH1 0xE0 SHR DUP1 PUSH4 0xA853409A GT PUSH2 0x59 JUMPI DUP1 PUSH4 0xA853409A EQ PUSH2 0x133 JUMPI DUP1 PUSH4 0xC306D4FB EQ PUSH2 0x15E JUMPI DUP1 PUSH4 0xD0E30DB0 EQ PUSH2 0x189 JUMPI DUP1 PUSH4 0xDD646CC4 EQ PUSH2 0x193 JUMPI DUP1 PUSH4 0xF3FEF3A3 EQ PUSH2 0x1AA JUMPI PUSH2 0x86 JUMP JUMPDEST DUP1 PUSH4 0x3D5B8375 EQ PUSH2 0x8B JUMPI DUP1 PUSH4 0x52FFCB4B EQ PUSH2 0xB4 JUMPI DUP1 PUSH4 0x7B83B50B EQ PUSH2 0xF1 JUMPI DUP1 PUSH4 0x9CB56025 EQ PUSH2 0x11C JUMPI JUMPDEST PUSH1 0x0 DUP1 REVERT JUMPDEST CALLVALUE DUP1 ISZERO PUSH2 0x97 JUMPI PUSH1 0x0 DUP1 REVERT JUMPDEST POP PUSH2 0xB2 PUSH1 0x4 DUP1 CALLDATASIZE SUB DUP2 ADD SWAP1 PUSH2 0xAD SWAP2 SWAP1 PUSH2 0x12E2 JUMP JUMPDEST PUSH2 0x1DA JUMP JUMPDEST STOP JUMPDEST CALLVALUE DUP1 ISZERO PUSH2 0xC0 JUMPI PUSH1 0x0 DUP1 REVERT JUMPDEST POP PUSH2 0xDB PUSH1 0x4 DUP1 CALLDATASIZE SUB DUP2 ADD SWAP1 PUSH2 0xD6 SWAP2 SWAP1 PUSH2 0x12E2 JUMP JUMPDEST PUSH2 0x450 JUMP JUMPDEST PUSH1 0x40 MLOAD PUSH2 0xE8 SWAP2 SWAP1 PUSH2 0x133D JUMP JUMPDEST PUSH1 0x40 MLOAD DUP1 SWAP2 SUB SWAP1 RETURN JUMPDEST CALLVALUE DUP1 ISZERO PUSH2 0xFD JUMPI PUSH1 0x0 DUP1 REVERT JUMPDEST POP PUSH2 0x106 PUSH2 0x4E7 JUMP JUMPDEST PUSH1 0x40 MLOAD PUSH2 0x113 SWAP2 SWAP1 PUSH2 0x1371 JUMP JUMPDEST PUSH1 0x40 MLOAD DUP1 SWAP2 SUB SWAP1 RETURN JUMPDEST CALLVALUE DUP1 ISZERO PUSH2 0x128 JUMPI PUSH1 0x0 DUP1 REVERT JUMPDEST POP PUSH2 0x131 PUSH2 0x57E JUMP JUMPDEST STOP JUMPDEST CALLVALUE DUP1 ISZERO PUSH2 0x13F JUMPI PUSH1 0x0 DUP1 REVERT JUMPDEST POP PUSH2 0x148 PUSH2 0x59B JUMP JUMPDEST PUSH1 0x40 MLOAD PUSH2 0x155 SWAP2 SWAP1 PUSH2 0x1371 JUMP JUMPDEST PUSH1 0x40 MLOAD DUP1 SWAP2 SUB SWAP1 RETURN JUMPDEST CALLVALUE DUP1 ISZERO PUSH2 0x16A JUMPI PUSH1 0x0 DUP1 REVERT JUMPDEST POP PUSH2 0x173 PUSH2 0x5E5 JUMP JUMPDEST PUSH1 0x40 MLOAD PUSH2 0x180 SWAP2 SWAP1 PUSH2 0x153D JUMP JUMPDEST PUSH1 0x40 MLOAD DUP1 SWAP2 SUB SWAP1 RETURN JUMPDEST PUSH2 0x191 PUSH2 0x72A JUMP JUMPDEST STOP JUMPDEST CALLVALUE DUP1 ISZERO PUSH2 0x19F JUMPI PUSH1 0x0 DUP1 REVERT JUMPDEST POP PUSH2 0x1A8 PUSH2 0x967 JUMP JUMPDEST STOP JUMPDEST PUSH2 0x1C4 PUSH1 0x4 DUP1 CALLDATASIZE SUB DUP2 ADD SWAP1 PUSH2 0x1BF SWAP2 SWAP1 PUSH2 0x15C9 JUMP JUMPDEST PUSH2 0x984 JUMP JUMPDEST PUSH1 0x40 MLOAD PUSH2 0x1D1 SWAP2 SWAP1 PUSH2 0x133D JUMP JUMPDEST PUSH1 0x40 MLOAD DUP1 SWAP2 SUB SWAP1 RETURN JUMPDEST DUP2 PUSH20 0xFFFFFFFFFFFFFFFFFFFFFFFFFFFFFFFFFFFFFFFF AND CALLER PUSH20 0xFFFFFFFFFFFFFFFFFFFFFFFFFFFFFFFFFFFFFFFF AND EQ PUSH2 0x248 JUMPI PUSH1 0x40 MLOAD PUSH32 0x8C379A000000000000000000000000000000000000000000000000000000000 DUP2 MSTORE PUSH1 0x4 ADD PUSH2 0x23F SWAP1 PUSH2 0x1666 JUMP JUMPDEST PUSH1 0x40 MLOAD DUP1 SWAP2 SUB SWAP1 REVERT JUMPDEST PUSH1 0x4 PUSH1 0x0 DUP3 PUSH20 0xFFFFFFFFFFFFFFFFFFFFFFFFFFFFFFFFFFFFFFFF AND PUSH20 0xFFFFFFFFFFFFFFFFFFFFFFFFFFFFFFFFFFFFFFFF AND DUP2 MSTORE PUSH1 0x20 ADD SWAP1 DUP2 MSTORE PUSH1 0x20 ADD PUSH1 0x0 KECCAK256 PUSH1 0x0 ADD PUSH1 0x14 SWAP1 SLOAD SWAP1 PUSH2 0x100 EXP SWAP1 DIV PUSH1 0xFF AND ISZERO PUSH2 0x2D8 JUMPI PUSH1 0x40 MLOAD PUSH32 0x8C379A000000000000000000000000000000000000000000000000000000000 DUP2 MSTORE PUSH1 0x4 ADD PUSH2 0x2CF SWAP1 PUSH2 0x16F8 JUMP JUMPDEST PUSH1 0x40 MLOAD DUP1 SWAP2 SUB SWAP1 REVERT JUMPDEST PUSH1 0x1 PUSH1 0x3 PUSH1 0x0 DUP5 PUSH20 0xFFFFFFFFFFFFFFFFFFFFFFFFFFFFFFFFFFFFFFFF AND PUSH20 0xFFFFFFFFFFFFFFFFFFFFFFFFFFFFFFFFFFFFFFFF AND DUP2 MSTORE PUSH1 0x20 ADD SWAP1 DUP2 MSTORE PUSH1 0x20 ADD PUSH1 0x0 KECCAK256 PUSH1 0x3 ADD PUSH1 0x0 DUP4 PUSH20 0xFFFFFFFFFFFFFFFFFFFFFFFFFFFFFFFFFFFFFFFF AND PUSH20 0xFFFFFFFFFFFFFFFFFFFFFFFFFFFFFFFFFFFFFFFF AND DUP2 MSTORE PUSH1 0x20 ADD SWAP1 DUP2 MSTORE PUSH1 0x20 ADD PUSH1 0x0 KECCAK256 PUSH1 0x0 PUSH2 0x100 EXP DUP2 SLOAD DUP2 PUSH1 0xFF MUL NOT AND SWAP1 DUP4 ISZERO ISZERO MUL OR SWAP1 SSTORE POP DUP2 PUSH1 0x4 PUSH1 0x0 DUP4 PUSH20 0xFFFFFFFFFFFFFFFFFFFFFFFFFFFFFFFFFFFFFFFF AND PUSH20 0xFFFFFFFFFFFFFFFFFFFFFFFFFFFFFFFFFFFFFFFF AND DUP2 MSTORE PUSH1 0x20 ADD SWAP1 DUP2 MSTORE PUSH1 0x20 ADD PUSH1 0x0 KECCAK256 PUSH1 0x0 ADD PUSH1 0x0 PUSH2 0x100 EXP DUP2 SLOAD DUP2 PUSH20 0xFFFFFFFFFFFFFFFFFFFFFFFFFFFFFFFFFFFFFFFF MUL NOT AND SWAP1 DUP4 PUSH20 0xFFFFFFFFFFFFFFFFFFFFFFFFFFFFFFFFFFFFFFFF AND MUL OR SWAP1 SSTORE POP PUSH1 0x1 PUSH1 0x4 PUSH1 0x0 DUP4 PUSH20 0xFFFFFFFFFFFFFFFFFFFFFFFFFFFFFFFFFFFFFFFF AND PUSH20 0xFFFFFFFFFFFFFFFFFFFFFFFFFFFFFFFFFFFFFFFF AND DUP2 MSTORE PUSH1 0x20 ADD SWAP1 DUP2 MSTORE PUSH1 0x20 ADD PUSH1 0x0 KECCAK256 PUSH1 0x0 ADD PUSH1 0x14 PUSH2 0x100 EXP DUP2 SLOAD DUP2 PUSH1 0xFF MUL NOT AND SWAP1 DUP4 ISZERO ISZERO MUL OR SWAP1 SSTORE POP POP POP JUMP JUMPDEST PUSH1 0x0 PUSH1 0x3 PUSH1 0x0 DUP5 PUSH20 0xFFFFFFFFFFFFFFFFFFFFFFFFFFFFFFFFFFFFFFFF AND PUSH20 0xFFFFFFFFFFFFFFFFFFFFFFFFFFFFFFFFFFFFFFFF AND DUP2 MSTORE PUSH1 0x20 ADD SWAP1 DUP2 MSTORE PUSH1 0x20 ADD PUSH1 0x0 KECCAK256 PUSH1 0x3 ADD PUSH1 0x0 DUP4 PUSH20 0xFFFFFFFFFFFFFFFFFFFFFFFFFFFFFFFFFFFFFFFF AND PUSH20 0xFFFFFFFFFFFFFFFFFFFFFFFFFFFFFFFFFFFFFFFF AND DUP2 MSTORE PUSH1 0x20 ADD SWAP1 DUP2 MSTORE PUSH1 0x20 ADD PUSH1 0x0 KECCAK256 PUSH1 0x0 SWAP1 SLOAD SWAP1 PUSH2 0x100 EXP SWAP1 DIV PUSH1 0xFF AND SWAP1 POP SWAP3 SWAP2 POP POP JUMP JUMPDEST PUSH1 0x0 DUP1 PUSH1 0x0 SWAP1 SLOAD SWAP1 PUSH2 0x100 EXP SWAP1 DIV PUSH20 0xFFFFFFFFFFFFFFFFFFFFFFFFFFFFFFFFFFFFFFFF AND PUSH20 0xFFFFFFFFFFFFFFFFFFFFFFFFFFFFFFFFFFFFFFFF AND CALLER PUSH20 0xFFFFFFFFFFFFFFFFFFFFFFFFFFFFFFFFFFFFFFFF AND EQ PUSH2 0x578 JUMPI PUSH1 0x40 MLOAD PUSH32 0x8C379A000000000000000000000000000000000000000000000000000000000 DUP2 MSTORE PUSH1 0x4 ADD PUSH2 0x56F SWAP1 PUSH2 0x178A JUMP JUMPDEST PUSH1 0x40 MLOAD DUP1 SWAP2 SUB SWAP1 REVERT JUMPDEST SELFBALANCE SWAP1 POP SWAP1 JUMP JUMPDEST PUSH1 0x1 PUSH1 0x5 PUSH1 0x0 PUSH2 0x100 EXP DUP2 SLOAD DUP2 PUSH1 0xFF MUL NOT AND SWAP1 DUP4 ISZERO ISZERO MUL OR SWAP1 SSTORE POP JUMP JUMPDEST PUSH1 0x0 PUSH1 0x3 PUSH1 0x0 CALLER PUSH20 0xFFFFFFFFFFFFFFFFFFFFFFFFFFFFFFFFFFFFFFFF AND PUSH20 0xFFFFFFFFFFFFFFFFFFFFFFFFFFFFFFFFFFFFFFFF AND DUP2 MSTORE PUSH1 0x20 ADD SWAP1 DUP2 MSTORE PUSH1 0x20 ADD PUSH1 0x0 KECCAK256 PUSH1 0x4 ADD SLOAD SWAP1 POP SWAP1 JUMP JUMPDEST PUSH1 0x60 PUSH1 0x3 PUSH1 0x0 CALLER PUSH20 0xFFFFFFFFFFFFFFFFFFFFFFFFFFFFFFFFFFFFFFFF AND PUSH20 0xFFFFFFFFFFFFFFFFFFFFFFFFFFFFFFFFFFFFFFFF AND DUP2 MSTORE PUSH1 0x20 ADD SWAP1 DUP2 MSTORE PUSH1 0x20 ADD PUSH1 0x0 KECCAK256 PUSH1 0x2 ADD DUP1 SLOAD DUP1 PUSH1 0x20 MUL PUSH1 0x20 ADD PUSH1 0x40 MLOAD SWAP1 DUP2 ADD PUSH1 0x40 MSTORE DUP1 SWAP3 SWAP2 SWAP1 DUP2 DUP2 MSTORE PUSH1 0x20 ADD PUSH1 0x0 SWAP1 JUMPDEST DUP3 DUP3 LT ISZERO PUSH2 0x721 JUMPI DUP4 DUP3 SWAP1 PUSH1 0x0 MSTORE PUSH1 0x20 PUSH1 0x0 KECCAK256 SWAP1 PUSH1 0x3 MUL ADD PUSH1 0x40 MLOAD DUP1 PUSH1 0x60 ADD PUSH1 0x40 MSTORE SWAP1 DUP2 PUSH1 0x0 DUP3 ADD SLOAD DUP2 MSTORE PUSH1 0x20 ADD PUSH1 0x1 DUP3 ADD SLOAD DUP2 MSTORE PUSH1 0x20 ADD PUSH1 0x2 DUP3 ADD DUP1 SLOAD PUSH2 0x690 SWAP1 PUSH2 0x17D9 JUMP JUMPDEST DUP1 PUSH1 0x1F ADD PUSH1 0x20 DUP1 SWAP2 DIV MUL PUSH1 0x20 ADD PUSH1 0x40 MLOAD SWAP1 DUP2 ADD PUSH1 0x40 MSTORE DUP1 SWAP3 SWAP2 SWAP1 DUP2 DUP2 MSTORE PUSH1 0x20 ADD DUP3 DUP1 SLOAD PUSH2 0x6BC SWAP1 PUSH2 0x17D9 JUMP JUMPDEST DUP1 ISZERO PUSH2 0x709 JUMPI DUP1 PUSH1 0x1F LT PUSH2 0x6DE JUMPI PUSH2 0x100 DUP1 DUP4 SLOAD DIV MUL DUP4 MSTORE SWAP2 PUSH1 0x20 ADD SWAP2 PUSH2 0x709 JUMP JUMPDEST DUP3 ADD SWAP2 SWAP1 PUSH1 0x0 MSTORE PUSH1 0x20 PUSH1 0x0 KECCAK256 SWAP1 JUMPDEST DUP2 SLOAD DUP2 MSTORE SWAP1 PUSH1 0x1 ADD SWAP1 PUSH1 0x20 ADD DUP1 DUP4 GT PUSH2 0x6EC JUMPI DUP3 SWAP1 SUB PUSH1 0x1F AND DUP3 ADD SWAP2 JUMPDEST POP POP POP POP POP DUP2 MSTORE POP POP DUP2 MSTORE PUSH1 0x20 ADD SWAP1 PUSH1 0x1 ADD SWAP1 PUSH2 0x649 JUMP JUMPDEST POP POP POP POP SWAP1 POP SWAP1 JUMP JUMPDEST CALLVALUE PUSH1 0x2 SLOAD PUSH2 0x738 SWAP2 SWAP1 PUSH2 0x1839 JUMP JUMPDEST PUSH1 0x2 DUP2 SWAP1 SSTORE POP CALLVALUE PUSH1 0x3 PUSH1 0x0 CALLER PUSH20 0xFFFFFFFFFFFFFFFFFFFFFFFFFFFFFFFFFFFFFFFF AND PUSH20 0xFFFFFFFFFFFFFFFFFFFFFFFFFFFFFFFFFFFFFFFF AND DUP2 MSTORE PUSH1 0x20 ADD SWAP1 DUP2 MSTORE PUSH1 0x20 ADD PUSH1 0x0 KECCAK256 PUSH1 0x4 ADD PUSH1 0x0 DUP3 DUP3 SLOAD PUSH2 0x790 SWAP2 SWAP1 PUSH2 0x1839 JUMP JUMPDEST SWAP3 POP POP DUP2 SWAP1 SSTORE POP PUSH1 0x3 PUSH1 0x0 CALLER PUSH20 0xFFFFFFFFFFFFFFFFFFFFFFFFFFFFFFFFFFFFFFFF AND PUSH20 0xFFFFFFFFFFFFFFFFFFFFFFFFFFFFFFFFFFFFFFFF AND DUP2 MSTORE PUSH1 0x20 ADD SWAP1 DUP2 MSTORE PUSH1 0x20 ADD PUSH1 0x0 KECCAK256 PUSH1 0x0 ADD PUSH1 0x40 MLOAD DUP1 PUSH1 0x60 ADD PUSH1 0x40 MSTORE DUP1 CALLVALUE DUP2 MSTORE PUSH1 0x20 ADD TIMESTAMP DUP2 MSTORE PUSH1 0x20 ADD PUSH1 0x40 MLOAD DUP1 PUSH1 0x40 ADD PUSH1 0x40 MSTORE DUP1 PUSH1 0x8 DUP2 MSTORE PUSH1 0x20 ADD PUSH32 0x526563696269646F000000000000000000000000000000000000000000000000 DUP2 MSTORE POP DUP2 MSTORE POP SWAP1 DUP1 PUSH1 0x1 DUP2 SLOAD ADD DUP1 DUP3 SSTORE DUP1 SWAP2 POP POP PUSH1 0x1 SWAP1 SUB SWAP1 PUSH1 0x0 MSTORE PUSH1 0x20 PUSH1 0x0 KECCAK256 SWAP1 PUSH1 0x3 MUL ADD PUSH1 0x0 SWAP1 SWAP2 SWAP1 SWAP2 SWAP1 SWAP2 POP PUSH1 0x0 DUP3 ADD MLOAD DUP2 PUSH1 0x0 ADD SSTORE PUSH1 0x20 DUP3 ADD MLOAD DUP2 PUSH1 0x1 ADD SSTORE PUSH1 0x40 DUP3 ADD MLOAD DUP2 PUSH1 0x2 ADD SWAP1 DUP2 PUSH2 0x87B SWAP2 SWAP1 PUSH2 0x1A48 JUMP JUMPDEST POP POP POP PUSH1 0x3 PUSH1 0x0 CALLER PUSH20 0xFFFFFFFFFFFFFFFFFFFFFFFFFFFFFFFFFFFFFFFF AND PUSH20 0xFFFFFFFFFFFFFFFFFFFFFFFFFFFFFFFFFFFFFFFF AND DUP2 MSTORE PUSH1 0x20 ADD SWAP1 DUP2 MSTORE PUSH1 0x20 ADD PUSH1 0x0 KECCAK256 PUSH1 0x2 ADD PUSH1 0x40 MLOAD DUP1 PUSH1 0x60 ADD PUSH1 0x40 MSTORE DUP1 CALLVALUE DUP2 MSTORE PUSH1 0x20 ADD TIMESTAMP DUP2 MSTORE PUSH1 0x20 ADD PUSH1 0x40 MLOAD DUP1 PUSH1 0x40 ADD PUSH1 0x40 MSTORE DUP1 PUSH1 0x8 DUP2 MSTORE PUSH1 0x20 ADD PUSH32 0x526563696269646F000000000000000000000000000000000000000000000000 DUP2 MSTORE POP DUP2 MSTORE POP SWAP1 DUP1 PUSH1 0x1 DUP2 SLOAD ADD DUP1 DUP3 SSTORE DUP1 SWAP2 POP POP PUSH1 0x1 SWAP1 SUB SWAP1 PUSH1 0x0 MSTORE PUSH1 0x20 PUSH1 0x0 KECCAK256 SWAP1 PUSH1 0x3 MUL ADD PUSH1 0x0 SWAP1 SWAP2 SWAP1 SWAP2 SWAP1 SWAP2 POP PUSH1 0x0 DUP3 ADD MLOAD DUP2 PUSH1 0x0 ADD SSTORE PUSH1 0x20 DUP3 ADD MLOAD DUP2 PUSH1 0x1 ADD SSTORE PUSH1 0x40 DUP3 ADD MLOAD DUP2 PUSH1 0x2 ADD SWAP1 DUP2 PUSH2 0x962 SWAP2 SWAP1 PUSH2 0x1A48 JUMP JUMPDEST POP POP POP JUMP JUMPDEST PUSH1 0x0 PUSH1 0x5 PUSH1 0x0 PUSH2 0x100 EXP DUP2 SLOAD DUP2 PUSH1 0xFF MUL NOT AND SWAP1 DUP4 ISZERO ISZERO MUL OR SWAP1 SSTORE POP JUMP JUMPDEST PUSH1 0x0 DUP1 ISZERO ISZERO PUSH1 0x5 PUSH1 0x0 SWAP1 SLOAD SWAP1 PUSH2 0x100 EXP SWAP1 DIV PUSH1 0xFF AND ISZERO ISZERO SUB PUSH2 0xF16 JUMPI PUSH2 0xA0C PUSH1 0x4 PUSH1 0x0 CALLER PUSH20 0xFFFFFFFFFFFFFFFFFFFFFFFFFFFFFFFFFFFFFFFF AND PUSH20 0xFFFFFFFFFFFFFFFFFFFFFFFFFFFFFFFFFFFFFFFF AND DUP2 MSTORE PUSH1 0x20 ADD SWAP1 DUP2 MSTORE PUSH1 0x20 ADD PUSH1 0x0 KECCAK256 PUSH1 0x0 ADD PUSH1 0x0 SWAP1 SLOAD SWAP1 PUSH2 0x100 EXP SWAP1 DIV PUSH20 0xFFFFFFFFFFFFFFFFFFFFFFFFFFFFFFFFFFFFFFFF AND CALLER PUSH2 0x450 JUMP JUMPDEST PUSH2 0xA4B JUMPI PUSH1 0x40 MLOAD PUSH32 0x8C379A000000000000000000000000000000000000000000000000000000000 DUP2 MSTORE PUSH1 0x4 ADD PUSH2 0xA42 SWAP1 PUSH2 0x1B8C JUMP JUMPDEST PUSH1 0x40 MLOAD DUP1 SWAP2 SUB SWAP1 REVERT JUMPDEST DUP2 PUSH1 0x3 PUSH1 0x0 PUSH1 0x4 PUSH1 0x0 CALLER PUSH20 0xFFFFFFFFFFFFFFFFFFFFFFFFFFFFFFFFFFFFFFFF AND PUSH20 0xFFFFFFFFFFFFFFFFFFFFFFFFFFFFFFFFFFFFFFFF AND DUP2 MSTORE PUSH1 0x20 ADD SWAP1 DUP2 MSTORE PUSH1 0x20 ADD PUSH1 0x0 KECCAK256 PUSH1 0x0 ADD PUSH1 0x0 SWAP1 SLOAD SWAP1 PUSH2 0x100 EXP SWAP1 DIV PUSH20 0xFFFFFFFFFFFFFFFFFFFFFFFFFFFFFFFFFFFFFFFF AND PUSH20 0xFFFFFFFFFFFFFFFFFFFFFFFFFFFFFFFFFFFFFFFF AND PUSH20 0xFFFFFFFFFFFFFFFFFFFFFFFFFFFFFFFFFFFFFFFF AND DUP2 MSTORE PUSH1 0x20 ADD SWAP1 DUP2 MSTORE PUSH1 0x20 ADD PUSH1 0x0 KECCAK256 PUSH1 0x4 ADD SLOAD LT ISZERO PUSH2 0xB32 JUMPI PUSH1 0x40 MLOAD PUSH32 0x8C379A000000000000000000000000000000000000000000000000000000000 DUP2 MSTORE PUSH1 0x4 ADD PUSH2 0xB29 SWAP1 PUSH2 0x1C1E JUMP JUMPDEST PUSH1 0x40 MLOAD DUP1 SWAP2 SUB SWAP1 REVERT JUMPDEST DUP2 PUSH1 0x3 PUSH1 0x0 PUSH1 0x4 PUSH1 0x0 CALLER PUSH20 0xFFFFFFFFFFFFFFFFFFFFFFFFFFFFFFFFFFFFFFFF AND PUSH20 0xFFFFFFFFFFFFFFFFFFFFFFFFFFFFFFFFFFFFFFFF AND DUP2 MSTORE PUSH1 0x20 ADD SWAP1 DUP2 MSTORE PUSH1 0x20 ADD PUSH1 0x0 KECCAK256 PUSH1 0x0 ADD PUSH1 0x0 SWAP1 SLOAD SWAP1 PUSH2 0x100 EXP SWAP1 DIV PUSH20 0xFFFFFFFFFFFFFFFFFFFFFFFFFFFFFFFFFFFFFFFF AND PUSH20 0xFFFFFFFFFFFFFFFFFFFFFFFFFFFFFFFFFFFFFFFF AND PUSH20 0xFFFFFFFFFFFFFFFFFFFFFFFFFFFFFFFFFFFFFFFF AND DUP2 MSTORE PUSH1 0x20 ADD SWAP1 DUP2 MSTORE PUSH1 0x20 ADD PUSH1 0x0 KECCAK256 PUSH1 0x4 ADD PUSH1 0x0 DUP3 DUP3 SLOAD PUSH2 0xBE6 SWAP2 SWAP1 PUSH2 0x1C3E JUMP JUMPDEST SWAP3 POP POP DUP2 SWAP1 SSTORE POP PUSH1 0x0 DUP4 PUSH20 0xFFFFFFFFFFFFFFFFFFFFFFFFFFFFFFFFFFFFFFFF AND PUSH2 0x8FC DUP5 SWAP1 DUP2 ISZERO MUL SWAP1 PUSH1 0x40 MLOAD PUSH1 0x0 PUSH1 0x40 MLOAD DUP1 DUP4 SUB DUP2 DUP6 DUP9 DUP9 CALL SWAP4 POP POP POP POP SWAP1 POP DUP1 PUSH2 0xC66 JUMPI PUSH1 0x40 MLOAD PUSH32 0x8C379A000000000000000000000000000000000000000000000000000000000 DUP2 MSTORE PUSH1 0x4 ADD PUSH2 0xC5D SWAP1 PUSH2 0x1CE4 JUMP JUMPDEST PUSH1 0x40 MLOAD DUP1 SWAP2 SUB SWAP1 REVERT JUMPDEST DUP3 PUSH1 0x2 SLOAD PUSH2 0xC74 SWAP2 SWAP1 PUSH2 0x1C3E JUMP JUMPDEST PUSH1 0x2 DUP2 SWAP1 SSTORE POP PUSH1 0x3 PUSH1 0x0 PUSH1 0x4 PUSH1 0x0 CALLER PUSH20 0xFFFFFFFFFFFFFFFFFFFFFFFFFFFFFFFFFFFFFFFF AND PUSH20 0xFFFFFFFFFFFFFFFFFFFFFFFFFFFFFFFFFFFFFFFF AND DUP2 MSTORE PUSH1 0x20 ADD SWAP1 DUP2 MSTORE PUSH1 0x20 ADD PUSH1 0x0 KECCAK256 PUSH1 0x0 ADD PUSH1 0x0 SWAP1 SLOAD SWAP1 PUSH2 0x100 EXP SWAP1 DIV PUSH20 0xFFFFFFFFFFFFFFFFFFFFFFFFFFFFFFFFFFFFFFFF AND PUSH20 0xFFFFFFFFFFFFFFFFFFFFFFFFFFFFFFFFFFFFFFFF AND PUSH20 0xFFFFFFFFFFFFFFFFFFFFFFFFFFFFFFFFFFFFFFFF AND DUP2 MSTORE PUSH1 0x20 ADD SWAP1 DUP2 MSTORE PUSH1 0x20 ADD PUSH1 0x0 KECCAK256 PUSH1 0x1 ADD PUSH1 0x40 MLOAD DUP1 PUSH1 0x60 ADD PUSH1 0x40 MSTORE DUP1 DUP6 DUP2 MSTORE PUSH1 0x20 ADD TIMESTAMP DUP2 MSTORE PUSH1 0x20 ADD PUSH1 0x40 MLOAD DUP1 PUSH1 0x40 ADD PUSH1 0x40 MSTORE DUP1 PUSH1 0x7 DUP2 MSTORE PUSH1 0x20 ADD PUSH32 0x456E766961646F00000000000000000000000000000000000000000000000000 DUP2 MSTORE POP DUP2 MSTORE POP SWAP1 DUP1 PUSH1 0x1 DUP2 SLOAD ADD DUP1 DUP3 SSTORE DUP1 SWAP2 POP POP PUSH1 0x1 SWAP1 SUB SWAP1 PUSH1 0x0 MSTORE PUSH1 0x20 PUSH1 0x0 KECCAK256 SWAP1 PUSH1 0x3 MUL ADD PUSH1 0x0 SWAP1 SWAP2 SWAP1 SWAP2 SWAP1 SWAP2 POP PUSH1 0x0 DUP3 ADD MLOAD DUP2 PUSH1 0x0 ADD SSTORE PUSH1 0x20 DUP3 ADD MLOAD DUP2 PUSH1 0x1 ADD SSTORE PUSH1 0x40 DUP3 ADD MLOAD DUP2 PUSH1 0x2 ADD SWAP1 DUP2 PUSH2 0xDC0 SWAP2 SWAP1 PUSH2 0x1A48 JUMP JUMPDEST POP POP POP PUSH1 0x3 PUSH1 0x0 PUSH1 0x4 PUSH1 0x0 CALLER PUSH20 0xFFFFFFFFFFFFFFFFFFFFFFFFFFFFFFFFFFFFFFFF AND PUSH20 0xFFFFFFFFFFFFFFFFFFFFFFFFFFFFFFFFFFFFFFFF AND DUP2 MSTORE PUSH1 0x20 ADD SWAP1 DUP2 MSTORE PUSH1 0x20 ADD PUSH1 0x0 KECCAK256 PUSH1 0x0 ADD PUSH1 0x0 SWAP1 SLOAD SWAP1 PUSH2 0x100 EXP SWAP1 DIV PUSH20 0xFFFFFFFFFFFFFFFFFFFFFFFFFFFFFFFFFFFFFFFF AND PUSH20 0xFFFFFFFFFFFFFFFFFFFFFFFFFFFFFFFFFFFFFFFF AND PUSH20 0xFFFFFFFFFFFFFFFFFFFFFFFFFFFFFFFFFFFFFFFF AND DUP2 MSTORE PUSH1 0x20 ADD SWAP1 DUP2 MSTORE PUSH1 0x20 ADD PUSH1 0x0 KECCAK256 PUSH1 0x2 ADD PUSH1 0x40 MLOAD DUP1 PUSH1 0x60 ADD PUSH1 0x40 MSTORE DUP1 DUP6 DUP2 MSTORE PUSH1 0x20 ADD TIMESTAMP DUP2 MSTORE PUSH1 0x20 ADD PUSH1 0x40 MLOAD DUP1 PUSH1 0x40 ADD PUSH1 0x40 MSTORE DUP1 PUSH1 0x7 DUP2 MSTORE PUSH1 0x20 ADD PUSH32 0x456E766961646F00000000000000000000000000000000000000000000000000 DUP2 MSTORE POP DUP2 MSTORE POP SWAP1 DUP1 PUSH1 0x1 DUP2 SLOAD ADD DUP1 DUP3 SSTORE DUP1 SWAP2 POP POP PUSH1 0x1 SWAP1 SUB SWAP1 PUSH1 0x0 MSTORE PUSH1 0x20 PUSH1 0x0 KECCAK256 SWAP1 PUSH1 0x3 MUL ADD PUSH1 0x0 SWAP1 SWAP2 SWAP1 SWAP2 SWAP1 SWAP2 POP PUSH1 0x0 DUP3 ADD MLOAD DUP2 PUSH1 0x0 ADD SSTORE PUSH1 0x20 DUP3 ADD MLOAD DUP2 PUSH1 0x1 ADD SSTORE PUSH1 0x40 DUP3 ADD MLOAD DUP2 PUSH1 0x2 ADD SWAP1 DUP2 PUSH2 0xF09 SWAP2 SWAP1 PUSH2 0x1A48 JUMP JUMPDEST POP POP POP PUSH1 0x1 SWAP2 POP POP PUSH2 0x1279 JUMP JUMPDEST PUSH1 0x1 ISZERO ISZERO PUSH1 0x5 PUSH1 0x0 SWAP1 SLOAD SWAP1 PUSH2 0x100 EXP SWAP1 DIV PUSH1 0xFF AND ISZERO ISZERO SUB PUSH2 0x1274 JUMPI DUP2 PUSH1 0x3 PUSH1 0x0 CALLER PUSH20 0xFFFFFFFFFFFFFFFFFFFFFFFFFFFFFFFFFFFFFFFF AND PUSH20 0xFFFFFFFFFFFFFFFFFFFFFFFFFFFFFFFFFFFFFFFF AND DUP2 MSTORE PUSH1 0x20 ADD SWAP1 DUP2 MSTORE PUSH1 0x20 ADD PUSH1 0x0 KECCAK256 PUSH1 0x4 ADD SLOAD LT ISZERO PUSH2 0xFB6 JUMPI PUSH1 0x40 MLOAD PUSH32 0x8C379A000000000000000000000000000000000000000000000000000000000 DUP2 MSTORE PUSH1 0x4 ADD PUSH2 0xFAD SWAP1 PUSH2 0x1C1E JUMP JUMPDEST PUSH1 0x40 MLOAD DUP1 SWAP2 SUB SWAP1 REVERT JUMPDEST DUP2 PUSH1 0x3 PUSH1 0x0 CALLER PUSH20 0xFFFFFFFFFFFFFFFFFFFFFFFFFFFFFFFFFFFFFFFF AND PUSH20 0xFFFFFFFFFFFFFFFFFFFFFFFFFFFFFFFFFFFFFFFF AND DUP2 MSTORE PUSH1 0x20 ADD SWAP1 DUP2 MSTORE PUSH1 0x20 ADD PUSH1 0x0 KECCAK256 PUSH1 0x4 ADD PUSH1 0x0 DUP3 DUP3 SLOAD PUSH2 0x1008 SWAP2 SWAP1 PUSH2 0x1C3E JUMP JUMPDEST SWAP3 POP POP DUP2 SWAP1 SSTORE POP PUSH1 0x0 DUP4 PUSH20 0xFFFFFFFFFFFFFFFFFFFFFFFFFFFFFFFFFFFFFFFF AND PUSH2 0x8FC DUP5 SWAP1 DUP2 ISZERO MUL SWAP1 PUSH1 0x40 MLOAD PUSH1 0x0 PUSH1 0x40 MLOAD DUP1 DUP4 SUB DUP2 DUP6 DUP9 DUP9 CALL SWAP4 POP POP POP POP SWAP1 POP DUP1 PUSH2 0x1088 JUMPI PUSH1 0x40 MLOAD PUSH32 0x8C379A000000000000000000000000000000000000000000000000000000000 DUP2 MSTORE PUSH1 0x4 ADD PUSH2 0x107F SWAP1 PUSH2 0x1CE4 JUMP JUMPDEST PUSH1 0x40 MLOAD DUP1 SWAP2 SUB SWAP1 REVERT JUMPDEST DUP3 PUSH1 0x2 SLOAD PUSH2 0x1096 SWAP2 SWAP1 PUSH2 0x1C3E JUMP JUMPDEST PUSH1 0x2 DUP2 SWAP1 SSTORE POP PUSH1 0x3 PUSH1 0x0 CALLER PUSH20 0xFFFFFFFFFFFFFFFFFFFFFFFFFFFFFFFFFFFFFFFF AND PUSH20 0xFFFFFFFFFFFFFFFFFFFFFFFFFFFFFFFFFFFFFFFF AND DUP2 MSTORE PUSH1 0x20 ADD SWAP1 DUP2 MSTORE PUSH1 0x20 ADD PUSH1 0x0 KECCAK256 PUSH1 0x1 ADD PUSH1 0x40 MLOAD DUP1 PUSH1 0x60 ADD PUSH1 0x40 MSTORE DUP1 DUP6 DUP2 MSTORE PUSH1 0x20 ADD TIMESTAMP DUP2 MSTORE PUSH1 0x20 ADD PUSH1 0x40 MLOAD DUP1 PUSH1 0x40 ADD PUSH1 0x40 MSTORE DUP1 PUSH1 0x7 DUP2 MSTORE PUSH1 0x20 ADD PUSH32 0x456E766961646F00000000000000000000000000000000000000000000000000 DUP2 MSTORE POP DUP2 MSTORE POP SWAP1 DUP1 PUSH1 0x1 DUP2 SLOAD ADD DUP1 DUP3 SSTORE DUP1 SWAP2 POP POP PUSH1 0x1 SWAP1 SUB SWAP1 PUSH1 0x0 MSTORE PUSH1 0x20 PUSH1 0x0 KECCAK256 SWAP1 PUSH1 0x3 MUL ADD PUSH1 0x0 SWAP1 SWAP2 SWAP1 SWAP2 SWAP1 SWAP2 POP PUSH1 0x0 DUP3 ADD MLOAD DUP2 PUSH1 0x0 ADD SSTORE PUSH1 0x20 DUP3 ADD MLOAD DUP2 PUSH1 0x1 ADD SSTORE PUSH1 0x40 DUP3 ADD MLOAD DUP2 PUSH1 0x2 ADD SWAP1 DUP2 PUSH2 0x1180 SWAP2 SWAP1 PUSH2 0x1A48 JUMP JUMPDEST POP POP POP PUSH1 0x3 PUSH1 0x0 CALLER PUSH20 0xFFFFFFFFFFFFFFFFFFFFFFFFFFFFFFFFFFFFFFFF AND PUSH20 0xFFFFFFFFFFFFFFFFFFFFFFFFFFFFFFFFFFFFFFFF AND DUP2 MSTORE PUSH1 0x20 ADD SWAP1 DUP2 MSTORE PUSH1 0x20 ADD PUSH1 0x0 KECCAK256 PUSH1 0x2 ADD PUSH1 0x40 MLOAD DUP1 PUSH1 0x60 ADD PUSH1 0x40 MSTORE DUP1 DUP6 DUP2 MSTORE PUSH1 0x20 ADD TIMESTAMP DUP2 MSTORE PUSH1 0x20 ADD PUSH1 0x40 MLOAD DUP1 PUSH1 0x40 ADD PUSH1 0x40 MSTORE DUP1 PUSH1 0x7 DUP2 MSTORE PUSH1 0x20 ADD PUSH32 0x456E766961646F00000000000000000000000000000000000000000000000000 DUP2 MSTORE POP DUP2 MSTORE POP SWAP1 DUP1 PUSH1 0x1 DUP2 SLOAD ADD DUP1 DUP3 SSTORE DUP1 SWAP2 POP POP PUSH1 0x1 SWAP1 SUB SWAP1 PUSH1 0x0 MSTORE PUSH1 0x20 PUSH1 0x0 KECCAK256 SWAP1 PUSH1 0x3 MUL ADD PUSH1 0x0 SWAP1 SWAP2 SWAP1 SWAP2 SWAP1 SWAP2 POP PUSH1 0x0 DUP3 ADD MLOAD DUP2 PUSH1 0x0 ADD SSTORE PUSH1 0x20 DUP3 ADD MLOAD DUP2 PUSH1 0x1 ADD SSTORE PUSH1 0x40 DUP3 ADD MLOAD DUP2 PUSH1 0x2 ADD SWAP1 DUP2 PUSH2 0x1267 SWAP2 SWAP1 PUSH2 0x1A48 JUMP JUMPDEST POP POP POP PUSH1 0x1 SWAP2 POP POP PUSH2 0x1279 JUMP JUMPDEST PUSH1 0x0 SWAP1 POP JUMPDEST SWAP3 SWAP2 POP POP JUMP JUMPDEST PUSH1 0x0 DUP1 REVERT JUMPDEST PUSH1 0x0 PUSH20 0xFFFFFFFFFFFFFFFFFFFFFFFFFFFFFFFFFFFFFFFF DUP3 AND SWAP1 POP SWAP2 SWAP1 POP JUMP JUMPDEST PUSH1 0x0 PUSH2 0x12AF DUP3 PUSH2 0x1284 JUMP JUMPDEST SWAP1 POP SWAP2 SWAP1 POP JUMP JUMPDEST PUSH2 0x12BF DUP2 PUSH2 0x12A4 JUMP JUMPDEST DUP2 EQ PUSH2 0x12CA JUMPI PUSH1 0x0 DUP1 REVERT JUMPDEST POP JUMP JUMPDEST PUSH1 0x0 DUP2 CALLDATALOAD SWAP1 POP PUSH2 0x12DC DUP2 PUSH2 0x12B6 JUMP JUMPDEST SWAP3 SWAP2 POP POP JUMP JUMPDEST PUSH1 0x0 DUP1 PUSH1 0x40 DUP4 DUP6 SUB SLT ISZERO PUSH2 0x12F9 JUMPI PUSH2 0x12F8 PUSH2 0x127F JUMP JUMPDEST JUMPDEST PUSH1 0x0 PUSH2 0x1307 DUP6 DUP3 DUP7 ADD PUSH2 0x12CD JUMP JUMPDEST SWAP3 POP POP PUSH1 0x20 PUSH2 0x1318 DUP6 DUP3 DUP7 ADD PUSH2 0x12CD JUMP JUMPDEST SWAP2 POP POP SWAP3 POP SWAP3 SWAP1 POP JUMP JUMPDEST PUSH1 0x0 DUP2 ISZERO ISZERO SWAP1 POP SWAP2 SWAP1 POP JUMP JUMPDEST PUSH2 0x1337 DUP2 PUSH2 0x1322 JUMP JUMPDEST DUP3 MSTORE POP POP JUMP JUMPDEST PUSH1 0x0 PUSH1 0x20 DUP3 ADD SWAP1 POP PUSH2 0x1352 PUSH1 0x0 DUP4 ADD DUP5 PUSH2 0x132E JUMP JUMPDEST SWAP3 SWAP2 POP POP JUMP JUMPDEST PUSH1 0x0 DUP2 SWAP1 POP SWAP2 SWAP1 POP JUMP JUMPDEST PUSH2 0x136B DUP2 PUSH2 0x1358 JUMP JUMPDEST DUP3 MSTORE POP POP JUMP JUMPDEST PUSH1 0x0 PUSH1 0x20 DUP3 ADD SWAP1 POP PUSH2 0x1386 PUSH1 0x0 DUP4 ADD DUP5 PUSH2 0x1362 JUMP JUMPDEST SWAP3 SWAP2 POP POP JUMP JUMPDEST PUSH1 0x0 DUP2 MLOAD SWAP1 POP SWAP2 SWAP1 POP JUMP JUMPDEST PUSH1 0x0 DUP3 DUP3 MSTORE PUSH1 0x20 DUP3 ADD SWAP1 POP SWAP3 SWAP2 POP POP JUMP JUMPDEST PUSH1 0x0 DUP2 SWAP1 POP PUSH1 0x20 DUP3 ADD SWAP1 POP SWAP2 SWAP1 POP JUMP JUMPDEST PUSH2 0x13C1 DUP2 PUSH2 0x1358 JUMP JUMPDEST DUP3 MSTORE POP POP JUMP JUMPDEST PUSH1 0x0 DUP2 MLOAD SWAP1 POP SWAP2 SWAP1 POP JUMP JUMPDEST PUSH1 0x0 DUP3 DUP3 MSTORE PUSH1 0x20 DUP3 ADD SWAP1 POP SWAP3 SWAP2 POP POP JUMP JUMPDEST PUSH1 0x0 JUMPDEST DUP4 DUP2 LT ISZERO PUSH2 0x1401 JUMPI DUP1 DUP3 ADD MLOAD DUP2 DUP5 ADD MSTORE PUSH1 0x20 DUP2 ADD SWAP1 POP PUSH2 0x13E6 JUMP JUMPDEST PUSH1 0x0 DUP5 DUP5 ADD MSTORE POP POP POP POP JUMP JUMPDEST PUSH1 0x0 PUSH1 0x1F NOT PUSH1 0x1F DUP4 ADD AND SWAP1 POP SWAP2 SWAP1 POP JUMP JUMPDEST PUSH1 0x0 PUSH2 0x1429 DUP3 PUSH2 0x13C7 JUMP JUMPDEST PUSH2 0x1433 DUP2 DUP6 PUSH2 0x13D2 JUMP JUMPDEST SWAP4 POP PUSH2 0x1443 DUP2 DUP6 PUSH1 0x20 DUP7 ADD PUSH2 0x13E3 JUMP JUMPDEST PUSH2 0x144C DUP2 PUSH2 0x140D JUMP JUMPDEST DUP5 ADD SWAP2 POP POP SWAP3 SWAP2 POP POP JUMP JUMPDEST PUSH1 0x0 PUSH1 0x60 DUP4 ADD PUSH1 0x0 DUP4 ADD MLOAD PUSH2 0x146F PUSH1 0x0 DUP7 ADD DUP3 PUSH2 0x13B8 JUMP JUMPDEST POP PUSH1 0x20 DUP4 ADD MLOAD PUSH2 0x1482 PUSH1 0x20 DUP7 ADD DUP3 PUSH2 0x13B8 JUMP JUMPDEST POP PUSH1 0x40 DUP4 ADD MLOAD DUP5 DUP3 SUB PUSH1 0x40 DUP7 ADD MSTORE PUSH2 0x149A DUP3 DUP3 PUSH2 0x141E JUMP JUMPDEST SWAP2 POP POP DUP1 SWAP2 POP POP SWAP3 SWAP2 POP POP JUMP JUMPDEST PUSH1 0x0 PUSH2 0x14B3 DUP4 DUP4 PUSH2 0x1457 JUMP JUMPDEST SWAP1 POP SWAP3 SWAP2 POP POP JUMP JUMPDEST PUSH1 0x0 PUSH1 0x20 DUP3 ADD SWAP1 POP SWAP2 SWAP1 POP JUMP JUMPDEST PUSH1 0x0 PUSH2 0x14D3 DUP3 PUSH2 0x138C JUMP JUMPDEST PUSH2 0x14DD DUP2 DUP6 PUSH2 0x1397 JUMP JUMPDEST SWAP4 POP DUP4 PUSH1 0x20 DUP3 MUL DUP6 ADD PUSH2 0x14EF DUP6 PUSH2 0x13A8 JUMP JUMPDEST DUP1 PUSH1 0x0 JUMPDEST DUP6 DUP2 LT ISZERO PUSH2 0x152B JUMPI DUP5 DUP5 SUB DUP10 MSTORE DUP2 MLOAD PUSH2 0x150C DUP6 DUP3 PUSH2 0x14A7 JUMP JUMPDEST SWAP5 POP PUSH2 0x1517 DUP4 PUSH2 0x14BB JUMP JUMPDEST SWAP3 POP PUSH1 0x20 DUP11 ADD SWAP10 POP POP PUSH1 0x1 DUP2 ADD SWAP1 POP PUSH2 0x14F3 JUMP JUMPDEST POP DUP3 SWAP8 POP DUP8 SWAP6 POP POP POP POP POP POP SWAP3 SWAP2 POP POP JUMP JUMPDEST PUSH1 0x0 PUSH1 0x20 DUP3 ADD SWAP1 POP DUP2 DUP2 SUB PUSH1 0x0 DUP4 ADD MSTORE PUSH2 0x1557 DUP2 DUP5 PUSH2 0x14C8 JUMP JUMPDEST SWAP1 POP SWAP3 SWAP2 POP POP JUMP JUMPDEST PUSH1 0x0 PUSH2 0x156A DUP3 PUSH2 0x1284 JUMP JUMPDEST SWAP1 POP SWAP2 SWAP1 POP JUMP JUMPDEST PUSH2 0x157A DUP2 PUSH2 0x155F JUMP JUMPDEST DUP2 EQ PUSH2 0x1585 JUMPI PUSH1 0x0 DUP1 REVERT JUMPDEST POP JUMP JUMPDEST PUSH1 0x0 DUP2 CALLDATALOAD SWAP1 POP PUSH2 0x1597 DUP2 PUSH2 0x1571 JUMP JUMPDEST SWAP3 SWAP2 POP POP JUMP JUMPDEST PUSH2 0x15A6 DUP2 PUSH2 0x1358 JUMP JUMPDEST DUP2 EQ PUSH2 0x15B1 JUMPI PUSH1 0x0 DUP1 REVERT JUMPDEST POP JUMP JUMPDEST PUSH1 0x0 DUP2 CALLDATALOAD SWAP1 POP PUSH2 0x15C3 DUP2 PUSH2 0x159D JUMP JUMPDEST SWAP3 SWAP2 POP POP JUMP JUMPDEST PUSH1 0x0 DUP1 PUSH1 0x40 DUP4 DUP6 SUB SLT ISZERO PUSH2 0x15E0 JUMPI PUSH2 0x15DF PUSH2 0x127F JUMP JUMPDEST JUMPDEST PUSH1 0x0 PUSH2 0x15EE DUP6 DUP3 DUP7 ADD PUSH2 0x1588 JUMP JUMPDEST SWAP3 POP POP PUSH1 0x20 PUSH2 0x15FF DUP6 DUP3 DUP7 ADD PUSH2 0x15B4 JUMP JUMPDEST SWAP2 POP POP SWAP3 POP SWAP3 SWAP1 POP JUMP JUMPDEST PUSH1 0x0 DUP3 DUP3 MSTORE PUSH1 0x20 DUP3 ADD SWAP1 POP SWAP3 SWAP2 POP POP JUMP JUMPDEST PUSH32 0x4A757374207468652062616E6B6572732063616E206164642075736572730000 PUSH1 0x0 DUP3 ADD MSTORE POP JUMP JUMPDEST PUSH1 0x0 PUSH2 0x1650 PUSH1 0x1E DUP4 PUSH2 0x1609 JUMP JUMPDEST SWAP2 POP PUSH2 0x165B DUP3 PUSH2 0x161A JUMP JUMPDEST PUSH1 0x20 DUP3 ADD SWAP1 POP SWAP2 SWAP1 POP JUMP JUMPDEST PUSH1 0x0 PUSH1 0x20 DUP3 ADD SWAP1 POP DUP2 DUP2 SUB PUSH1 0x0 DUP4 ADD MSTORE PUSH2 0x167F DUP2 PUSH2 0x1643 JUMP JUMPDEST SWAP1 POP SWAP2 SWAP1 POP JUMP JUMPDEST PUSH32 0x796120656C207573756172696F206573746120636F6D6F206175746F72697A61 PUSH1 0x0 DUP3 ADD MSTORE PUSH32 0x646F000000000000000000000000000000000000000000000000000000000000 PUSH1 0x20 DUP3 ADD MSTORE POP JUMP JUMPDEST PUSH1 0x0 PUSH2 0x16E2 PUSH1 0x22 DUP4 PUSH2 0x1609 JUMP JUMPDEST SWAP2 POP PUSH2 0x16ED DUP3 PUSH2 0x1686 JUMP JUMPDEST PUSH1 0x40 DUP3 ADD SWAP1 POP SWAP2 SWAP1 POP JUMP JUMPDEST PUSH1 0x0 PUSH1 0x20 DUP3 ADD SWAP1 POP DUP2 DUP2 SUB PUSH1 0x0 DUP4 ADD MSTORE PUSH2 0x1711 DUP2 PUSH2 0x16D5 JUMP JUMPDEST SWAP1 POP SWAP2 SWAP1 POP JUMP JUMPDEST PUSH32 0x536F6C6F20656C206F776E65722064656C2062616E636F207075656465207361 PUSH1 0x0 DUP3 ADD MSTORE PUSH32 0x626572206573746120696E666F726D6163696F6E000000000000000000000000 PUSH1 0x20 DUP3 ADD MSTORE POP JUMP JUMPDEST PUSH1 0x0 PUSH2 0x1774 PUSH1 0x34 DUP4 PUSH2 0x1609 JUMP JUMPDEST SWAP2 POP PUSH2 0x177F DUP3 PUSH2 0x1718 JUMP JUMPDEST PUSH1 0x40 DUP3 ADD SWAP1 POP SWAP2 SWAP1 POP JUMP JUMPDEST PUSH1 0x0 PUSH1 0x20 DUP3 ADD SWAP1 POP DUP2 DUP2 SUB PUSH1 0x0 DUP4 ADD MSTORE PUSH2 0x17A3 DUP2 PUSH2 0x1767 JUMP JUMPDEST SWAP1 POP SWAP2 SWAP1 POP JUMP JUMPDEST PUSH32 0x4E487B7100000000000000000000000000000000000000000000000000000000 PUSH1 0x0 MSTORE PUSH1 0x22 PUSH1 0x4 MSTORE PUSH1 0x24 PUSH1 0x0 REVERT JUMPDEST PUSH1 0x0 PUSH1 0x2 DUP3 DIV SWAP1 POP PUSH1 0x1 DUP3 AND DUP1 PUSH2 0x17F1 JUMPI PUSH1 0x7F DUP3 AND SWAP2 POP JUMPDEST PUSH1 0x20 DUP3 LT DUP2 SUB PUSH2 0x1804 JUMPI PUSH2 0x1803 PUSH2 0x17AA JUMP JUMPDEST JUMPDEST POP SWAP2 SWAP1 POP JUMP JUMPDEST PUSH32 0x4E487B7100000000000000000000000000000000000000000000000000000000 PUSH1 0x0 MSTORE PUSH1 0x11 PUSH1 0x4 MSTORE PUSH1 0x24 PUSH1 0x0 REVERT JUMPDEST PUSH1 0x0 PUSH2 0x1844 DUP3 PUSH2 0x1358 JUMP JUMPDEST SWAP2 POP PUSH2 0x184F DUP4 PUSH2 0x1358 JUMP JUMPDEST SWAP3 POP DUP3 DUP3 ADD SWAP1 POP DUP1 DUP3 GT ISZERO PUSH2 0x1867 JUMPI PUSH2 0x1866 PUSH2 0x180A JUMP JUMPDEST JUMPDEST SWAP3 SWAP2 POP POP JUMP JUMPDEST PUSH32 0x4E487B7100000000000000000000000000000000000000000000000000000000 PUSH1 0x0 MSTORE PUSH1 0x41 PUSH1 0x4 MSTORE PUSH1 0x24 PUSH1 0x0 REVERT JUMPDEST PUSH1 0x0 DUP2 SWAP1 POP DUP2 PUSH1 0x0 MSTORE PUSH1 0x20 PUSH1 0x0 KECCAK256 SWAP1 POP SWAP2 SWAP1 POP JUMP JUMPDEST PUSH1 0x0 PUSH1 0x20 PUSH1 0x1F DUP4 ADD DIV SWAP1 POP SWAP2 SWAP1 POP JUMP JUMPDEST PUSH1 0x0 DUP3 DUP3 SHL SWAP1 POP SWAP3 SWAP2 POP POP JUMP JUMPDEST PUSH1 0x0 PUSH1 0x8 DUP4 MUL PUSH2 0x18FE PUSH32 0xFFFFFFFFFFFFFFFFFFFFFFFFFFFFFFFFFFFFFFFFFFFFFFFFFFFFFFFFFFFFFFFF DUP3 PUSH2 0x18C1 JUMP JUMPDEST PUSH2 0x1908 DUP7 DUP4 PUSH2 0x18C1 JUMP JUMPDEST SWAP6 POP DUP1 NOT DUP5 AND SWAP4 POP DUP1 DUP7 AND DUP5 OR SWAP3 POP POP POP SWAP4 SWAP3 POP POP POP JUMP JUMPDEST PUSH1 0x0 DUP2 SWAP1 POP SWAP2 SWAP1 POP JUMP JUMPDEST PUSH1 0x0 PUSH2 0x1945 PUSH2 0x1940 PUSH2 0x193B DUP5 PUSH2 0x1358 JUMP JUMPDEST PUSH2 0x1920 JUMP JUMPDEST PUSH2 0x1358 JUMP JUMPDEST SWAP1 POP SWAP2 SWAP1 POP JUMP JUMPDEST PUSH1 0x0 DUP2 SWAP1 POP SWAP2 SWAP1 POP JUMP JUMPDEST PUSH2 0x195F DUP4 PUSH2 0x192A JUMP JUMPDEST PUSH2 0x1973 PUSH2 0x196B DUP3 PUSH2 0x194C JUMP JUMPDEST DUP5 DUP5 SLOAD PUSH2 0x18CE JUMP JUMPDEST DUP3 SSTORE POP POP POP POP JUMP JUMPDEST PUSH1 0x0 SWAP1 JUMP JUMPDEST PUSH2 0x1988 PUSH2 0x197B JUMP JUMPDEST PUSH2 0x1993 DUP2 DUP5 DUP5 PUSH2 0x1956 JUMP JUMPDEST POP POP POP JUMP JUMPDEST JUMPDEST DUP2 DUP2 LT ISZERO PUSH2 0x19B7 JUMPI PUSH2 0x19AC PUSH1 0x0 DUP3 PUSH2 0x1980 JUMP JUMPDEST PUSH1 0x1 DUP2 ADD SWAP1 POP PUSH2 0x1999 JUMP JUMPDEST POP POP JUMP JUMPDEST PUSH1 0x1F DUP3 GT ISZERO PUSH2 0x19FC JUMPI PUSH2 0x19CD DUP2 PUSH2 0x189C JUMP JUMPDEST PUSH2 0x19D6 DUP5 PUSH2 0x18B1 JUMP JUMPDEST DUP2 ADD PUSH1 0x20 DUP6 LT ISZERO PUSH2 0x19E5 JUMPI DUP2 SWAP1 POP JUMPDEST PUSH2 0x19F9 PUSH2 0x19F1 DUP6 PUSH2 0x18B1 JUMP JUMPDEST DUP4 ADD DUP3 PUSH2 0x1998 JUMP JUMPDEST POP POP JUMPDEST POP POP POP JUMP JUMPDEST PUSH1 0x0 DUP3 DUP3 SHR SWAP1 POP SWAP3 SWAP2 POP POP JUMP JUMPDEST PUSH1 0x0 PUSH2 0x1A1F PUSH1 0x0 NOT DUP5 PUSH1 0x8 MUL PUSH2 0x1A01 JUMP JUMPDEST NOT DUP1 DUP4 AND SWAP2 POP POP SWAP3 SWAP2 POP POP JUMP JUMPDEST PUSH1 0x0 PUSH2 0x1A38 DUP4 DUP4 PUSH2 0x1A0E JUMP JUMPDEST SWAP2 POP DUP3 PUSH1 0x2 MUL DUP3 OR SWAP1 POP SWAP3 SWAP2 POP POP JUMP JUMPDEST PUSH2 0x1A51 DUP3 PUSH2 0x13C7 JUMP JUMPDEST PUSH8 0xFFFFFFFFFFFFFFFF DUP2 GT ISZERO PUSH2 0x1A6A JUMPI PUSH2 0x1A69 PUSH2 0x186D JUMP JUMPDEST JUMPDEST PUSH2 0x1A74 DUP3 SLOAD PUSH2 0x17D9 JUMP JUMPDEST PUSH2 0x1A7F DUP3 DUP3 DUP6 PUSH2 0x19BB JUMP JUMPDEST PUSH1 0x0 PUSH1 0x20 SWAP1 POP PUSH1 0x1F DUP4 GT PUSH1 0x1 DUP2 EQ PUSH2 0x1AB2 JUMPI PUSH1 0x0 DUP5 ISZERO PUSH2 0x1AA0 JUMPI DUP3 DUP8 ADD MLOAD SWAP1 POP JUMPDEST PUSH2 0x1AAA DUP6 DUP3 PUSH2 0x1A2C JUMP JUMPDEST DUP7 SSTORE POP PUSH2 0x1B12 JUMP JUMPDEST PUSH1 0x1F NOT DUP5 AND PUSH2 0x1AC0 DUP7 PUSH2 0x189C JUMP JUMPDEST PUSH1 0x0 JUMPDEST DUP3 DUP2 LT ISZERO PUSH2 0x1AE8 JUMPI DUP5 DUP10 ADD MLOAD DUP3 SSTORE PUSH1 0x1 DUP3 ADD SWAP2 POP PUSH1 0x20 DUP6 ADD SWAP5 POP PUSH1 0x20 DUP2 ADD SWAP1 POP PUSH2 0x1AC3 JUMP JUMPDEST DUP7 DUP4 LT ISZERO PUSH2 0x1B05 JUMPI DUP5 DUP10 ADD MLOAD PUSH2 0x1B01 PUSH1 0x1F DUP10 AND DUP3 PUSH2 0x1A0E JUMP JUMPDEST DUP4 SSTORE POP JUMPDEST PUSH1 0x1 PUSH1 0x2 DUP9 MUL ADD DUP9 SSTORE POP POP POP JUMPDEST POP POP POP POP POP POP JUMP JUMPDEST PUSH32 0x4E6F206573746173206175746F72697A61646F2070617261207265616C697A61 PUSH1 0x0 DUP3 ADD MSTORE PUSH32 0x72206C61206F7065726163696F6E000000000000000000000000000000000000 PUSH1 0x20 DUP3 ADD MSTORE POP JUMP JUMPDEST PUSH1 0x0 PUSH2 0x1B76 PUSH1 0x2E DUP4 PUSH2 0x1609 JUMP JUMPDEST SWAP2 POP PUSH2 0x1B81 DUP3 PUSH2 0x1B1A JUMP JUMPDEST PUSH1 0x40 DUP3 ADD SWAP1 POP SWAP2 SWAP1 POP JUMP JUMPDEST PUSH1 0x0 PUSH1 0x20 DUP3 ADD SWAP1 POP DUP2 DUP2 SUB PUSH1 0x0 DUP4 ADD MSTORE PUSH2 0x1BA5 DUP2 PUSH2 0x1B69 JUMP JUMPDEST SWAP1 POP SWAP2 SWAP1 POP JUMP JUMPDEST PUSH32 0x6E6F206861792064696E65726F20737566696369656E74652070617261207265 PUSH1 0x0 DUP3 ADD MSTORE PUSH32 0x616C697A6172206C61207472616E73666572656E636961000000000000000000 PUSH1 0x20 DUP3 ADD MSTORE POP JUMP JUMPDEST PUSH1 0x0 PUSH2 0x1C08 PUSH1 0x37 DUP4 PUSH2 0x1609 JUMP JUMPDEST SWAP2 POP PUSH2 0x1C13 DUP3 PUSH2 0x1BAC JUMP JUMPDEST PUSH1 0x40 DUP3 ADD SWAP1 POP SWAP2 SWAP1 POP JUMP JUMPDEST PUSH1 0x0 PUSH1 0x20 DUP3 ADD SWAP1 POP DUP2 DUP2 SUB PUSH1 0x0 DUP4 ADD MSTORE PUSH2 0x1C37 DUP2 PUSH2 0x1BFB JUMP JUMPDEST SWAP1 POP SWAP2 SWAP1 POP JUMP JUMPDEST PUSH1 0x0 PUSH2 0x1C49 DUP3 PUSH2 0x1358 JUMP JUMPDEST SWAP2 POP PUSH2 0x1C54 DUP4 PUSH2 0x1358 JUMP JUMPDEST SWAP3 POP DUP3 DUP3 SUB SWAP1 POP DUP2 DUP2 GT ISZERO PUSH2 0x1C6C JUMPI PUSH2 0x1C6B PUSH2 0x180A JUMP JUMPDEST JUMPDEST SWAP3 SWAP2 POP POP JUMP JUMPDEST PUSH32 0x5468652062616C616E636520636F756C64206E6F742062652077697468647261 PUSH1 0x0 DUP3 ADD MSTORE PUSH32 0x776E000000000000000000000000000000000000000000000000000000000000 PUSH1 0x20 DUP3 ADD MSTORE POP JUMP JUMPDEST PUSH1 0x0 PUSH2 0x1CCE PUSH1 0x22 DUP4 PUSH2 0x1609 JUMP JUMPDEST SWAP2 POP PUSH2 0x1CD9 DUP3 PUSH2 0x1C72 JUMP JUMPDEST PUSH1 0x40 DUP3 ADD SWAP1 POP SWAP2 SWAP1 POP JUMP JUMPDEST PUSH1 0x0 PUSH1 0x20 DUP3 ADD SWAP1 POP DUP2 DUP2 SUB PUSH1 0x0 DUP4 ADD MSTORE PUSH2 0x1CFD DUP2 PUSH2 0x1CC1 JUMP JUMPDEST SWAP1 POP SWAP2 SWAP1 POP JUMP INVALID LOG2 PUSH5 0x6970667358 0x22 SLT KECCAK256 SSTORE 0x4B 0xA5 SGT 0xF7 0xC 0xC2 PUSH4 0x2D854009 CODESIZE LOG0 0x4C CALLER 0xEF 0xB7 0x4E GT 0xE8 0xE8 SWAP4 DUP4 0xD2 DUP13 0xE9 0x25 0xCB DUP5 0xEA 0x25 PUSH5 0x736F6C6343 STOP ADDMOD SGT STOP CALLER "
				},
				"gasEstimates": {
					"creation": {
						"codeDepositCost": "1496400",
						"executionCost": "55108",
						"totalCost": "1551508"
					},
					"external": {
						"activeCustomer()": "24478",
						"addAuthorizedUser(address,address)": "infinite",
						"deactiveCustomer()": "24477",
						"deposit()": "infinite",
						"getBankBalance()": "2669",
						"getCustomerBalance()": "2532",
						"getTransactionHistoryCustomer()": "infinite",
						"isAuthorizedUser(address,address)": "infinite",
						"withdraw(address,uint256)": "infinite"
					}
				},
				"methodIdentifiers": {
					"activeCustomer()": "9cb56025",
					"addAuthorizedUser(address,address)": "3d5b8375",
					"deactiveCustomer()": "dd646cc4",
					"deposit()": "d0e30db0",
					"getBankBalance()": "7b83b50b",
					"getCustomerBalance()": "a853409a",
					"getTransactionHistoryCustomer()": "c306d4fb",
					"isAuthorizedUser(address,address)": "52ffcb4b",
					"withdraw(address,uint256)": "f3fef3a3"
				}
			},
			"storageLayout": {
				"storage": [
					{
						"astId": 3,
						"contract": "Bank_Project.sol:Bank",
						"label": "banker",
						"offset": 0,
						"slot": "0",
						"type": "t_address"
					},
					{
						"astId": 38,
						"contract": "Bank_Project.sol:Bank",
						"label": "transactions",
						"offset": 0,
						"slot": "1",
						"type": "t_array(t_struct(Transaction)10_storage)dyn_storage"
					},
					{
						"astId": 40,
						"contract": "Bank_Project.sol:Bank",
						"label": "totalBalance",
						"offset": 0,
						"slot": "2",
						"type": "t_uint256"
					},
					{
						"astId": 45,
						"contract": "Bank_Project.sol:Bank",
						"label": "bankLedger",
						"offset": 0,
						"slot": "3",
						"type": "t_mapping(t_address,t_struct(Customer)29_storage)"
					},
					{
						"astId": 50,
						"contract": "Bank_Project.sol:Bank",
						"label": "authorizedUsers",
						"offset": 0,
						"slot": "4",
						"type": "t_mapping(t_address,t_struct(autorizados)34_storage)"
					},
					{
						"astId": 53,
						"contract": "Bank_Project.sol:Bank",
						"label": "customerState",
						"offset": 0,
						"slot": "5",
						"type": "t_bool"
					}
				],
				"types": {
					"t_address": {
						"encoding": "inplace",
						"label": "address",
						"numberOfBytes": "20"
					},
					"t_array(t_struct(Transaction)10_storage)dyn_storage": {
						"base": "t_struct(Transaction)10_storage",
						"encoding": "dynamic_array",
						"label": "struct Bank.Transaction[]",
						"numberOfBytes": "32"
					},
					"t_bool": {
						"encoding": "inplace",
						"label": "bool",
						"numberOfBytes": "1"
					},
					"t_mapping(t_address,t_bool)": {
						"encoding": "mapping",
						"key": "t_address",
						"label": "mapping(address => bool)",
						"numberOfBytes": "32",
						"value": "t_bool"
					},
					"t_mapping(t_address,t_struct(Customer)29_storage)": {
						"encoding": "mapping",
						"key": "t_address",
						"label": "mapping(address => struct Bank.Customer)",
						"numberOfBytes": "32",
						"value": "t_struct(Customer)29_storage"
					},
					"t_mapping(t_address,t_struct(autorizados)34_storage)": {
						"encoding": "mapping",
						"key": "t_address",
						"label": "mapping(address => struct Bank.autorizados)",
						"numberOfBytes": "32",
						"value": "t_struct(autorizados)34_storage"
					},
					"t_string_storage": {
						"encoding": "bytes",
						"label": "string",
						"numberOfBytes": "32"
					},
					"t_struct(Customer)29_storage": {
						"encoding": "inplace",
						"label": "struct Bank.Customer",
						"members": [
							{
								"astId": 14,
								"contract": "Bank_Project.sol:Bank",
								"label": "paymentReceived",
								"offset": 0,
								"slot": "0",
								"type": "t_array(t_struct(Transaction)10_storage)dyn_storage"
							},
							{
								"astId": 18,
								"contract": "Bank_Project.sol:Bank",
								"label": "paymentSent",
								"offset": 0,
								"slot": "1",
								"type": "t_array(t_struct(Transaction)10_storage)dyn_storage"
							},
							{
								"astId": 22,
								"contract": "Bank_Project.sol:Bank",
								"label": "allPayments",
								"offset": 0,
								"slot": "2",
								"type": "t_array(t_struct(Transaction)10_storage)dyn_storage"
							},
							{
								"astId": 26,
								"contract": "Bank_Project.sol:Bank",
								"label": "authorizedUsers",
								"offset": 0,
								"slot": "3",
								"type": "t_mapping(t_address,t_bool)"
							},
							{
								"astId": 28,
								"contract": "Bank_Project.sol:Bank",
								"label": "customerBalance",
								"offset": 0,
								"slot": "4",
								"type": "t_uint256"
							}
						],
						"numberOfBytes": "160"
					},
					"t_struct(Transaction)10_storage": {
						"encoding": "inplace",
						"label": "struct Bank.Transaction",
						"members": [
							{
								"astId": 5,
								"contract": "Bank_Project.sol:Bank",
								"label": "amount",
								"offset": 0,
								"slot": "0",
								"type": "t_uint256"
							},
							{
								"astId": 7,
								"contract": "Bank_Project.sol:Bank",
								"label": "timeStamp",
								"offset": 0,
								"slot": "1",
								"type": "t_uint256"
							},
							{
								"astId": 9,
								"contract": "Bank_Project.sol:Bank",
								"label": "status",
								"offset": 0,
								"slot": "2",
								"type": "t_string_storage"
							}
						],
						"numberOfBytes": "96"
					},
					"t_struct(autorizados)34_storage": {
						"encoding": "inplace",
						"label": "struct Bank.autorizados",
						"members": [
							{
								"astId": 31,
								"contract": "Bank_Project.sol:Bank",
								"label": "customer",
								"offset": 0,
								"slot": "0",
								"type": "t_address"
							},
							{
								"astId": 33,
								"contract": "Bank_Project.sol:Bank",
								"label": "set",
								"offset": 20,
								"slot": "0",
								"type": "t_bool"
							}
						],
						"numberOfBytes": "32"
					},
					"t_uint256": {
						"encoding": "inplace",
						"label": "uint256",
						"numberOfBytes": "32"
					}
				}
			},
			"userdoc": {
				"kind": "user",
				"methods": {},
				"version": 1
			}
		}
	}
}