{
  "_format": "hh-sol-artifact-1",
  "contractName": "CrowdFunding",
  "sourceName": "Contracts/CrowdFunding.sol",
  "abi": [
    {
      "inputs": [
        {
          "internalType": "uint256",
          "name": "_goal",
          "type": "uint256"
        },
        {
          "internalType": "address",
          "name": "_tokenAddress",
          "type": "address"
        },
        {
          "internalType": "address",
          "name": "_NftAddress",
          "type": "address"
        }
      ],
      "stateMutability": "nonpayable",
      "type": "constructor"
    },
    {
      "anonymous": false,
      "inputs": [
        {
          "indexed": true,
          "internalType": "address",
          "name": "tokenOwner",
          "type": "address"
        },
        {
          "indexed": true,
          "internalType": "address",
          "name": "spender",
          "type": "address"
        },
        {
          "indexed": false,
          "internalType": "uint256",
          "name": "tokens",
          "type": "uint256"
        }
      ],
      "name": "Approval",
      "type": "event"
    },
    {
      "anonymous": false,
      "inputs": [
        {
          "indexed": true,
          "internalType": "address",
          "name": "from",
          "type": "address"
        },
        {
          "indexed": true,
          "internalType": "address",
          "name": "to",
          "type": "address"
        },
        {
          "indexed": false,
          "internalType": "uint256",
          "name": "tokens",
          "type": "uint256"
        }
      ],
      "name": "Transfer",
      "type": "event"
    },
    {
      "stateMutability": "payable",
      "type": "fallback"
    },
    {
      "inputs": [],
      "name": "_totalSupply",
      "outputs": [
        {
          "internalType": "uint256",
          "name": "",
          "type": "uint256"
        }
      ],
      "stateMutability": "view",
      "type": "function"
    },
    {
      "inputs": [
        {
          "internalType": "address",
          "name": "tokenOwner",
          "type": "address"
        },
        {
          "internalType": "address",
          "name": "spender",
          "type": "address"
        }
      ],
      "name": "allowance",
      "outputs": [
        {
          "internalType": "uint256",
          "name": "remaining",
          "type": "uint256"
        }
      ],
      "stateMutability": "view",
      "type": "function"
    },
    {
      "inputs": [
        {
          "internalType": "address",
          "name": "spender",
          "type": "address"
        },
        {
          "internalType": "uint256",
          "name": "tokens",
          "type": "uint256"
        }
      ],
      "name": "approve",
      "outputs": [
        {
          "internalType": "bool",
          "name": "success",
          "type": "bool"
        }
      ],
      "stateMutability": "nonpayable",
      "type": "function"
    },
    {
      "inputs": [
        {
          "internalType": "address",
          "name": "spender",
          "type": "address"
        },
        {
          "internalType": "uint256",
          "name": "tokens",
          "type": "uint256"
        },
        {
          "internalType": "bytes",
          "name": "data",
          "type": "bytes"
        }
      ],
      "name": "approveAndCall",
      "outputs": [
        {
          "internalType": "bool",
          "name": "success",
          "type": "bool"
        }
      ],
      "stateMutability": "nonpayable",
      "type": "function"
    },
    {
      "inputs": [
        {
          "internalType": "address",
          "name": "tokenOwner",
          "type": "address"
        }
      ],
      "name": "balanceOf",
      "outputs": [
        {
          "internalType": "uint256",
          "name": "balance",
          "type": "uint256"
        }
      ],
      "stateMutability": "view",
      "type": "function"
    },
    {
      "inputs": [],
      "name": "decimals",
      "outputs": [
        {
          "internalType": "uint8",
          "name": "",
          "type": "uint8"
        }
      ],
      "stateMutability": "view",
      "type": "function"
    },
    {
      "inputs": [
        {
          "internalType": "uint256",
          "name": "_amount",
          "type": "uint256"
        },
        {
          "internalType": "address",
          "name": "inversor",
          "type": "address"
        }
      ],
      "name": "deposit",
      "outputs": [],
      "stateMutability": "nonpayable",
      "type": "function"
    },
    {
      "inputs": [],
      "name": "name",
      "outputs": [
        {
          "internalType": "string",
          "name": "",
          "type": "string"
        }
      ],
      "stateMutability": "view",
      "type": "function"
    },
    {
      "inputs": [],
      "name": "nft",
      "outputs": [
        {
          "internalType": "contract MyNFT",
          "name": "",
          "type": "address"
        }
      ],
      "stateMutability": "view",
      "type": "function"
    },
    {
      "inputs": [
        {
          "internalType": "uint256",
          "name": "a",
          "type": "uint256"
        },
        {
          "internalType": "uint256",
          "name": "b",
          "type": "uint256"
        }
      ],
      "name": "safeAdd",
      "outputs": [
        {
          "internalType": "uint256",
          "name": "c",
          "type": "uint256"
        }
      ],
      "stateMutability": "pure",
      "type": "function"
    },
    {
      "inputs": [
        {
          "internalType": "uint256",
          "name": "a",
          "type": "uint256"
        },
        {
          "internalType": "uint256",
          "name": "b",
          "type": "uint256"
        }
      ],
      "name": "safeDiv",
      "outputs": [
        {
          "internalType": "uint256",
          "name": "c",
          "type": "uint256"
        }
      ],
      "stateMutability": "pure",
      "type": "function"
    },
    {
      "inputs": [
        {
          "internalType": "uint256",
          "name": "a",
          "type": "uint256"
        },
        {
          "internalType": "uint256",
          "name": "b",
          "type": "uint256"
        }
      ],
      "name": "safeMul",
      "outputs": [
        {
          "internalType": "uint256",
          "name": "c",
          "type": "uint256"
        }
      ],
      "stateMutability": "pure",
      "type": "function"
    },
    {
      "inputs": [
        {
          "internalType": "uint256",
          "name": "a",
          "type": "uint256"
        },
        {
          "internalType": "uint256",
          "name": "b",
          "type": "uint256"
        }
      ],
      "name": "safeSub",
      "outputs": [
        {
          "internalType": "uint256",
          "name": "c",
          "type": "uint256"
        }
      ],
      "stateMutability": "pure",
      "type": "function"
    },
    {
      "inputs": [],
      "name": "symbol",
      "outputs": [
        {
          "internalType": "string",
          "name": "",
          "type": "string"
        }
      ],
      "stateMutability": "view",
      "type": "function"
    },
    {
      "inputs": [],
      "name": "token",
      "outputs": [
        {
          "internalType": "contract Token",
          "name": "",
          "type": "address"
        }
      ],
      "stateMutability": "view",
      "type": "function"
    },
    {
      "inputs": [],
      "name": "totalSupply",
      "outputs": [
        {
          "internalType": "uint256",
          "name": "",
          "type": "uint256"
        }
      ],
      "stateMutability": "view",
      "type": "function"
    },
    {
      "inputs": [
        {
          "internalType": "address",
          "name": "to",
          "type": "address"
        },
        {
          "internalType": "uint256",
          "name": "tokens",
          "type": "uint256"
        }
      ],
      "name": "transfer",
      "outputs": [
        {
          "internalType": "bool",
          "name": "success",
          "type": "bool"
        }
      ],
      "stateMutability": "nonpayable",
      "type": "function"
    },
    {
      "inputs": [
        {
          "internalType": "address",
          "name": "from",
          "type": "address"
        },
        {
          "internalType": "address",
          "name": "to",
          "type": "address"
        },
        {
          "internalType": "uint256",
          "name": "tokens",
          "type": "uint256"
        }
      ],
      "name": "transferFrom",
      "outputs": [
        {
          "internalType": "bool",
          "name": "success",
          "type": "bool"
        }
      ],
      "stateMutability": "nonpayable",
      "type": "function"
    },
    {
      "inputs": [
        {
          "internalType": "address",
          "name": "inversor",
          "type": "address"
        },
        {
          "internalType": "string",
          "name": "uri",
          "type": "string"
        }
      ],
      "name": "withdrawn",
      "outputs": [],
      "stateMutability": "nonpayable",
      "type": "function"
    },
    {
      "stateMutability": "payable",
      "type": "receive"
    }
  ],
  "bytecode": "0x608060405234801561001057600080fd5b506040516128783803806128788339818101604052810190610032919061030b565b6040518060400160405280600381526020017f52484e00000000000000000000000000000000000000000000000000000000008152506000908161007691906105a4565b506040518060400160405280600581526020017f5268696e6f000000000000000000000000000000000000000000000000000000815250600190816100bb91906105a4565b5060028060006101000a81548160ff021916908360ff160217905550633b9aca00600381905550600354600460003373ffffffffffffffffffffffffffffffffffffffff1673ffffffffffffffffffffffffffffffffffffffff168152602001908152602001600020819055503373ffffffffffffffffffffffffffffffffffffffff16600073ffffffffffffffffffffffffffffffffffffffff167fddf252ad1be2c89b69c2b068fc378daa952ba7f163c4a11628f55a4df523b3ef6003546040516101889190610685565b60405180910390a381600a60006101000a81548173ffffffffffffffffffffffffffffffffffffffff021916908373ffffffffffffffffffffffffffffffffffffffff16021790555080600b60006101000a81548173ffffffffffffffffffffffffffffffffffffffff021916908373ffffffffffffffffffffffffffffffffffffffff16021790555033600760006101000a81548173ffffffffffffffffffffffffffffffffffffffff021916908373ffffffffffffffffffffffffffffffffffffffff1602179055506000600681905550600060088190555082600c819055505050506106a0565b600080fd5b6000819050919050565b61028a81610277565b811461029557600080fd5b50565b6000815190506102a781610281565b92915050565b600073ffffffffffffffffffffffffffffffffffffffff82169050919050565b60006102d8826102ad565b9050919050565b6102e8816102cd565b81146102f357600080fd5b50565b600081519050610305816102df565b92915050565b60008060006060848603121561032457610323610272565b5b600061033286828701610298565b9350506020610343868287016102f6565b9250506040610354868287016102f6565b9150509250925092565b600081519050919050565b7f4e487b7100000000000000000000000000000000000000000000000000000000600052604160045260246000fd5b7f4e487b7100000000000000000000000000000000000000000000000000000000600052602260045260246000fd5b600060028204905060018216806103df57607f821691505b6020821081036103f2576103f1610398565b5b50919050565b60008190508160005260206000209050919050565b60006020601f8301049050919050565b600082821b905092915050565b60006008830261045a7fffffffffffffffffffffffffffffffffffffffffffffffffffffffffffffffff8261041d565b610464868361041d565b95508019841693508086168417925050509392505050565b6000819050919050565b60006104a161049c61049784610277565b61047c565b610277565b9050919050565b6000819050919050565b6104bb83610486565b6104cf6104c7826104a8565b84845461042a565b825550505050565b600090565b6104e46104d7565b6104ef8184846104b2565b505050565b5b81811015610513576105086000826104dc565b6001810190506104f5565b5050565b601f82111561055857610529816103f8565b6105328461040d565b81016020851015610541578190505b61055561054d8561040d565b8301826104f4565b50505b505050565b600082821c905092915050565b600061057b6000198460080261055d565b1980831691505092915050565b6000610594838361056a565b9150826002028217905092915050565b6105ad8261035e565b67ffffffffffffffff8111156105c6576105c5610369565b5b6105d082546103c7565b6105db828285610517565b600060209050601f83116001811461060e57600084156105fc578287015190505b6106068582610588565b86555061066e565b601f19841661061c866103f8565b60005b828110156106445784890151825560018201915060208501945060208101905061061f565b86831015610661578489015161065d601f89168261056a565b8355505b6001600288020188555050505b505050505050565b61067f81610277565b82525050565b600060208201905061069a6000830184610676565b92915050565b6121c9806106af6000396000f3fe6080604052600436106101185760003560e01c806395d89b41116100a0578063cae9ca5111610064578063cae9ca51146103e6578063d05c78da14610423578063dd62ed3e14610460578063e6cb90131461049d578063fc0c546a146104da5761011f565b806395d89b41146102db578063a293d1e814610306578063a9059cbb14610343578063b3858be414610380578063b5931f7c146103a95761011f565b8063313ce567116100e7578063313ce567146101f45780633eaaf86b1461021f57806347ccca021461024a5780636e553f651461027557806370a082311461029e5761011f565b806306fdde0314610124578063095ea7b31461014f57806318160ddd1461018c57806323b872dd146101b75761011f565b3661011f57005b600080fd5b34801561013057600080fd5b50610139610505565b604051610146919061171c565b60405180910390f35b34801561015b57600080fd5b50610176600480360381019061017191906117e6565b610593565b6040516101839190611841565b60405180910390f35b34801561019857600080fd5b506101a1610685565b6040516101ae919061186b565b60405180910390f35b3480156101c357600080fd5b506101de60048036038101906101d99190611886565b6106d9565b6040516101eb9190611841565b60405180910390f35b34801561020057600080fd5b50610209610969565b60405161021691906118f5565b60405180910390f35b34801561022b57600080fd5b5061023461097c565b604051610241919061186b565b60405180910390f35b34801561025657600080fd5b5061025f610982565b60405161026c919061196f565b60405180910390f35b34801561028157600080fd5b5061029c6004803603810190610297919061198a565b6109a8565b005b3480156102aa57600080fd5b506102c560048036038101906102c091906119ca565b610c7f565b6040516102d2919061186b565b60405180910390f35b3480156102e757600080fd5b506102f0610cc8565b6040516102fd919061171c565b60405180910390f35b34801561031257600080fd5b5061032d600480360381019061032891906119f7565b610d56565b60405161033a919061186b565b60405180910390f35b34801561034f57600080fd5b5061036a600480360381019061036591906117e6565b610d79565b6040516103779190611841565b60405180910390f35b34801561038c57600080fd5b506103a760048036038101906103a29190611b6c565b610f02565b005b3480156103b557600080fd5b506103d060048036038101906103cb91906119f7565b6113df565b6040516103dd919061186b565b60405180910390f35b3480156103f257600080fd5b5061040d60048036038101906104089190611c69565b611401565b60405161041a9190611841565b60405180910390f35b34801561042f57600080fd5b5061044a600480360381019061044591906119f7565b611565565b604051610457919061186b565b60405180910390f35b34801561046c57600080fd5b5061048760048036038101906104829190611cd8565b61159d565b604051610494919061186b565b60405180910390f35b3480156104a957600080fd5b506104c460048036038101906104bf91906119f7565b611624565b6040516104d1919061186b565b60405180910390f35b3480156104e657600080fd5b506104ef611647565b6040516104fc9190611d4b565b60405180910390f35b6001805461051290611d95565b80601f016020809104026020016040519081016040528092919081815260200182805461053e90611d95565b801561058b5780601f106105605761010080835404028352916020019161058b565b820191906000526020600020905b81548152906001019060200180831161056e57829003601f168201915b505050505081565b600081600560003373ffffffffffffffffffffffffffffffffffffffff1673ffffffffffffffffffffffffffffffffffffffff16815260200190815260200160002060008573ffffffffffffffffffffffffffffffffffffffff1673ffffffffffffffffffffffffffffffffffffffff168152602001908152602001600020819055508273ffffffffffffffffffffffffffffffffffffffff163373ffffffffffffffffffffffffffffffffffffffff167f8c5be1e5ebec7d5bd14f71427d1e84f3dd0314c0f7b2291e5b200ac8c7c3b92584604051610673919061186b565b60405180910390a36001905092915050565b6000600460008073ffffffffffffffffffffffffffffffffffffffff1673ffffffffffffffffffffffffffffffffffffffff168152602001908152602001600020546003546106d49190611df5565b905090565b6000610724600460008673ffffffffffffffffffffffffffffffffffffffff1673ffffffffffffffffffffffffffffffffffffffff1681526020019081526020016000205483610d56565b600460008673ffffffffffffffffffffffffffffffffffffffff1673ffffffffffffffffffffffffffffffffffffffff168152602001908152602001600020819055506107ed600560008673ffffffffffffffffffffffffffffffffffffffff1673ffffffffffffffffffffffffffffffffffffffff16815260200190815260200160002060003373ffffffffffffffffffffffffffffffffffffffff1673ffffffffffffffffffffffffffffffffffffffff1681526020019081526020016000205483610d56565b600560008673ffffffffffffffffffffffffffffffffffffffff1673ffffffffffffffffffffffffffffffffffffffff16815260200190815260200160002060003373ffffffffffffffffffffffffffffffffffffffff1673ffffffffffffffffffffffffffffffffffffffff168152602001908152602001600020819055506108b6600460008573ffffffffffffffffffffffffffffffffffffffff1673ffffffffffffffffffffffffffffffffffffffff1681526020019081526020016000205483611624565b600460008573ffffffffffffffffffffffffffffffffffffffff1673ffffffffffffffffffffffffffffffffffffffff168152602001908152602001600020819055508273ffffffffffffffffffffffffffffffffffffffff168473ffffffffffffffffffffffffffffffffffffffff167fddf252ad1be2c89b69c2b068fc378daa952ba7f163c4a11628f55a4df523b3ef84604051610956919061186b565b60405180910390a3600190509392505050565b600260009054906101000a900460ff1681565b60035481565b600b60009054906101000a900473ffffffffffffffffffffffffffffffffffffffff1681565b600760009054906101000a900473ffffffffffffffffffffffffffffffffffffffff1673ffffffffffffffffffffffffffffffffffffffff163373ffffffffffffffffffffffffffffffffffffffff1614610a38576040517f08c379a0000000000000000000000000000000000000000000000000000000008152600401610a2f90611e9b565b60405180910390fd5b6127108210610b8d5781601060008373ffffffffffffffffffffffffffffffffffffffff1673ffffffffffffffffffffffffffffffffffffffff1681526020019081526020016000206000016000828254610a939190611ebb565b92505081905550610aa38261166d565b601060008373ffffffffffffffffffffffffffffffffffffffff1673ffffffffffffffffffffffffffffffffffffffff1681526020019081526020016000206001016000828254610af49190611ebb565b925050819055506001601060008373ffffffffffffffffffffffffffffffffffffffff1673ffffffffffffffffffffffffffffffffffffffff1681526020019081526020016000206002016000828254610b4e9190611ebb565b925050819055508160066000828254610b679190611ebb565b92505081905550600160086000828254610b819190611ebb565b92505081905550610c7b565b81600f60008373ffffffffffffffffffffffffffffffffffffffff1673ffffffffffffffffffffffffffffffffffffffff1681526020019081526020016000206000016000828254610bdf9190611ebb565b92505081905550610bef8261166d565b600f60008373ffffffffffffffffffffffffffffffffffffffff1673ffffffffffffffffffffffffffffffffffffffff1681526020019081526020016000206001016000828254610c409190611ebb565b925050819055508160066000828254610c599190611ebb565b92505081905550600160086000828254610c739190611ebb565b925050819055505b5050565b6000600460008373ffffffffffffffffffffffffffffffffffffffff1673ffffffffffffffffffffffffffffffffffffffff168152602001908152602001600020549050919050565b60008054610cd590611d95565b80601f0160208091040260200160405190810160405280929190818152602001828054610d0190611d95565b8015610d4e5780601f10610d2357610100808354040283529160200191610d4e565b820191906000526020600020905b815481529060010190602001808311610d3157829003601f168201915b505050505081565b600082821115610d6557600080fd5b8183610d719190611df5565b905092915050565b6000610dc4600460003373ffffffffffffffffffffffffffffffffffffffff1673ffffffffffffffffffffffffffffffffffffffff1681526020019081526020016000205483610d56565b600460003373ffffffffffffffffffffffffffffffffffffffff1673ffffffffffffffffffffffffffffffffffffffff16815260200190815260200160002081905550610e50600460008573ffffffffffffffffffffffffffffffffffffffff1673ffffffffffffffffffffffffffffffffffffffff1681526020019081526020016000205483611624565b600460008573ffffffffffffffffffffffffffffffffffffffff1673ffffffffffffffffffffffffffffffffffffffff168152602001908152602001600020819055508273ffffffffffffffffffffffffffffffffffffffff163373ffffffffffffffffffffffffffffffffffffffff167fddf252ad1be2c89b69c2b068fc378daa952ba7f163c4a11628f55a4df523b3ef84604051610ef0919061186b565b60405180910390a36001905092915050565b600760009054906101000a900473ffffffffffffffffffffffffffffffffffffffff1673ffffffffffffffffffffffffffffffffffffffff163373ffffffffffffffffffffffffffffffffffffffff1614610f92576040517f08c379a0000000000000000000000000000000000000000000000000000000008152600401610f8990611f61565b60405180910390fd5b6000600f60008473ffffffffffffffffffffffffffffffffffffffff1673ffffffffffffffffffffffffffffffffffffffff16815260200190815260200160002060010154111561114e57600f60008373ffffffffffffffffffffffffffffffffffffffff1673ffffffffffffffffffffffffffffffffffffffff16815260200190815260200160002060010154600d819055506000600f60008473ffffffffffffffffffffffffffffffffffffffff1673ffffffffffffffffffffffffffffffffffffffff16815260200190815260200160002060010181905550600a60009054906101000a900473ffffffffffffffffffffffffffffffffffffffff1673ffffffffffffffffffffffffffffffffffffffff166323b872dd600760009054906101000a900473ffffffffffffffffffffffffffffffffffffffff16846064600d546110df9190611f81565b6040518463ffffffff1660e01b81526004016110fd93929190611fd2565b6020604051808303816000875af115801561111c573d6000803e3d6000fd5b505050506040513d601f19601f820116820180604052508101906111409190612035565b506000600d819055506113db565b601060008373ffffffffffffffffffffffffffffffffffffffff1673ffffffffffffffffffffffffffffffffffffffff16815260200190815260200160002060010154600d819055506000601060008473ffffffffffffffffffffffffffffffffffffffff1673ffffffffffffffffffffffffffffffffffffffff16815260200190815260200160002060010181905550601060008373ffffffffffffffffffffffffffffffffffffffff1673ffffffffffffffffffffffffffffffffffffffff16815260200190815260200160002060020154600e819055506000601060008473ffffffffffffffffffffffffffffffffffffffff1673ffffffffffffffffffffffffffffffffffffffff16815260200190815260200160002060020181905550600a60009054906101000a900473ffffffffffffffffffffffffffffffffffffffff1673ffffffffffffffffffffffffffffffffffffffff166323b872dd600760009054906101000a900473ffffffffffffffffffffffffffffffffffffffff16846064600d546112e19190611f81565b6040518463ffffffff1660e01b81526004016112ff93929190611fd2565b6020604051808303816000875af115801561131e573d6000803e3d6000fd5b505050506040513d601f19601f820116820180604052508101906113429190612035565b506000600d81905550600b60009054906101000a900473ffffffffffffffffffffffffffffffffffffffff1673ffffffffffffffffffffffffffffffffffffffff1663d204c45e83836040518363ffffffff1660e01b81526004016113a8929190612062565b600060405180830381600087803b1580156113c257600080fd5b505af11580156113d6573d6000803e3d6000fd5b505050505b5050565b60008082116113ed57600080fd5b81836113f991906120c1565b905092915050565b600082600560003373ffffffffffffffffffffffffffffffffffffffff1673ffffffffffffffffffffffffffffffffffffffff16815260200190815260200160002060008673ffffffffffffffffffffffffffffffffffffffff1673ffffffffffffffffffffffffffffffffffffffff168152602001908152602001600020819055508373ffffffffffffffffffffffffffffffffffffffff163373ffffffffffffffffffffffffffffffffffffffff167f8c5be1e5ebec7d5bd14f71427d1e84f3dd0314c0f7b2291e5b200ac8c7c3b925856040516114e1919061186b565b60405180910390a38373ffffffffffffffffffffffffffffffffffffffff16638f4ffcb1338530866040518563ffffffff1660e01b81526004016115289493929190612147565b600060405180830381600087803b15801561154257600080fd5b505af1158015611556573d6000803e3d6000fd5b50505050600190509392505050565b600081836115739190611f81565b9050600083148061158e575081838261158c91906120c1565b145b61159757600080fd5b92915050565b6000600560008473ffffffffffffffffffffffffffffffffffffffff1673ffffffffffffffffffffffffffffffffffffffff16815260200190815260200160002060008373ffffffffffffffffffffffffffffffffffffffff1673ffffffffffffffffffffffffffffffffffffffff16815260200190815260200160002054905092915050565b600081836116329190611ebb565b90508281101561164157600080fd5b92915050565b600a60009054906101000a900473ffffffffffffffffffffffffffffffffffffffff1681565b6000600a8261167c91906120c1565b6009819055506009549050919050565b600081519050919050565b600082825260208201905092915050565b60005b838110156116c65780820151818401526020810190506116ab565b60008484015250505050565b6000601f19601f8301169050919050565b60006116ee8261168c565b6116f88185611697565b93506117088185602086016116a8565b611711816116d2565b840191505092915050565b6000602082019050818103600083015261173681846116e3565b905092915050565b6000604051905090565b600080fd5b600080fd5b600073ffffffffffffffffffffffffffffffffffffffff82169050919050565b600061177d82611752565b9050919050565b61178d81611772565b811461179857600080fd5b50565b6000813590506117aa81611784565b92915050565b6000819050919050565b6117c3816117b0565b81146117ce57600080fd5b50565b6000813590506117e0816117ba565b92915050565b600080604083850312156117fd576117fc611748565b5b600061180b8582860161179b565b925050602061181c858286016117d1565b9150509250929050565b60008115159050919050565b61183b81611826565b82525050565b60006020820190506118566000830184611832565b92915050565b611865816117b0565b82525050565b6000602082019050611880600083018461185c565b92915050565b60008060006060848603121561189f5761189e611748565b5b60006118ad8682870161179b565b93505060206118be8682870161179b565b92505060406118cf868287016117d1565b9150509250925092565b600060ff82169050919050565b6118ef816118d9565b82525050565b600060208201905061190a60008301846118e6565b92915050565b6000819050919050565b600061193561193061192b84611752565b611910565b611752565b9050919050565b60006119478261191a565b9050919050565b60006119598261193c565b9050919050565b6119698161194e565b82525050565b60006020820190506119846000830184611960565b92915050565b600080604083850312156119a1576119a0611748565b5b60006119af858286016117d1565b92505060206119c08582860161179b565b9150509250929050565b6000602082840312156119e0576119df611748565b5b60006119ee8482850161179b565b91505092915050565b60008060408385031215611a0e57611a0d611748565b5b6000611a1c858286016117d1565b9250506020611a2d858286016117d1565b9150509250929050565b600080fd5b600080fd5b7f4e487b7100000000000000000000000000000000000000000000000000000000600052604160045260246000fd5b611a79826116d2565b810181811067ffffffffffffffff82111715611a9857611a97611a41565b5b80604052505050565b6000611aab61173e565b9050611ab78282611a70565b919050565b600067ffffffffffffffff821115611ad757611ad6611a41565b5b611ae0826116d2565b9050602081019050919050565b82818337600083830152505050565b6000611b0f611b0a84611abc565b611aa1565b905082815260208101848484011115611b2b57611b2a611a3c565b5b611b36848285611aed565b509392505050565b600082601f830112611b5357611b52611a37565b5b8135611b63848260208601611afc565b91505092915050565b60008060408385031215611b8357611b82611748565b5b6000611b918582860161179b565b925050602083013567ffffffffffffffff811115611bb257611bb161174d565b5b611bbe85828601611b3e565b9150509250929050565b600067ffffffffffffffff821115611be357611be2611a41565b5b611bec826116d2565b9050602081019050919050565b6000611c0c611c0784611bc8565b611aa1565b905082815260208101848484011115611c2857611c27611a3c565b5b611c33848285611aed565b509392505050565b600082601f830112611c5057611c4f611a37565b5b8135611c60848260208601611bf9565b91505092915050565b600080600060608486031215611c8257611c81611748565b5b6000611c908682870161179b565b9350506020611ca1868287016117d1565b925050604084013567ffffffffffffffff811115611cc257611cc161174d565b5b611cce86828701611c3b565b9150509250925092565b60008060408385031215611cef57611cee611748565b5b6000611cfd8582860161179b565b9250506020611d0e8582860161179b565b9150509250929050565b6000611d238261191a565b9050919050565b6000611d3582611d18565b9050919050565b611d4581611d2a565b82525050565b6000602082019050611d606000830184611d3c565b92915050565b7f4e487b7100000000000000000000000000000000000000000000000000000000600052602260045260246000fd5b60006002820490506001821680611dad57607f821691505b602082108103611dc057611dbf611d66565b5b50919050565b7f4e487b7100000000000000000000000000000000000000000000000000000000600052601160045260246000fd5b6000611e00826117b0565b9150611e0b836117b0565b9250828203905081811115611e2357611e22611dc6565b5b92915050565b7f536f6c6f20656c204f776e65722070756564652068616365722061677265676160008201527f7220696e766572736f72657320656e206573746520636f6e747261746f000000602082015250565b6000611e85603d83611697565b9150611e9082611e29565b604082019050919050565b60006020820190508181036000830152611eb481611e78565b9050919050565b6000611ec6826117b0565b9150611ed1836117b0565b9250828201905080821115611ee957611ee8611dc6565b5b92915050565b7f536f6c6f20656c204f776e65722070756564652068616365722072657469726f60008201527f7320656e206573746520636f6e747261746f0000000000000000000000000000602082015250565b6000611f4b603283611697565b9150611f5682611eef565b604082019050919050565b60006020820190508181036000830152611f7a81611f3e565b9050919050565b6000611f8c826117b0565b9150611f97836117b0565b9250828202611fa5816117b0565b91508282048414831517611fbc57611fbb611dc6565b5b5092915050565b611fcc81611772565b82525050565b6000606082019050611fe76000830186611fc3565b611ff46020830185611fc3565b612001604083018461185c565b949350505050565b61201281611826565b811461201d57600080fd5b50565b60008151905061202f81612009565b92915050565b60006020828403121561204b5761204a611748565b5b600061205984828501612020565b91505092915050565b60006040820190506120776000830185611fc3565b818103602083015261208981846116e3565b90509392505050565b7f4e487b7100000000000000000000000000000000000000000000000000000000600052601260045260246000fd5b60006120cc826117b0565b91506120d7836117b0565b9250826120e7576120e6612092565b5b828204905092915050565b600081519050919050565b600082825260208201905092915050565b6000612119826120f2565b61212381856120fd565b93506121338185602086016116a8565b61213c816116d2565b840191505092915050565b600060808201905061215c6000830187611fc3565b612169602083018661185c565b6121766040830185611fc3565b8181036060830152612188818461210e565b90509594505050505056fea2646970667358221220a718cd1960db86343059d257b0128c0d7bd7460cb031168701c82ee33b32aa7464736f6c634300081b0033",
  "linkReferences": {},
  "deployedLinkReferences": {}
}