{
  "_format": "hh-sol-artifact-1",
  "contractName": "CrowdFunding",
  "sourceName": "Contracts/CrowdFunding.sol",
  "abi": [
    {
      "inputs": [
        {
          "internalType": "uint256",
          "name": "_goal",
          "type": "uint256"
        },
        {
          "internalType": "address",
          "name": "_tokenAddress",
          "type": "address"
        },
        {
          "internalType": "address",
          "name": "_NftAddress",
          "type": "address"
        }
      ],
      "stateMutability": "nonpayable",
      "type": "constructor"
    },
    {
      "anonymous": false,
      "inputs": [
        {
          "indexed": true,
          "internalType": "address",
          "name": "tokenOwner",
          "type": "address"
        },
        {
          "indexed": true,
          "internalType": "address",
          "name": "spender",
          "type": "address"
        },
        {
          "indexed": false,
          "internalType": "uint256",
          "name": "tokens",
          "type": "uint256"
        }
      ],
      "name": "Approval",
      "type": "event"
    },
    {
      "anonymous": false,
      "inputs": [
        {
          "indexed": true,
          "internalType": "address",
          "name": "from",
          "type": "address"
        },
        {
          "indexed": true,
          "internalType": "address",
          "name": "to",
          "type": "address"
        },
        {
          "indexed": false,
          "internalType": "uint256",
          "name": "tokens",
          "type": "uint256"
        }
      ],
      "name": "Transfer",
      "type": "event"
    },
    {
      "stateMutability": "payable",
      "type": "fallback"
    },
    {
      "inputs": [],
      "name": "_totalSupply",
      "outputs": [
        {
          "internalType": "uint256",
          "name": "",
          "type": "uint256"
        }
      ],
      "stateMutability": "view",
      "type": "function"
    },
    {
      "inputs": [
        {
          "internalType": "address",
          "name": "tokenOwner",
          "type": "address"
        },
        {
          "internalType": "address",
          "name": "spender",
          "type": "address"
        }
      ],
      "name": "allowance",
      "outputs": [
        {
          "internalType": "uint256",
          "name": "remaining",
          "type": "uint256"
        }
      ],
      "stateMutability": "view",
      "type": "function"
    },
    {
      "inputs": [
        {
          "internalType": "address",
          "name": "spender",
          "type": "address"
        },
        {
          "internalType": "uint256",
          "name": "tokens",
          "type": "uint256"
        }
      ],
      "name": "approve",
      "outputs": [
        {
          "internalType": "bool",
          "name": "success",
          "type": "bool"
        }
      ],
      "stateMutability": "nonpayable",
      "type": "function"
    },
    {
      "inputs": [
        {
          "internalType": "address",
          "name": "spender",
          "type": "address"
        },
        {
          "internalType": "uint256",
          "name": "tokens",
          "type": "uint256"
        },
        {
          "internalType": "bytes",
          "name": "data",
          "type": "bytes"
        }
      ],
      "name": "approveAndCall",
      "outputs": [
        {
          "internalType": "bool",
          "name": "success",
          "type": "bool"
        }
      ],
      "stateMutability": "nonpayable",
      "type": "function"
    },
    {
      "inputs": [
        {
          "internalType": "address",
          "name": "tokenOwner",
          "type": "address"
        }
      ],
      "name": "balanceOf",
      "outputs": [
        {
          "internalType": "uint256",
          "name": "balance",
          "type": "uint256"
        }
      ],
      "stateMutability": "view",
      "type": "function"
    },
    {
      "inputs": [],
      "name": "decimals",
      "outputs": [
        {
          "internalType": "uint8",
          "name": "",
          "type": "uint8"
        }
      ],
      "stateMutability": "view",
      "type": "function"
    },
    {
      "inputs": [
        {
          "internalType": "uint256",
          "name": "_amount",
          "type": "uint256"
        },
        {
          "internalType": "address",
          "name": "inversor",
          "type": "address"
        }
      ],
      "name": "deposit",
      "outputs": [],
      "stateMutability": "nonpayable",
      "type": "function"
    },
    {
      "inputs": [],
      "name": "name",
      "outputs": [
        {
          "internalType": "string",
          "name": "",
          "type": "string"
        }
      ],
      "stateMutability": "view",
      "type": "function"
    },
    {
      "inputs": [],
      "name": "nft",
      "outputs": [
        {
          "internalType": "contract MyNFT",
          "name": "",
          "type": "address"
        }
      ],
      "stateMutability": "view",
      "type": "function"
    },
    {
      "inputs": [
        {
          "internalType": "uint256",
          "name": "a",
          "type": "uint256"
        },
        {
          "internalType": "uint256",
          "name": "b",
          "type": "uint256"
        }
      ],
      "name": "safeAdd",
      "outputs": [
        {
          "internalType": "uint256",
          "name": "c",
          "type": "uint256"
        }
      ],
      "stateMutability": "pure",
      "type": "function"
    },
    {
      "inputs": [
        {
          "internalType": "uint256",
          "name": "a",
          "type": "uint256"
        },
        {
          "internalType": "uint256",
          "name": "b",
          "type": "uint256"
        }
      ],
      "name": "safeDiv",
      "outputs": [
        {
          "internalType": "uint256",
          "name": "c",
          "type": "uint256"
        }
      ],
      "stateMutability": "pure",
      "type": "function"
    },
    {
      "inputs": [
        {
          "internalType": "uint256",
          "name": "a",
          "type": "uint256"
        },
        {
          "internalType": "uint256",
          "name": "b",
          "type": "uint256"
        }
      ],
      "name": "safeMul",
      "outputs": [
        {
          "internalType": "uint256",
          "name": "c",
          "type": "uint256"
        }
      ],
      "stateMutability": "pure",
      "type": "function"
    },
    {
      "inputs": [
        {
          "internalType": "uint256",
          "name": "a",
          "type": "uint256"
        },
        {
          "internalType": "uint256",
          "name": "b",
          "type": "uint256"
        }
      ],
      "name": "safeSub",
      "outputs": [
        {
          "internalType": "uint256",
          "name": "c",
          "type": "uint256"
        }
      ],
      "stateMutability": "pure",
      "type": "function"
    },
    {
      "inputs": [],
      "name": "symbol",
      "outputs": [
        {
          "internalType": "string",
          "name": "",
          "type": "string"
        }
      ],
      "stateMutability": "view",
      "type": "function"
    },
    {
      "inputs": [],
      "name": "token",
      "outputs": [
        {
          "internalType": "contract Token",
          "name": "",
          "type": "address"
        }
      ],
      "stateMutability": "view",
      "type": "function"
    },
    {
      "inputs": [],
      "name": "totalSupply",
      "outputs": [
        {
          "internalType": "uint256",
          "name": "",
          "type": "uint256"
        }
      ],
      "stateMutability": "view",
      "type": "function"
    },
    {
      "inputs": [
        {
          "internalType": "address",
          "name": "to",
          "type": "address"
        },
        {
          "internalType": "uint256",
          "name": "tokens",
          "type": "uint256"
        }
      ],
      "name": "transfer",
      "outputs": [
        {
          "internalType": "bool",
          "name": "success",
          "type": "bool"
        }
      ],
      "stateMutability": "nonpayable",
      "type": "function"
    },
    {
      "inputs": [
        {
          "internalType": "address",
          "name": "from",
          "type": "address"
        },
        {
          "internalType": "address",
          "name": "to",
          "type": "address"
        },
        {
          "internalType": "uint256",
          "name": "tokens",
          "type": "uint256"
        }
      ],
      "name": "transferFrom",
      "outputs": [
        {
          "internalType": "bool",
          "name": "success",
          "type": "bool"
        }
      ],
      "stateMutability": "nonpayable",
      "type": "function"
    },
    {
      "inputs": [
        {
          "internalType": "address",
          "name": "inversor",
          "type": "address"
        }
      ],
      "name": "withdrawn",
      "outputs": [],
      "stateMutability": "nonpayable",
      "type": "function"
    },
    {
      "stateMutability": "payable",
      "type": "receive"
    }
  ],
  "bytecode": "0x608060405234801561001057600080fd5b506040516127e83803806127e88339818101604052810190610032919061030b565b6040518060400160405280600381526020017f52484e00000000000000000000000000000000000000000000000000000000008152506000908161007691906105a4565b506040518060400160405280600581526020017f5268696e6f000000000000000000000000000000000000000000000000000000815250600190816100bb91906105a4565b5060028060006101000a81548160ff021916908360ff160217905550633b9aca00600381905550600354600460003373ffffffffffffffffffffffffffffffffffffffff1673ffffffffffffffffffffffffffffffffffffffff168152602001908152602001600020819055503373ffffffffffffffffffffffffffffffffffffffff16600073ffffffffffffffffffffffffffffffffffffffff167fddf252ad1be2c89b69c2b068fc378daa952ba7f163c4a11628f55a4df523b3ef6003546040516101889190610685565b60405180910390a381600a60006101000a81548173ffffffffffffffffffffffffffffffffffffffff021916908373ffffffffffffffffffffffffffffffffffffffff16021790555080600b60006101000a81548173ffffffffffffffffffffffffffffffffffffffff021916908373ffffffffffffffffffffffffffffffffffffffff16021790555033600760006101000a81548173ffffffffffffffffffffffffffffffffffffffff021916908373ffffffffffffffffffffffffffffffffffffffff1602179055506000600681905550600060088190555082600c819055505050506106a0565b600080fd5b6000819050919050565b61028a81610277565b811461029557600080fd5b50565b6000815190506102a781610281565b92915050565b600073ffffffffffffffffffffffffffffffffffffffff82169050919050565b60006102d8826102ad565b9050919050565b6102e8816102cd565b81146102f357600080fd5b50565b600081519050610305816102df565b92915050565b60008060006060848603121561032457610323610272565b5b600061033286828701610298565b9350506020610343868287016102f6565b9250506040610354868287016102f6565b9150509250925092565b600081519050919050565b7f4e487b7100000000000000000000000000000000000000000000000000000000600052604160045260246000fd5b7f4e487b7100000000000000000000000000000000000000000000000000000000600052602260045260246000fd5b600060028204905060018216806103df57607f821691505b6020821081036103f2576103f1610398565b5b50919050565b60008190508160005260206000209050919050565b60006020601f8301049050919050565b600082821b905092915050565b60006008830261045a7fffffffffffffffffffffffffffffffffffffffffffffffffffffffffffffffff8261041d565b610464868361041d565b95508019841693508086168417925050509392505050565b6000819050919050565b60006104a161049c61049784610277565b61047c565b610277565b9050919050565b6000819050919050565b6104bb83610486565b6104cf6104c7826104a8565b84845461042a565b825550505050565b600090565b6104e46104d7565b6104ef8184846104b2565b505050565b5b81811015610513576105086000826104dc565b6001810190506104f5565b5050565b601f82111561055857610529816103f8565b6105328461040d565b81016020851015610541578190505b61055561054d8561040d565b8301826104f4565b50505b505050565b600082821c905092915050565b600061057b6000198460080261055d565b1980831691505092915050565b6000610594838361056a565b9150826002028217905092915050565b6105ad8261035e565b67ffffffffffffffff8111156105c6576105c5610369565b5b6105d082546103c7565b6105db828285610517565b600060209050601f83116001811461060e57600084156105fc578287015190505b6106068582610588565b86555061066e565b601f19841661061c866103f8565b60005b828110156106445784890151825560018201915060208501945060208101905061061f565b86831015610661578489015161065d601f89168261056a565b8355505b6001600288020188555050505b505050505050565b61067f81610277565b82525050565b600060208201905061069a6000830184610676565b92915050565b612139806106af6000396000f3fe6080604052600436106101185760003560e01c806370a08231116100a0578063cae9ca5111610064578063cae9ca51146103e6578063d05c78da14610423578063dd62ed3e14610460578063e6cb90131461049d578063fc0c546a146104da5761011f565b806370a08231146102c757806395d89b4114610304578063a293d1e81461032f578063a9059cbb1461036c578063b5931f7c146103a95761011f565b8063313ce567116100e7578063313ce567146101f45780633eaaf86b1461021f57806347ccca021461024a5780636e553f65146102755780636ef610921461029e5761011f565b806306fdde0314610124578063095ea7b31461014f57806318160ddd1461018c57806323b872dd146101b75761011f565b3661011f57005b600080fd5b34801561013057600080fd5b50610139610505565b6040516101469190611719565b60405180910390f35b34801561015b57600080fd5b50610176600480360381019061017191906117e3565b610593565b604051610183919061183e565b60405180910390f35b34801561019857600080fd5b506101a1610685565b6040516101ae9190611868565b60405180910390f35b3480156101c357600080fd5b506101de60048036038101906101d99190611883565b6106d9565b6040516101eb919061183e565b60405180910390f35b34801561020057600080fd5b50610209610969565b60405161021691906118f2565b60405180910390f35b34801561022b57600080fd5b5061023461097c565b6040516102419190611868565b60405180910390f35b34801561025657600080fd5b5061025f610982565b60405161026c919061196c565b60405180910390f35b34801561028157600080fd5b5061029c60048036038101906102979190611987565b6109a8565b005b3480156102aa57600080fd5b506102c560048036038101906102c091906119c7565b610c7f565b005b3480156102d357600080fd5b506102ee60048036038101906102e991906119c7565b611159565b6040516102fb9190611868565b60405180910390f35b34801561031057600080fd5b506103196111a2565b6040516103269190611719565b60405180910390f35b34801561033b57600080fd5b50610356600480360381019061035191906119f4565b611230565b6040516103639190611868565b60405180910390f35b34801561037857600080fd5b50610393600480360381019061038e91906117e3565b611253565b6040516103a0919061183e565b60405180910390f35b3480156103b557600080fd5b506103d060048036038101906103cb91906119f4565b6113dc565b6040516103dd9190611868565b60405180910390f35b3480156103f257600080fd5b5061040d60048036038101906104089190611b69565b6113fe565b60405161041a919061183e565b60405180910390f35b34801561042f57600080fd5b5061044a600480360381019061044591906119f4565b611562565b6040516104579190611868565b60405180910390f35b34801561046c57600080fd5b5061048760048036038101906104829190611bd8565b61159a565b6040516104949190611868565b60405180910390f35b3480156104a957600080fd5b506104c460048036038101906104bf91906119f4565b611621565b6040516104d19190611868565b60405180910390f35b3480156104e657600080fd5b506104ef611644565b6040516104fc9190611c4b565b60405180910390f35b6001805461051290611c95565b80601f016020809104026020016040519081016040528092919081815260200182805461053e90611c95565b801561058b5780601f106105605761010080835404028352916020019161058b565b820191906000526020600020905b81548152906001019060200180831161056e57829003601f168201915b505050505081565b600081600560003373ffffffffffffffffffffffffffffffffffffffff1673ffffffffffffffffffffffffffffffffffffffff16815260200190815260200160002060008573ffffffffffffffffffffffffffffffffffffffff1673ffffffffffffffffffffffffffffffffffffffff168152602001908152602001600020819055508273ffffffffffffffffffffffffffffffffffffffff163373ffffffffffffffffffffffffffffffffffffffff167f8c5be1e5ebec7d5bd14f71427d1e84f3dd0314c0f7b2291e5b200ac8c7c3b925846040516106739190611868565b60405180910390a36001905092915050565b6000600460008073ffffffffffffffffffffffffffffffffffffffff1673ffffffffffffffffffffffffffffffffffffffff168152602001908152602001600020546003546106d49190611cf5565b905090565b6000610724600460008673ffffffffffffffffffffffffffffffffffffffff1673ffffffffffffffffffffffffffffffffffffffff1681526020019081526020016000205483611230565b600460008673ffffffffffffffffffffffffffffffffffffffff1673ffffffffffffffffffffffffffffffffffffffff168152602001908152602001600020819055506107ed600560008673ffffffffffffffffffffffffffffffffffffffff1673ffffffffffffffffffffffffffffffffffffffff16815260200190815260200160002060003373ffffffffffffffffffffffffffffffffffffffff1673ffffffffffffffffffffffffffffffffffffffff1681526020019081526020016000205483611230565b600560008673ffffffffffffffffffffffffffffffffffffffff1673ffffffffffffffffffffffffffffffffffffffff16815260200190815260200160002060003373ffffffffffffffffffffffffffffffffffffffff1673ffffffffffffffffffffffffffffffffffffffff168152602001908152602001600020819055506108b6600460008573ffffffffffffffffffffffffffffffffffffffff1673ffffffffffffffffffffffffffffffffffffffff1681526020019081526020016000205483611621565b600460008573ffffffffffffffffffffffffffffffffffffffff1673ffffffffffffffffffffffffffffffffffffffff168152602001908152602001600020819055508273ffffffffffffffffffffffffffffffffffffffff168473ffffffffffffffffffffffffffffffffffffffff167fddf252ad1be2c89b69c2b068fc378daa952ba7f163c4a11628f55a4df523b3ef846040516109569190611868565b60405180910390a3600190509392505050565b600260009054906101000a900460ff1681565b60035481565b600b60009054906101000a900473ffffffffffffffffffffffffffffffffffffffff1681565b600760009054906101000a900473ffffffffffffffffffffffffffffffffffffffff1673ffffffffffffffffffffffffffffffffffffffff163373ffffffffffffffffffffffffffffffffffffffff1614610a38576040517f08c379a0000000000000000000000000000000000000000000000000000000008152600401610a2f90611d9b565b60405180910390fd5b6127108210610b8d5781601060008373ffffffffffffffffffffffffffffffffffffffff1673ffffffffffffffffffffffffffffffffffffffff1681526020019081526020016000206000016000828254610a939190611dbb565b92505081905550610aa38261166a565b601060008373ffffffffffffffffffffffffffffffffffffffff1673ffffffffffffffffffffffffffffffffffffffff1681526020019081526020016000206001016000828254610af49190611dbb565b925050819055506001601060008373ffffffffffffffffffffffffffffffffffffffff1673ffffffffffffffffffffffffffffffffffffffff1681526020019081526020016000206002016000828254610b4e9190611dbb565b925050819055508160066000828254610b679190611dbb565b92505081905550600160086000828254610b819190611dbb565b92505081905550610c7b565b81600f60008373ffffffffffffffffffffffffffffffffffffffff1673ffffffffffffffffffffffffffffffffffffffff1681526020019081526020016000206000016000828254610bdf9190611dbb565b92505081905550610bef8261166a565b600f60008373ffffffffffffffffffffffffffffffffffffffff1673ffffffffffffffffffffffffffffffffffffffff1681526020019081526020016000206001016000828254610c409190611dbb565b925050819055508160066000828254610c599190611dbb565b92505081905550600160086000828254610c739190611dbb565b925050819055505b5050565b600760009054906101000a900473ffffffffffffffffffffffffffffffffffffffff1673ffffffffffffffffffffffffffffffffffffffff163373ffffffffffffffffffffffffffffffffffffffff1614610d0f576040517f08c379a0000000000000000000000000000000000000000000000000000000008152600401610d0690611e61565b60405180910390fd5b6000600f60008373ffffffffffffffffffffffffffffffffffffffff1673ffffffffffffffffffffffffffffffffffffffff168152602001908152602001600020600101541115610ecb57600f60008273ffffffffffffffffffffffffffffffffffffffff1673ffffffffffffffffffffffffffffffffffffffff16815260200190815260200160002060010154600d819055506000600f60008373ffffffffffffffffffffffffffffffffffffffff1673ffffffffffffffffffffffffffffffffffffffff16815260200190815260200160002060010181905550600a60009054906101000a900473ffffffffffffffffffffffffffffffffffffffff1673ffffffffffffffffffffffffffffffffffffffff166323b872dd600760009054906101000a900473ffffffffffffffffffffffffffffffffffffffff16836064600d54610e5c9190611e81565b6040518463ffffffff1660e01b8152600401610e7a93929190611ed2565b6020604051808303816000875af1158015610e99573d6000803e3d6000fd5b505050506040513d601f19601f82011682018060405250810190610ebd9190611f35565b506000600d81905550611156565b601060008273ffffffffffffffffffffffffffffffffffffffff1673ffffffffffffffffffffffffffffffffffffffff16815260200190815260200160002060010154600d819055506000601060008373ffffffffffffffffffffffffffffffffffffffff1673ffffffffffffffffffffffffffffffffffffffff16815260200190815260200160002060010181905550601060008273ffffffffffffffffffffffffffffffffffffffff1673ffffffffffffffffffffffffffffffffffffffff16815260200190815260200160002060020154600e819055506000601060008373ffffffffffffffffffffffffffffffffffffffff1673ffffffffffffffffffffffffffffffffffffffff16815260200190815260200160002060020181905550600a60009054906101000a900473ffffffffffffffffffffffffffffffffffffffff1673ffffffffffffffffffffffffffffffffffffffff166323b872dd600760009054906101000a900473ffffffffffffffffffffffffffffffffffffffff16836064600d5461105e9190611e81565b6040518463ffffffff1660e01b815260040161107c93929190611ed2565b6020604051808303816000875af115801561109b573d6000803e3d6000fd5b505050506040513d601f19601f820116820180604052508101906110bf9190611f35565b506000600d81905550600b60009054906101000a900473ffffffffffffffffffffffffffffffffffffffff1673ffffffffffffffffffffffffffffffffffffffff1663d204c45e826040518263ffffffff1660e01b81526004016111239190611fd4565b600060405180830381600087803b15801561113d57600080fd5b505af1158015611151573d6000803e3d6000fd5b505050505b50565b6000600460008373ffffffffffffffffffffffffffffffffffffffff1673ffffffffffffffffffffffffffffffffffffffff168152602001908152602001600020549050919050565b600080546111af90611c95565b80601f01602080910402602001604051908101604052809291908181526020018280546111db90611c95565b80156112285780601f106111fd57610100808354040283529160200191611228565b820191906000526020600020905b81548152906001019060200180831161120b57829003601f168201915b505050505081565b60008282111561123f57600080fd5b818361124b9190611cf5565b905092915050565b600061129e600460003373ffffffffffffffffffffffffffffffffffffffff1673ffffffffffffffffffffffffffffffffffffffff1681526020019081526020016000205483611230565b600460003373ffffffffffffffffffffffffffffffffffffffff1673ffffffffffffffffffffffffffffffffffffffff1681526020019081526020016000208190555061132a600460008573ffffffffffffffffffffffffffffffffffffffff1673ffffffffffffffffffffffffffffffffffffffff1681526020019081526020016000205483611621565b600460008573ffffffffffffffffffffffffffffffffffffffff1673ffffffffffffffffffffffffffffffffffffffff168152602001908152602001600020819055508273ffffffffffffffffffffffffffffffffffffffff163373ffffffffffffffffffffffffffffffffffffffff167fddf252ad1be2c89b69c2b068fc378daa952ba7f163c4a11628f55a4df523b3ef846040516113ca9190611868565b60405180910390a36001905092915050565b60008082116113ea57600080fd5b81836113f69190612031565b905092915050565b600082600560003373ffffffffffffffffffffffffffffffffffffffff1673ffffffffffffffffffffffffffffffffffffffff16815260200190815260200160002060008673ffffffffffffffffffffffffffffffffffffffff1673ffffffffffffffffffffffffffffffffffffffff168152602001908152602001600020819055508373ffffffffffffffffffffffffffffffffffffffff163373ffffffffffffffffffffffffffffffffffffffff167f8c5be1e5ebec7d5bd14f71427d1e84f3dd0314c0f7b2291e5b200ac8c7c3b925856040516114de9190611868565b60405180910390a38373ffffffffffffffffffffffffffffffffffffffff16638f4ffcb1338530866040518563ffffffff1660e01b815260040161152594939291906120b7565b600060405180830381600087803b15801561153f57600080fd5b505af1158015611553573d6000803e3d6000fd5b50505050600190509392505050565b600081836115709190611e81565b9050600083148061158b57508183826115899190612031565b145b61159457600080fd5b92915050565b6000600560008473ffffffffffffffffffffffffffffffffffffffff1673ffffffffffffffffffffffffffffffffffffffff16815260200190815260200160002060008373ffffffffffffffffffffffffffffffffffffffff1673ffffffffffffffffffffffffffffffffffffffff16815260200190815260200160002054905092915050565b6000818361162f9190611dbb565b90508281101561163e57600080fd5b92915050565b600a60009054906101000a900473ffffffffffffffffffffffffffffffffffffffff1681565b6000600a826116799190612031565b6009819055506009549050919050565b600081519050919050565b600082825260208201905092915050565b60005b838110156116c35780820151818401526020810190506116a8565b60008484015250505050565b6000601f19601f8301169050919050565b60006116eb82611689565b6116f58185611694565b93506117058185602086016116a5565b61170e816116cf565b840191505092915050565b6000602082019050818103600083015261173381846116e0565b905092915050565b6000604051905090565b600080fd5b600080fd5b600073ffffffffffffffffffffffffffffffffffffffff82169050919050565b600061177a8261174f565b9050919050565b61178a8161176f565b811461179557600080fd5b50565b6000813590506117a781611781565b92915050565b6000819050919050565b6117c0816117ad565b81146117cb57600080fd5b50565b6000813590506117dd816117b7565b92915050565b600080604083850312156117fa576117f9611745565b5b600061180885828601611798565b9250506020611819858286016117ce565b9150509250929050565b60008115159050919050565b61183881611823565b82525050565b6000602082019050611853600083018461182f565b92915050565b611862816117ad565b82525050565b600060208201905061187d6000830184611859565b92915050565b60008060006060848603121561189c5761189b611745565b5b60006118aa86828701611798565b93505060206118bb86828701611798565b92505060406118cc868287016117ce565b9150509250925092565b600060ff82169050919050565b6118ec816118d6565b82525050565b600060208201905061190760008301846118e3565b92915050565b6000819050919050565b600061193261192d6119288461174f565b61190d565b61174f565b9050919050565b600061194482611917565b9050919050565b600061195682611939565b9050919050565b6119668161194b565b82525050565b6000602082019050611981600083018461195d565b92915050565b6000806040838503121561199e5761199d611745565b5b60006119ac858286016117ce565b92505060206119bd85828601611798565b9150509250929050565b6000602082840312156119dd576119dc611745565b5b60006119eb84828501611798565b91505092915050565b60008060408385031215611a0b57611a0a611745565b5b6000611a19858286016117ce565b9250506020611a2a858286016117ce565b9150509250929050565b600080fd5b600080fd5b7f4e487b7100000000000000000000000000000000000000000000000000000000600052604160045260246000fd5b611a76826116cf565b810181811067ffffffffffffffff82111715611a9557611a94611a3e565b5b80604052505050565b6000611aa861173b565b9050611ab48282611a6d565b919050565b600067ffffffffffffffff821115611ad457611ad3611a3e565b5b611add826116cf565b9050602081019050919050565b82818337600083830152505050565b6000611b0c611b0784611ab9565b611a9e565b905082815260208101848484011115611b2857611b27611a39565b5b611b33848285611aea565b509392505050565b600082601f830112611b5057611b4f611a34565b5b8135611b60848260208601611af9565b91505092915050565b600080600060608486031215611b8257611b81611745565b5b6000611b9086828701611798565b9350506020611ba1868287016117ce565b925050604084013567ffffffffffffffff811115611bc257611bc161174a565b5b611bce86828701611b3b565b9150509250925092565b60008060408385031215611bef57611bee611745565b5b6000611bfd85828601611798565b9250506020611c0e85828601611798565b9150509250929050565b6000611c2382611917565b9050919050565b6000611c3582611c18565b9050919050565b611c4581611c2a565b82525050565b6000602082019050611c606000830184611c3c565b92915050565b7f4e487b7100000000000000000000000000000000000000000000000000000000600052602260045260246000fd5b60006002820490506001821680611cad57607f821691505b602082108103611cc057611cbf611c66565b5b50919050565b7f4e487b7100000000000000000000000000000000000000000000000000000000600052601160045260246000fd5b6000611d00826117ad565b9150611d0b836117ad565b9250828203905081811115611d2357611d22611cc6565b5b92915050565b7f536f6c6f20656c204f776e65722070756564652068616365722061677265676160008201527f7220696e766572736f72657320656e206573746520636f6e747261746f000000602082015250565b6000611d85603d83611694565b9150611d9082611d29565b604082019050919050565b60006020820190508181036000830152611db481611d78565b9050919050565b6000611dc6826117ad565b9150611dd1836117ad565b9250828201905080821115611de957611de8611cc6565b5b92915050565b7f536f6c6f20656c204f776e65722070756564652068616365722072657469726f60008201527f7320656e206573746520636f6e747261746f0000000000000000000000000000602082015250565b6000611e4b603283611694565b9150611e5682611def565b604082019050919050565b60006020820190508181036000830152611e7a81611e3e565b9050919050565b6000611e8c826117ad565b9150611e97836117ad565b9250828202611ea5816117ad565b91508282048414831517611ebc57611ebb611cc6565b5b5092915050565b611ecc8161176f565b82525050565b6000606082019050611ee76000830186611ec3565b611ef46020830185611ec3565b611f016040830184611859565b949350505050565b611f1281611823565b8114611f1d57600080fd5b50565b600081519050611f2f81611f09565b92915050565b600060208284031215611f4b57611f4a611745565b5b6000611f5984828501611f20565b91505092915050565b7f697066733a2f2f516d4e51466d6e42503159646a4d57517352484e525647427160008201527f39596a5056466d444a593933714b5746514e5961360000000000000000000000602082015250565b6000611fbe603583611694565b9150611fc982611f62565b604082019050919050565b6000604082019050611fe96000830184611ec3565b8181036020830152611ffa81611fb1565b905092915050565b7f4e487b7100000000000000000000000000000000000000000000000000000000600052601260045260246000fd5b600061203c826117ad565b9150612047836117ad565b92508261205757612056612002565b5b828204905092915050565b600081519050919050565b600082825260208201905092915050565b600061208982612062565b612093818561206d565b93506120a38185602086016116a5565b6120ac816116cf565b840191505092915050565b60006080820190506120cc6000830187611ec3565b6120d96020830186611859565b6120e66040830185611ec3565b81810360608301526120f8818461207e565b90509594505050505056fea26469706673582212209dd781f03994ac901020be72cfa1dcfaa1f8b60d095859eb05e266a941c53a5064736f6c634300081b0033",
  "linkReferences": {},
  "deployedLinkReferences": {}
}