{
  "_format": "hh-sol-artifact-1",
  "contractName": "Token",
  "sourceName": "Contracts/token.sol",
  "abi": [
    {
      "inputs": [],
      "stateMutability": "nonpayable",
      "type": "constructor"
    },
    {
      "anonymous": false,
      "inputs": [
        {
          "indexed": true,
          "internalType": "address",
          "name": "tokenOwner",
          "type": "address"
        },
        {
          "indexed": true,
          "internalType": "address",
          "name": "spender",
          "type": "address"
        },
        {
          "indexed": false,
          "internalType": "uint256",
          "name": "tokens",
          "type": "uint256"
        }
      ],
      "name": "Approval",
      "type": "event"
    },
    {
      "anonymous": false,
      "inputs": [
        {
          "indexed": true,
          "internalType": "address",
          "name": "from",
          "type": "address"
        },
        {
          "indexed": true,
          "internalType": "address",
          "name": "to",
          "type": "address"
        },
        {
          "indexed": false,
          "internalType": "uint256",
          "name": "tokens",
          "type": "uint256"
        }
      ],
      "name": "Transfer",
      "type": "event"
    },
    {
      "stateMutability": "payable",
      "type": "fallback"
    },
    {
      "inputs": [],
      "name": "_totalSupply",
      "outputs": [
        {
          "internalType": "uint256",
          "name": "",
          "type": "uint256"
        }
      ],
      "stateMutability": "view",
      "type": "function"
    },
    {
      "inputs": [
        {
          "internalType": "address",
          "name": "tokenOwner",
          "type": "address"
        },
        {
          "internalType": "address",
          "name": "spender",
          "type": "address"
        }
      ],
      "name": "allowance",
      "outputs": [
        {
          "internalType": "uint256",
          "name": "remaining",
          "type": "uint256"
        }
      ],
      "stateMutability": "view",
      "type": "function"
    },
    {
      "inputs": [
        {
          "internalType": "address",
          "name": "spender",
          "type": "address"
        },
        {
          "internalType": "uint256",
          "name": "tokens",
          "type": "uint256"
        }
      ],
      "name": "approve",
      "outputs": [
        {
          "internalType": "bool",
          "name": "success",
          "type": "bool"
        }
      ],
      "stateMutability": "nonpayable",
      "type": "function"
    },
    {
      "inputs": [
        {
          "internalType": "address",
          "name": "spender",
          "type": "address"
        },
        {
          "internalType": "uint256",
          "name": "tokens",
          "type": "uint256"
        },
        {
          "internalType": "bytes",
          "name": "data",
          "type": "bytes"
        }
      ],
      "name": "approveAndCall",
      "outputs": [
        {
          "internalType": "bool",
          "name": "success",
          "type": "bool"
        }
      ],
      "stateMutability": "nonpayable",
      "type": "function"
    },
    {
      "inputs": [
        {
          "internalType": "address",
          "name": "tokenOwner",
          "type": "address"
        }
      ],
      "name": "balanceOf",
      "outputs": [
        {
          "internalType": "uint256",
          "name": "balance",
          "type": "uint256"
        }
      ],
      "stateMutability": "view",
      "type": "function"
    },
    {
      "inputs": [],
      "name": "decimals",
      "outputs": [
        {
          "internalType": "uint8",
          "name": "",
          "type": "uint8"
        }
      ],
      "stateMutability": "view",
      "type": "function"
    },
    {
      "inputs": [],
      "name": "name",
      "outputs": [
        {
          "internalType": "string",
          "name": "",
          "type": "string"
        }
      ],
      "stateMutability": "view",
      "type": "function"
    },
    {
      "inputs": [
        {
          "internalType": "uint256",
          "name": "a",
          "type": "uint256"
        },
        {
          "internalType": "uint256",
          "name": "b",
          "type": "uint256"
        }
      ],
      "name": "safeAdd",
      "outputs": [
        {
          "internalType": "uint256",
          "name": "c",
          "type": "uint256"
        }
      ],
      "stateMutability": "pure",
      "type": "function"
    },
    {
      "inputs": [
        {
          "internalType": "uint256",
          "name": "a",
          "type": "uint256"
        },
        {
          "internalType": "uint256",
          "name": "b",
          "type": "uint256"
        }
      ],
      "name": "safeDiv",
      "outputs": [
        {
          "internalType": "uint256",
          "name": "c",
          "type": "uint256"
        }
      ],
      "stateMutability": "pure",
      "type": "function"
    },
    {
      "inputs": [
        {
          "internalType": "uint256",
          "name": "a",
          "type": "uint256"
        },
        {
          "internalType": "uint256",
          "name": "b",
          "type": "uint256"
        }
      ],
      "name": "safeMul",
      "outputs": [
        {
          "internalType": "uint256",
          "name": "c",
          "type": "uint256"
        }
      ],
      "stateMutability": "pure",
      "type": "function"
    },
    {
      "inputs": [
        {
          "internalType": "uint256",
          "name": "a",
          "type": "uint256"
        },
        {
          "internalType": "uint256",
          "name": "b",
          "type": "uint256"
        }
      ],
      "name": "safeSub",
      "outputs": [
        {
          "internalType": "uint256",
          "name": "c",
          "type": "uint256"
        }
      ],
      "stateMutability": "pure",
      "type": "function"
    },
    {
      "inputs": [],
      "name": "symbol",
      "outputs": [
        {
          "internalType": "string",
          "name": "",
          "type": "string"
        }
      ],
      "stateMutability": "view",
      "type": "function"
    },
    {
      "inputs": [],
      "name": "totalSupply",
      "outputs": [
        {
          "internalType": "uint256",
          "name": "",
          "type": "uint256"
        }
      ],
      "stateMutability": "view",
      "type": "function"
    },
    {
      "inputs": [
        {
          "internalType": "address",
          "name": "to",
          "type": "address"
        },
        {
          "internalType": "uint256",
          "name": "tokens",
          "type": "uint256"
        }
      ],
      "name": "transfer",
      "outputs": [
        {
          "internalType": "bool",
          "name": "success",
          "type": "bool"
        }
      ],
      "stateMutability": "nonpayable",
      "type": "function"
    },
    {
      "inputs": [
        {
          "internalType": "address",
          "name": "from",
          "type": "address"
        },
        {
          "internalType": "address",
          "name": "to",
          "type": "address"
        },
        {
          "internalType": "uint256",
          "name": "tokens",
          "type": "uint256"
        }
      ],
      "name": "transferFrom",
      "outputs": [
        {
          "internalType": "bool",
          "name": "success",
          "type": "bool"
        }
      ],
      "stateMutability": "nonpayable",
      "type": "function"
    }
  ],
  "bytecode": "0x608060405234801561001057600080fd5b506040518060400160405280600381526020017f52484e00000000000000000000000000000000000000000000000000000000008152506000908161005591906103c4565b506040518060400160405280600581526020017f5268696e6f0000000000000000000000000000000000000000000000000000008152506001908161009a91906103c4565b5060028060006101000a81548160ff021916908360ff160217905550633b9aca00600381905550600354600460003373ffffffffffffffffffffffffffffffffffffffff1673ffffffffffffffffffffffffffffffffffffffff168152602001908152602001600020819055503373ffffffffffffffffffffffffffffffffffffffff16600073ffffffffffffffffffffffffffffffffffffffff167fddf252ad1be2c89b69c2b068fc378daa952ba7f163c4a11628f55a4df523b3ef60035460405161016791906104a5565b60405180910390a36104c0565b600081519050919050565b7f4e487b7100000000000000000000000000000000000000000000000000000000600052604160045260246000fd5b7f4e487b7100000000000000000000000000000000000000000000000000000000600052602260045260246000fd5b600060028204905060018216806101f557607f821691505b602082108103610208576102076101ae565b5b50919050565b60008190508160005260206000209050919050565b60006020601f8301049050919050565b600082821b905092915050565b6000600883026102707fffffffffffffffffffffffffffffffffffffffffffffffffffffffffffffffff82610233565b61027a8683610233565b95508019841693508086168417925050509392505050565b6000819050919050565b6000819050919050565b60006102c16102bc6102b784610292565b61029c565b610292565b9050919050565b6000819050919050565b6102db836102a6565b6102ef6102e7826102c8565b848454610240565b825550505050565b600090565b6103046102f7565b61030f8184846102d2565b505050565b5b81811015610333576103286000826102fc565b600181019050610315565b5050565b601f821115610378576103498161020e565b61035284610223565b81016020851015610361578190505b61037561036d85610223565b830182610314565b50505b505050565b600082821c905092915050565b600061039b6000198460080261037d565b1980831691505092915050565b60006103b4838361038a565b9150826002028217905092915050565b6103cd82610174565b67ffffffffffffffff8111156103e6576103e561017f565b5b6103f082546101dd565b6103fb828285610337565b600060209050601f83116001811461042e576000841561041c578287015190505b61042685826103a8565b86555061048e565b601f19841661043c8661020e565b60005b828110156104645784890151825560018201915060208501945060208101905061043f565b86831015610481578489015161047d601f89168261038a565b8355505b6001600288020188555050505b505050505050565b61049f81610292565b82525050565b60006020820190506104ba6000830184610496565b92915050565b6114e7806104cf6000396000f3fe6080604052600436106100ec5760003560e01c806395d89b411161008a578063cae9ca5111610059578063cae9ca5114610337578063d05c78da14610374578063dd62ed3e146103b1578063e6cb9013146103ee576100ed565b806395d89b4114610255578063a293d1e814610280578063a9059cbb146102bd578063b5931f7c146102fa576100ed565b806323b872dd116100c657806323b872dd14610185578063313ce567146101c25780633eaaf86b146101ed57806370a0823114610218576100ed565b806306fdde03146100f2578063095ea7b31461011d57806318160ddd1461015a576100ed565b5b600080fd5b3480156100fe57600080fd5b5061010761042b565b6040516101149190610e23565b60405180910390f35b34801561012957600080fd5b50610144600480360381019061013f9190610eed565b6104b9565b6040516101519190610f48565b60405180910390f35b34801561016657600080fd5b5061016f6105ab565b60405161017c9190610f72565b60405180910390f35b34801561019157600080fd5b506101ac60048036038101906101a79190610f8d565b6105ff565b6040516101b99190610f48565b60405180910390f35b3480156101ce57600080fd5b506101d761088f565b6040516101e49190610ffc565b60405180910390f35b3480156101f957600080fd5b506102026108a2565b60405161020f9190610f72565b60405180910390f35b34801561022457600080fd5b5061023f600480360381019061023a9190611017565b6108a8565b60405161024c9190610f72565b60405180910390f35b34801561026157600080fd5b5061026a6108f1565b6040516102779190610e23565b60405180910390f35b34801561028c57600080fd5b506102a760048036038101906102a29190611044565b61097f565b6040516102b49190610f72565b60405180910390f35b3480156102c957600080fd5b506102e460048036038101906102df9190610eed565b6109a2565b6040516102f19190610f48565b60405180910390f35b34801561030657600080fd5b50610321600480360381019061031c9190611044565b610b2b565b60405161032e9190610f72565b60405180910390f35b34801561034357600080fd5b5061035e600480360381019061035991906111b9565b610b4d565b60405161036b9190610f48565b60405180910390f35b34801561038057600080fd5b5061039b60048036038101906103969190611044565b610cb1565b6040516103a89190610f72565b60405180910390f35b3480156103bd57600080fd5b506103d860048036038101906103d39190611228565b610ce9565b6040516103e59190610f72565b60405180910390f35b3480156103fa57600080fd5b5061041560048036038101906104109190611044565b610d70565b6040516104229190610f72565b60405180910390f35b6001805461043890611297565b80601f016020809104026020016040519081016040528092919081815260200182805461046490611297565b80156104b15780601f10610486576101008083540402835291602001916104b1565b820191906000526020600020905b81548152906001019060200180831161049457829003601f168201915b505050505081565b600081600560003373ffffffffffffffffffffffffffffffffffffffff1673ffffffffffffffffffffffffffffffffffffffff16815260200190815260200160002060008573ffffffffffffffffffffffffffffffffffffffff1673ffffffffffffffffffffffffffffffffffffffff168152602001908152602001600020819055508273ffffffffffffffffffffffffffffffffffffffff163373ffffffffffffffffffffffffffffffffffffffff167f8c5be1e5ebec7d5bd14f71427d1e84f3dd0314c0f7b2291e5b200ac8c7c3b925846040516105999190610f72565b60405180910390a36001905092915050565b6000600460008073ffffffffffffffffffffffffffffffffffffffff1673ffffffffffffffffffffffffffffffffffffffff168152602001908152602001600020546003546105fa91906112f7565b905090565b600061064a600460008673ffffffffffffffffffffffffffffffffffffffff1673ffffffffffffffffffffffffffffffffffffffff168152602001908152602001600020548361097f565b600460008673ffffffffffffffffffffffffffffffffffffffff1673ffffffffffffffffffffffffffffffffffffffff16815260200190815260200160002081905550610713600560008673ffffffffffffffffffffffffffffffffffffffff1673ffffffffffffffffffffffffffffffffffffffff16815260200190815260200160002060003373ffffffffffffffffffffffffffffffffffffffff1673ffffffffffffffffffffffffffffffffffffffff168152602001908152602001600020548361097f565b600560008673ffffffffffffffffffffffffffffffffffffffff1673ffffffffffffffffffffffffffffffffffffffff16815260200190815260200160002060003373ffffffffffffffffffffffffffffffffffffffff1673ffffffffffffffffffffffffffffffffffffffff168152602001908152602001600020819055506107dc600460008573ffffffffffffffffffffffffffffffffffffffff1673ffffffffffffffffffffffffffffffffffffffff1681526020019081526020016000205483610d70565b600460008573ffffffffffffffffffffffffffffffffffffffff1673ffffffffffffffffffffffffffffffffffffffff168152602001908152602001600020819055508273ffffffffffffffffffffffffffffffffffffffff168473ffffffffffffffffffffffffffffffffffffffff167fddf252ad1be2c89b69c2b068fc378daa952ba7f163c4a11628f55a4df523b3ef8460405161087c9190610f72565b60405180910390a3600190509392505050565b600260009054906101000a900460ff1681565b60035481565b6000600460008373ffffffffffffffffffffffffffffffffffffffff1673ffffffffffffffffffffffffffffffffffffffff168152602001908152602001600020549050919050565b600080546108fe90611297565b80601f016020809104026020016040519081016040528092919081815260200182805461092a90611297565b80156109775780601f1061094c57610100808354040283529160200191610977565b820191906000526020600020905b81548152906001019060200180831161095a57829003601f168201915b505050505081565b60008282111561098e57600080fd5b818361099a91906112f7565b905092915050565b60006109ed600460003373ffffffffffffffffffffffffffffffffffffffff1673ffffffffffffffffffffffffffffffffffffffff168152602001908152602001600020548361097f565b600460003373ffffffffffffffffffffffffffffffffffffffff1673ffffffffffffffffffffffffffffffffffffffff16815260200190815260200160002081905550610a79600460008573ffffffffffffffffffffffffffffffffffffffff1673ffffffffffffffffffffffffffffffffffffffff1681526020019081526020016000205483610d70565b600460008573ffffffffffffffffffffffffffffffffffffffff1673ffffffffffffffffffffffffffffffffffffffff168152602001908152602001600020819055508273ffffffffffffffffffffffffffffffffffffffff163373ffffffffffffffffffffffffffffffffffffffff167fddf252ad1be2c89b69c2b068fc378daa952ba7f163c4a11628f55a4df523b3ef84604051610b199190610f72565b60405180910390a36001905092915050565b6000808211610b3957600080fd5b8183610b45919061135a565b905092915050565b600082600560003373ffffffffffffffffffffffffffffffffffffffff1673ffffffffffffffffffffffffffffffffffffffff16815260200190815260200160002060008673ffffffffffffffffffffffffffffffffffffffff1673ffffffffffffffffffffffffffffffffffffffff168152602001908152602001600020819055508373ffffffffffffffffffffffffffffffffffffffff163373ffffffffffffffffffffffffffffffffffffffff167f8c5be1e5ebec7d5bd14f71427d1e84f3dd0314c0f7b2291e5b200ac8c7c3b92585604051610c2d9190610f72565b60405180910390a38373ffffffffffffffffffffffffffffffffffffffff16638f4ffcb1338530866040518563ffffffff1660e01b8152600401610c7494939291906113ef565b600060405180830381600087803b158015610c8e57600080fd5b505af1158015610ca2573d6000803e3d6000fd5b50505050600190509392505050565b60008183610cbf919061143b565b90506000831480610cda5750818382610cd8919061135a565b145b610ce357600080fd5b92915050565b6000600560008473ffffffffffffffffffffffffffffffffffffffff1673ffffffffffffffffffffffffffffffffffffffff16815260200190815260200160002060008373ffffffffffffffffffffffffffffffffffffffff1673ffffffffffffffffffffffffffffffffffffffff16815260200190815260200160002054905092915050565b60008183610d7e919061147d565b905082811015610d8d57600080fd5b92915050565b600081519050919050565b600082825260208201905092915050565b60005b83811015610dcd578082015181840152602081019050610db2565b60008484015250505050565b6000601f19601f8301169050919050565b6000610df582610d93565b610dff8185610d9e565b9350610e0f818560208601610daf565b610e1881610dd9565b840191505092915050565b60006020820190508181036000830152610e3d8184610dea565b905092915050565b6000604051905090565b600080fd5b600080fd5b600073ffffffffffffffffffffffffffffffffffffffff82169050919050565b6000610e8482610e59565b9050919050565b610e9481610e79565b8114610e9f57600080fd5b50565b600081359050610eb181610e8b565b92915050565b6000819050919050565b610eca81610eb7565b8114610ed557600080fd5b50565b600081359050610ee781610ec1565b92915050565b60008060408385031215610f0457610f03610e4f565b5b6000610f1285828601610ea2565b9250506020610f2385828601610ed8565b9150509250929050565b60008115159050919050565b610f4281610f2d565b82525050565b6000602082019050610f5d6000830184610f39565b92915050565b610f6c81610eb7565b82525050565b6000602082019050610f876000830184610f63565b92915050565b600080600060608486031215610fa657610fa5610e4f565b5b6000610fb486828701610ea2565b9350506020610fc586828701610ea2565b9250506040610fd686828701610ed8565b9150509250925092565b600060ff82169050919050565b610ff681610fe0565b82525050565b60006020820190506110116000830184610fed565b92915050565b60006020828403121561102d5761102c610e4f565b5b600061103b84828501610ea2565b91505092915050565b6000806040838503121561105b5761105a610e4f565b5b600061106985828601610ed8565b925050602061107a85828601610ed8565b9150509250929050565b600080fd5b600080fd5b7f4e487b7100000000000000000000000000000000000000000000000000000000600052604160045260246000fd5b6110c682610dd9565b810181811067ffffffffffffffff821117156110e5576110e461108e565b5b80604052505050565b60006110f8610e45565b905061110482826110bd565b919050565b600067ffffffffffffffff8211156111245761112361108e565b5b61112d82610dd9565b9050602081019050919050565b82818337600083830152505050565b600061115c61115784611109565b6110ee565b90508281526020810184848401111561117857611177611089565b5b61118384828561113a565b509392505050565b600082601f8301126111a05761119f611084565b5b81356111b0848260208601611149565b91505092915050565b6000806000606084860312156111d2576111d1610e4f565b5b60006111e086828701610ea2565b93505060206111f186828701610ed8565b925050604084013567ffffffffffffffff81111561121257611211610e54565b5b61121e8682870161118b565b9150509250925092565b6000806040838503121561123f5761123e610e4f565b5b600061124d85828601610ea2565b925050602061125e85828601610ea2565b9150509250929050565b7f4e487b7100000000000000000000000000000000000000000000000000000000600052602260045260246000fd5b600060028204905060018216806112af57607f821691505b6020821081036112c2576112c1611268565b5b50919050565b7f4e487b7100000000000000000000000000000000000000000000000000000000600052601160045260246000fd5b600061130282610eb7565b915061130d83610eb7565b9250828203905081811115611325576113246112c8565b5b92915050565b7f4e487b7100000000000000000000000000000000000000000000000000000000600052601260045260246000fd5b600061136582610eb7565b915061137083610eb7565b9250826113805761137f61132b565b5b828204905092915050565b61139481610e79565b82525050565b600081519050919050565b600082825260208201905092915050565b60006113c18261139a565b6113cb81856113a5565b93506113db818560208601610daf565b6113e481610dd9565b840191505092915050565b6000608082019050611404600083018761138b565b6114116020830186610f63565b61141e604083018561138b565b818103606083015261143081846113b6565b905095945050505050565b600061144682610eb7565b915061145183610eb7565b925082820261145f81610eb7565b91508282048414831517611476576114756112c8565b5b5092915050565b600061148882610eb7565b915061149383610eb7565b92508282019050808211156114ab576114aa6112c8565b5b9291505056fea2646970667358221220974abe0fcca1c5755e2ff5f9cea209d8020ba6db2511bb6d74870d37840ba15b64736f6c634300081b0033",
  "linkReferences": {},
  "deployedLinkReferences": {}
}