{
  "_format": "hh-sol-artifact-1",
  "contractName": "SimpleContract",
  "sourceName": "Contracts/SimpleContract.sol",
  "abi": [
    {
      "inputs": [],
      "stateMutability": "nonpayable",
      "type": "constructor"
    },
    {
      "inputs": [
        {
          "internalType": "uint256",
          "name": "_data",
          "type": "uint256"
        }
      ],
      "name": "accumulateData",
      "outputs": [],
      "stateMutability": "nonpayable",
      "type": "function"
    },
    {
      "inputs": [],
      "name": "data",
      "outputs": [
        {
          "internalType": "uint256",
          "name": "",
          "type": "uint256"
        }
      ],
      "stateMutability": "view",
      "type": "function"
    },
    {
      "inputs": [],
      "name": "getData",
      "outputs": [
        {
          "internalType": "uint256",
          "name": "",
          "type": "uint256"
        }
      ],
      "stateMutability": "view",
      "type": "function"
    }
  ],
  "bytecode": "0x6080604052348015600f57600080fd5b506107e86000819055506101ef806100286000396000f3fe608060405234801561001057600080fd5b50600436106100415760003560e01c80633bc5de30146100465780634bd8381d1461006457806373d4a13a14610080575b600080fd5b61004e61009e565b60405161005b91906100dd565b60405180910390f35b61007e60048036038101906100799190610129565b6100a7565b005b6100886100be565b60405161009591906100dd565b60405180910390f35b60008054905090565b806000546100b59190610185565b60008190555050565b60005481565b6000819050919050565b6100d7816100c4565b82525050565b60006020820190506100f260008301846100ce565b92915050565b600080fd5b610106816100c4565b811461011157600080fd5b50565b600081359050610123816100fd565b92915050565b60006020828403121561013f5761013e6100f8565b5b600061014d84828501610114565b91505092915050565b7f4e487b7100000000000000000000000000000000000000000000000000000000600052601160045260246000fd5b6000610190826100c4565b915061019b836100c4565b92508282019050808211156101b3576101b2610156565b5b9291505056fea26469706673582212209f618d8812d5850e063cd219e6fb33b8110de916ecb2cd77ca37c79a6df9d3f164736f6c634300081b0033",
  "linkReferences": {},
  "deployedLinkReferences": {}
}